:020000040001F9
:10C00000D83C002015C101002FC1010031C1010041
:10C010000000000000000000000000000000000020
:10C0200000000000000000000000000033C101001B
:10C03000000000000000000035C1010037C1010010
:10C0400039C1010039C10100B5C4010039C1010085
:10C0500039C1010000000000CDC2010039C101005A
:10C0600039C1010039C1010039C1010039C10100E4
:10C0700039C1010039C1010039C1010039C10100D4
:10C0800039C10100C9C3010039C1010039C1010032
:10C09000E9C3010039C101003DC4010039C10100FB
:10C0A00039C1010039C1010000000000000000009A
:10C0B0000000000000000000000000000000000080
:10C0C0000348854600F0CEF80048004701ED010026
:10C0D000D83C0020401E00BF00BF00BF00BF00BF13
:10C0E00000BF00BF00BF00BF00BF00BF00BFF1D155
:10C0F00070470000401E00BF00BF00BF00BF00BF70
:10C1000000BF00BF00BF00BF00BF00BF00BFF1D134
:10C11000704700000321094802680A43026008488A
:10C1200002680A4302600748804707480047FEE765
:10C13000FEE7FEE7FEE7FEE7FEE70000240500401D
:10C140005405004061C40100C1C0010030B50B4678
:10C15000014600202022012409E00D46D5409D42E1
:10C1600005D31D469540491B254695404019154667
:10C17000521E002DF1DC30BD70B50024254600288C
:10C1800001DA01244042002901DA01254942FFF782
:10C19000DDFFAC4200D04042002C00D0494270BDCF
:10C1A00003460B439B0703D009E008C9121F08C0D0
:10C1B000042AFAD203E00B780370401C491C521E7B
:10C1C000F9D27047D2B201E00270401C491EFBD286
:10C1D00070470022F6E710B513460A460446194692
:10C1E000FFF7F0FF204610BD30B50446002003469F
:10C1F00000E05B1C934203D2E05CCD5C401BF8D0B6
:10C2000030BDF0B51FB40646002082B0054640247C
:10C21000019100901BE0019922460F46304600F044
:10C2200043F8049A059B801A994110D31046194689
:10C23000224600F029F8361A8F4101972246012044
:10C240000021009F00F020F838184D410090204652
:10C25000641E0028DFDC019B00982946324607B0A7
:10C26000F0BD0000064C0125064E05E0E36807CC52
:10C270002B430C3C98471034B442F7D3FFF724FF0C
:10C28000000102002001020010B5202A04DB014653
:10C29000203A9140002010BD914020239C1A034673
:10C2A000E3401943904010BD10B5202A04DB084636
:10C2B000203AD040002110BD0B46D340D04020246E
:10C2C000A21A91400843194610BD0000F8B5002499
:10C2D000FF250135012627460094284602F0CAFEB4
:10C2E000002808D031484068304204D0304800214E
:10C2F0002818344301602D1D76007F1CADB2042F39
:10C30000EBD3FF207D3002F0B5FE002807D029488E
:10C310000021016040070443274800690090274E30
:10C32000200712D00127002527420AD02448AA005E
:10C33000111808690969C004C00E8903B258890F31
:10C3400090477F006D1C042DEED3002C1DDA304683
:10C35000203014214156491C17D0077DBC06A40E7D
:10C36000204600F041FF80003558002D0DD0BE0959
:10C370000121A140134AA00080180068009A8003A0
:10C38000800F114202D0022802D0F8BD0328FCD150
:10C39000032E05D1022807D00221204602F05AFEC2
:10C3A00031462046A847F8BD0321F6E70063004068
:10C3B000006000407C610040000500503C300020DF
:10C3C000006500400007005010B5064900200860D5
:10C3D00048608860C860034940390860486003F0DD
:10C3E000CFFC10BD40110140FEB50020C043124DEE
:10C3F00002906869019068462E6902F0C1F807460C
:10C4000002F02AFB0446002F08D002AA01990098E6
:10C4100002F0D6F8029802F069FB06E0029802F0FA
:10C4200065FB002801D1002C02D0304601F036F81F
:10C4300000206871FEBD00006828002010B5074884
:10C440004068002807D08047002803D0002211460A
:10C4500000F036FB10BD02F051FA10BD9428002008
:10C4600010B502F0ADFA002805D00E490C4848601E
:10C47000C8130D4988610D48018CC9B201290ED13C
:10C48000818C09070BD1018D0906090F042906D1FA
:10C49000808D0006000F02D105490120886010BD83
:10C4A000DFFF07C000050040006C0040C00F00F037
:10C4B000000600407CB51B4CA0681B4E00250028E0
:10C4C00018D0A56019488069C1B2194800F02FFB47
:10C4D000002805D001216A4611700190684607E0E6
:10C4E00013488168C068401A012803D16846057066
:10C4F00071688847E069002803D0E561032002F0F5
:10C5000049FF606A00280BD06562084980390868D5
:10C51000086002216A461170019071686846884778
:10C520007CBD0000002100403C2800200025004088
:10C530001C3000200FB410B503A9044B044A029824
:10C5400000F024F810BC08BC04B01847CDE6010088
:10C550009028002030B47446641E2578641CAB42D9
:10C5600000D21D46635D5B00E31830BC184702E053
:10C5700008C8121F08C1002AFAD17047704700206E
:10C5800001E001C1121F002AFBD17047FFB591B035
:10C590000F460546002606E025280AD0149A13996E
:10C5A00090476D1C761C28780028F5D1304615B0D0
:10C5B000F0BD002400940121F34A029400E00443FA
:10C5C0006D1C2B780846203B98401042F7D1287804
:10C5D0002A280ED0022128780246303A092A15D896
:10C5E000009A0A235A43303A80180C436D1C00907D
:10C5F000F1E701CF0090002805DA01204003044351
:10C60000009840420090022004436D1C28782E2898
:10C6100015D10420044368786D1C2A280AD101CF63
:10C620006D1C02900BE002990A22514330394018E8
:10C630006D1C02902878014630390929F3D92878F1
:10C640006C2810D006DC4C281AD068280ED06A2836
:10C6500017D104E0742813D07A2812D110E00120F9
:10C66000400504430CE00121090501E0032109050F
:10C670000C436978814203D10120000524186D1C08
:10C680006D1C287803906E281ED00CDC632831D0F6
:10C6900004DC00288AD0582811D1B2E064287BD06D
:10C6A00069280CD178E073282DD004DC6F2870D075
:10C6B000702804D1A7E075286CD078286BD0149A24
:10C6C00013999047761C62E06002400F022807D061
:10C6D00003280AD0042838680AD006603F1D56E0B7
:10C6E0003868F11706604160F8E738680680F5E7BA
:10C6F0000670F3E73878694608740020487404A887
:10C700000390012003E0386803900020C0433F1DE0
:10C7100061070FD5002101E00199491C029A01919E
:10C72000914213DA8142F7DB019A0399895C00296F
:10C73000F2D10BE0002101E00199491C01918142F5
:10C74000FADB019A0399895C0029F5D101990098D7
:10C75000139A401A00902146149B00F03BF901996E
:10C760008019461807E0039803990078491C039143
:10C77000149A139990470198401E0190401CF2D1E1
:10C780002146149B139A009800F014F986196D1C29
:10C7900009E741E033E034E00A20002104900591EC
:10C7A0006002410F022905D001CFC2179446032928
:10C7B00005D007E0FF1DFF08FF0003CF06E000B231
:10C7C000C2179446042902D140B2C1178C460022F8
:10C7D0006146944506DA0A460021404291418C4662
:10C7E0002D2102E0210504D52B216A461176012175
:10C7F00003E0E10701D02021F7E7019154E00A208E
:10C800000BE0102009E010200490002104200443D4
:10C8100008200591029003E0082000210591049072
:10C820006002410F022905D001CF0022944603295E
:10C8300006D006E0FF1DFF08FF0003CF8C4603E093
:10C8400080B2042900D1C0B20021019121072BD56B
:10C850000399702906D0049A1021059B4A401A4377
:10C8600005D00EE040216A461176012108E06146BC
:10C87000014306D030216A46117603995176022190
:10C880000191049A0821059B4A401A430CD1614644
:10C89000014301D1610707D530216A461176012194
:10C8A00001910299491E02910399582904D037A198
:10C8B00003910FA90F910DE039A1F9E76146059B9E
:10C8C000049AFFF79EFC039B8C469B5C0F9A521EBA
:10C8D0000F92137061460143F0D10F9807A9081A0F
:10C8E00020300390600704D501200004844302989F
:10C8F00001E0012002900399884201DD401A00E026
:10C90000002041180290019809180098401A0090E0
:10C91000E00306D42146149B139A009800F05AF8BD
:10C9200086190020049008E006A9085C149A13995F
:10C9300090470498401C761C049001998842F3DBD0
:10C94000E0030CD52146149B139A009800F042F89E
:10C95000861904E0149A302013999047761C0299A6
:10C96000481E02900029F5DC08E00F980F99007826
:10C97000491C0F91149A13999047761C0399481EED
:10C9800003900029F1DCFBE6092801003031323345
:10C9900034353637383961626364656600000000FB
:10C9A00030313233343536373839414243444546E5
:10C9B00000000000F8B5044600251E46174688040E
:10C9C00004D405E039462020B0476D1C641EF9D51B
:10C9D0002846F8BDFFB50446002581B01E46C803B1
:10C9E00001D5302700E02027880404D505E038462B
:10C9F0000399B0476D1C641EF9D5284605B0F0BDFB
:10CA000038B50D4C6078022802D00C4901208860AE
:10CA100069460B4800F068F8002802D000F016F8CC
:10CA200038BD0848802181606A46074B1278DA6178
:10CA300002226270416038BD3C2800200020004086
:10CA40002C30002000230040002500401CB5064982
:10CA50000120C8600549487003206A461070496883
:10CA6000684688471CBD0000002000403C2800208C
:10CA700004490020487004490122CA604A60034901
:10CA8000086070473C28002000200040002500403E
:10CA900070B500238D880C680DE0E6187678E15CAF
:10CAA000864206D1E018801C491E1060918000204B
:10CAB00070BD5B185B1C9D42EFD8052070BD000067
:10CAC000BFF34F8F04490348C860BFF34F8F00BFC7
:10CAD000FDE700000400FA0500ED00E0014B1B68D3
:10CAE00018470000F82F00208268C36893420AD0DC
:10CAF000826883881A4003689A5C0A708168491CBE
:10CB000081600020704705207047002906D0002A68
:10CB100002D0531E134203D0092070470E207047E5
:10CB20000160838000218160C1600846704782688F
:10CB3000C3689B1A8288934208D8C368134002686E
:10CB4000D154C168491CC16000207047042070475F
:10CB500038B50C46A2680C235A43064B09789D58F9
:10CB6000054A126A00920246204608302369A84707
:10CB700038BD0000C83000204428002010B5064908
:10CB800014230A785A435118091DFFF7E1FF0420C6
:10CB900002F01CFF10BD00007430002000B50D4AEB
:10CBA00089B007CA05AB07C30020694608840A4854
:10CBB0000190012002900948039001208002049016
:10CBC00008A800900323064A01A905A800F00AF866
:10CBD00009B000BDD0FE01008C280020D430002018
:10CBE00001FE0100FFB5584F83B000260D460446F4
:10CBF0007E707A6000292AD0A888296882B25348BA
:10CC0000FFF783FF002823D1A889A96882B24F4883
:10CC10001030FFF77AFF00281AD160784C490322C0
:10CC200080004018026022783046920051180E6051
:10CC3000484D6178E96021786961A1686962454E73
:10CC400061794036002905D00E21F16203E007200A
:10CC500007B0F0BDF0622379022B17D03E493F4A5E
:10CC6000012B45D004232B608860C861F06A40081E
:10CC70004000F062581FA860286101209060106099
:10CC800078700C98008800283FD043E002F090F9BB
:10CC9000002803D102F062F90028D9D13048694652
:10CCA00000680090A07802F08BF90028D0D1401ED7
:10CCB0002861A078A860F06A01210843F062284842
:10CCC000284A40680190E07801A902F0F3F80028B2
:10CCD000BED1E078012102F09DF8E07802F034F94D
:10CCE000002801D0002000E0012002F053FBC8E73B
:10CCF00004232B608860C861F16A01200143F1625E
:10CD0000E1782961A178A960B8E70C9938780880A2
:10CD1000401C387000211448C9438160A12189005A
:10CD20004160124904200860114B06991A68FF24DB
:10CD300024048907090EA24309040A431A600D4915
:10CD40000860002084E700003C2800201C30002000
:10CD50000007005000250040002100400020004056
:10CD6000A0FE010011E801000023004080E200E085
:10CD700000E400E000E100E010B501460448FFF7E0
:10CD8000D6FE0446022002F005FB204610BD00003E
:10CD90002C30002030B5002815D0002913D00E4AC1
:10CDA0001378002B11D09368022B10D011D20B4CAA
:10CDB000DD002C1905882580408860805B1C61603F
:10CDC0000020936030BD0E2030BD082030BD06200D
:10CDD00030BD042030BD00001C280020182D00208C
:10CDE00000210448012281600270C1604160084650
:10CDF000704700001C28002070B5002815D00029BD
:10CE000013D0244A1278002A0FD00A88302A17D06B
:10CE10000CDC04464034102A10D0112A05D16221BE
:10CE2000FFF7D7F90020C043A08370BD322A2DD070
:10CE3000332AFAD1091D02F01DFA70BD8888F3E784
:10CE40000546C888091D002807D00021284600F0A3
:10CE5000C1FF284602F066FA70BD2C466034207887
:10CE60002E22504340194A8902808A894280CA8909
:10CE70004285098A8185284600F0BEF90100EBD081
:10CE800000206070284600F0DBFF70BD091D02F035
:10CE900083F970BD1C28002070B500280DD0174AFA
:10CEA0001378002B0BD09368002B08D00546603513
:10CEB0006B78002B05D0112070BD0E2070BD0820AE
:10CEC00070BD0023D36053600246403204462B708D
:10CED0000B48918301882180408860801646928BA0
:10CEE00089B20848FFF726FBB08B2246012190DF6C
:10CEF0000028E5D101206870002070BD1C280020AA
:10CF0000182D00205400020010B5044600F0C0FFA8
:10CF100021460648FFF770FF04482146643000F0C0
:10CF20004BF8204602F0B0F810BD0000342C002071
:10CF300081880088002295DF7047000010B5002826
:10CF400007D00549022008700448FFF7F3FA0020D3
:10CF500010BD0E2010BD00000C280020ACFF010009
:10CF6000F8B59446002906D00F4A002351701D469B
:10CF70000E4ED0600CE00720F8BD62469C0017689A
:10CF800002595B1C97600759DBB23E8002595580FD
:10CF90008B42F2D301216846817005490180054921
:10CFA000FFF7F8FEF8BD00000C280020FFFF00008E
:10CFB0000318000021D6010030B50C4605468FB09D
:10CFC000098824A0FFF7B6FA2022211D06A8FFF742
:10CFD000E7F820460C3007C803AB07C3002D0ED07E
:10CFE000002C0CD02088332820D00ADC01282AD03D
:10CFF000102804D1A08828801BA0FFF79BFA0FB04F
:10D0000030BD35281AD03728F9D16846817B008A8F
:10D01000E2886B4607C369464B8A8A89097D1EA050
:10D02000FFF788FA274801F0B7FE03E0217D26A02C
:10D03000FFF780FA2846FFF77BFFE0E7A17C28A0F6
:10D04000FFF778FADBE7E288217D2AA0FFF772FA82
:10D05000D5E700006576656E7420696420697320E9
:10D0600025780D0A00000000436F6E6E65637465DD
:10D07000642021212121212121212121212121215E
:10D080002121212121212121212121212121212190
:10D090000D0A0D0A000000004741545420636C69DA
:10D0A000656E743A2025782025782025782025780B
:10D0B0002025782E20434F44452069732025780D84
:10D0C0000A00000088130000322E575249544520B0
:10D0D00076616C75652069732025780D0A00000063
:10D0E000524541442076616C75652069732025782E
:10D0F0000D0A000057524954452076616C75652031
:10D100006973202578206E756D626572206F6620C8
:10D110007061636B6574732069732025780D0A0054
:10D120001CB5002348221549082002F083FC002882
:10D1300003D000221146FFF7C3FC0020009069468F
:10D1400001900870684660DF002803D00022114675
:10D15000FFF7B6FC0A4802F063FC002803D0002267
:10D160001146FFF7ADFC074802F07CFC002803D015
:10D1700000221146FFF7A4FC1CBD0000EC2B002090
:10D1800009CF010059FC01000022D2438300044969
:10D190000428CA5002D308182030027470470000D7
:10D1A0003C300020F0B50025ED43002A02D00023DA
:10D1B000042601E0042305260A4C04E09F00E759F9
:10D1C0007F1C04D05B1CB342F8D32846F0BD5DB28F
:10D1D000261835759E00A151002AF6D1E11820319C
:10D1E0000874F2E73C300020024909181420085660
:10D1F000704700003C30002008B56021095C2E22F9
:10D20000514309184030C27F002A08D0521ED2B2C2
:10D210000C235A435218D2896B46521C01E04A8DA6
:10D220006B461A80898D5980808B194692DF08BD24
:10D23000F8B53E481422017851430C18E0680C21DF
:10D2400048433A492769543140180589418900917A
:10D25000241D466802F0CCF901463846FEF776FFF9
:10D26000002932D000200099A2884D436188AE1970
:10D270008918CD1900222E4900280A6109D002F030
:10D28000B7F96188884222D0B54202D1A08800282F
:10D290001DD0A06802281AD002F0AAF9A188CA19E4
:10D2A00001461046FEF752FF214C8808E06002F06C
:10D2B0009FF901462846FEF749FF002911D00020BA
:10D2C000B5422FD000280ED02CE00120CBE702F091
:10D2D0008FF901463846FEF739FF154948610320AA
:10D2E00021E00120ECE7ADB2B7B202F081F90146CE
:10D2F0003846FEF72BFF064602F07AF9014628462B
:10D30000FEF724FF864201D1781B09E002F070F994
:10D31000064602F06DF901462846FEF717FF701A1F
:10D3200080082061022002F051FBF8BD743000201B
:10D330004428002010B507481422017851430818EA
:10D340000079042802D000F08BF810BD012002F013
:10D350003DFB10BD743000207FB502465178682334
:10D360005943124B124EC91878CE009301AB70C3CB
:10D370006031CB790020002B15D00E4C23785B1E3A
:10D3800023700023CB71517804290AD289006A46A0
:10D39000525C012191400F2252051140064A9160D2
:10D3A000D36004B070BD0820FBE70000AC2800206B
:10D3B00048FE0100002800200005005010B50B4871
:10D3C0001422017851430818094AC1881162007972
:10D3D000012806D0032801D0042801D1FFF728FF37
:10D3E00010BD012002F0F2FA10BD000074300020E0
:10D3F0004428002014225043054A0021801801715E
:10D40000C18001220161C260416101817047000059
:10D4100074300020F8B5104C069E6578042D19D0A4
:10D4200027787D19042D00D32D1F14277D432D1936
:10D4300028716A6103C92961E860EB802E816078F8
:10D44000401C607005480078002801D1FFF7B6FF46
:10D450000020F8BD0420F8BD7430002044280020CE
:10D4600010B50D4C14212078484301190020091DE6
:10D47000FFF76EFB2078FFF7BDFF6078401E6070FD
:10D480002078401CC0B22070042801D100202070F8
:10D49000002002F09BFA10BD74300020F8B522483D
:10D4A00001694A1C3DD024225143826889184E6884
:10D4B0001E494C6847690079E11B0D022D0AED1CDD
:10D4C000002814D101201A4A00045060184A403A3A
:10D4D000506018494000086017490860174901204A
:10D4E00008602F20FEF706FE0F4901200871B542A3
:10D4F00000D23546E81900020C49000A40310860A4
:10D500000A494968001B091B0902090A0002000AAE
:10D51000C91C814204D901200649400480390860B1
:10D52000F8BD02F013FAF8BD68280020001501408C
:10D530004013014080E200E000E100E00010014003
:10D54000F0B59446044608200B4A0C4D00230C26E7
:10D550005E437619B77A0F4209D0944202D03089DF
:10D56000A04203D1604603600020F0BD05205B1C93
:10D57000082BECD3F0BD0000FFFF0000982F002027
:10D580000C214843064910B5012240188272911EB1
:10D590000181FF21C1720721FEF71BFE10BD0000B3
:10D5A000982F002010B5134C207900071FD4606914
:10D5B000401C6061E068002801D0042004E001F014
:10D5C00023FA002803D0022002F03CFB10BD2069A2
:10D5D000002809D06068C10701D00320F4E70121C9
:10D5E000084360600020EFE7FFF7A4FE10BD02F0E3
:10D5F0001DFB10BD4428002010B5084841680A07EB
:10D6000008D48A0702D5012211434160022002F0AA
:10D6100019FB10BD02F00AFB10BD000044280020D9
:10D62000F8B52C4E054601780027F068002906D190
:10D63000A988294A914202D1A979012904D004215B
:10D640006A461170006840E024490024A200825814
:10D6500012888A4205D1A200805869880180274635
:10D6600005E0072C07D0641CE4B2082CEED300249C
:10D670001B49287A1EE01B4818E00C22624352190D
:10D6800052898A4215D118A0FEF754FF707887425C
:10D690000BD20C2044436019F268B9005458838AB5
:10D6A00063805158408A888006E01BA0FEF742FF45
:10D6B000F8BD641CA042E0D825A0FEF73BFF012086
:10D6C00069460870F168B800085869468268904752
:10D6D000F8BD00000C28002003180000FFFF000028
:10D6E000062A000064FF01005B4C4C535F435D3A27
:10D6F00020466F756E6420416C657274204C6576AF
:10D70000656C2063686172616374657269737469C2
:10D71000632E0D0A000000005B4C4C535F435D3AE2
:10D720002053697A65206F66204C696E6B204C6FC0
:10D73000737320436C69656E74207461626C65203C
:10D7400069732065786365656465642E0D0A000061
:10D750005B4C4C535F435D3A204368617261637474
:10D760006572697374696320646973636F76657247
:10D77000656420617420706565722E0D0A000000DA
:10D78000F3B50546603000782E2148432E464719F0
:10D790004036F47F0C206043C1193A79601C891D22
:10D7A00083B0904226D101AB0022284601F0E6F872
:10D7B000002822D010E0401EA04201D1002003E04A
:10D7C0000C206043C01912300246009001AB28467D
:10D7D00001F0D4F8002807D0049800210170B08B24
:10D7E00001A993DF05B0F0BDF07F0099401C641CD7
:10D7F000F077E4B23879A042DDD8049801210170B5
:10D800000020EFE7FEB50E46044681786A462348BD
:10D8100001F060FE002826D160780C21204F48439B
:10D82000C019807A40061FD4022E1DD0012E1DD0B3
:10D830001C4DA078182148431B4900234118182289
:10D840006846A847002813D0022E0CD020780C215F
:10D850004843134960314018807A144980000A58BF
:10D86000214668469047FEBD114DE2E7114DE0E7C5
:10D87000022EF8D060780C214843C019817ABF226B
:10D880001140817260781C21484307491823C03138
:10D8900041181C226846A847D8E700003428002019
:10D8A000982F0020B1FB0100982D002070FE010090
:10D8B00081F80100A5F7010070B50546114A12482C
:10D8C0000024182363431B18DB7DFF2B04D0641C4A
:10D8D000082CF6D3104670BD0A78022A09D0182207
:10D8E00062431018FD22C27507221030FEF758FC63
:10D8F00004E0182161430818FE21C1752C70002234
:10D90000E8E7000043800000982D0020FEB50446A3
:10D9100008780F461546152876D009DC524E112896
:10D920000DD012283BD0132854D0142850D164E0D5
:10D93000212872D022287DD0232849D187E04BA00E
:10D94000FEF7F8FD78686D468179037AC2790EC5D5
:10D9500043790279C1784D48FEF7ECFD4AA0FEF705
:10D96000E9FD7868042205883F48B5802146801D7E
:10D97000FEF716FC29464648FFF78EFA002803D02A
:10D9800000221146FFF79CF83078401CC0B230707E
:10D99000082801D201F0FCFF61783EA016E0617812
:10D9A00046A0FEF7C7FD2046FFF7D6FC002803D0AF
:10D9B00000221146FFF784F83078082801D101F0E1
:10D9C000E7FF3078401E3070617847A0FEF7B2FD67
:10D9D0000020FEBD61784FA0FEF7ACFD2248801DFF
:10D9E00000F064FD002803D000221146FFF768F81C
:10D9F000617800E008E052A0E8E761785B48FEF754
:10DA000099FD61785AA0E1E7617866A0FEF792FD82
:10DA1000617872A0DAE700E00CE061787AA0FEF7A6
:10DA200089FD280003D000221146FFF749F86178EC
:10DA300080A0CBE761788CA0FEF77CFD280003D0A6
:10DA400000221146FFF73CF8617894A0BEE76178A8
:10DA50009FA0FEF76FFD280003D000221146FFF7BC
:10DA60002FF86178A7A0B1E7022800205B41505051
:10DA70004C5D3A203E3E20444D5F4556545F434F37
:10DA80004E4E454354494F4E0D0A000020FF010001
:10DA9000342C00205B4150504C5D3A5B307825308F
:10DAA00032585D203C3C20444D5F4556545F434F07
:10DAB0004E4E454354494F4E0D0A00005B415050B5
:10DAC0004C5D3A5B3078253032585D203E3E204434
:10DAD0004D5F4556545F444953434F4E4E45435462
:10DAE000494F4E0D0A0000005B4150504C5D3A5BBF
:10DAF0003078253032585D203C3C20444D5F4556FF
:10DB0000545F444953434F4E4E454354494F4E0D85
:10DB10000A0000005B4150504C5D3A5B3078253084
:10DB200032585D203E3E20444D5F4556545F53457C
:10DB30004355524954595F53455455500D0A0000FE
:10DB40005B4150504C5D3A5B3078253032585D2057
:10DB50003C3C20444D5F4556545F53454355524924
:10DB600054595F53455455500D0A0000DCFE010026
:10DB70005B4150504C5D3A5B3078253032585D2027
:10DB80003C3C20444D5F4556545F534543555249F4
:10DB900054595F53455455505F434F4D504C455475
:10DBA000450D0A005B4150504C5D3A5B30782530A2
:10DBB00032585D203E3E20444D5F4C494E4B5F53F2
:10DBC0004543555245445F494E442C207265737558
:10DBD0006C74203078253038580D0A005B41505065
:10DBE0004C5D3A5B3078253032585D203C3C204417
:10DBF0004D5F4C494E4B5F534543555245445F4939
:10DC00004E440D0A000000005B4150504C5D3A5BF1
:10DC10003078253032585D203E3E20444D5F4556D9
:10DC2000545F4C494E4B5F534543555245440D0A92
:10DC3000000000005B4150504C5D3A5B307825306D
:10DC400032585D203C3C20444D5F4556545F44456E
:10DC5000564943455F434F4E544558545F4C4F41DE
:10DC60004445440D0A0000005B4150504C5D3A5B56
:10DC70003078253032585D203E3E20444D5F455679
:10DC8000545F4445564943455F434F4E54455854AD
:10DC90005F53544F5245440D0A0000005B41505001
:10DCA0004C5D3A5B3078253032585D203C3C204456
:10DCB0004D5F4556545F4445564943455F434F4E7B
:10DCC000544558545F53544F5245440D0A000000C8
:10DCD0005B4150504C5D3A5B3078253032585D20C6
:10DCE0003E3E20444D5F4556545F444556494345AA
:10DCF0005F434F4E544558545F44454C455445444A
:10DD00000D0A00005B4150504C5D3A5B3078253085
:10DD100032585D203C3C20444D5F4556545F44459D
:10DD2000564943455F434F4E544558545F44454C14
:10DD3000455445440D0A000000B585B001F05EFC75
:10DD4000002803D000221146FEF7BAFE00206946E3
:10DD500008741D480069800CC007C00F31D0002036
:10DD6000087404A800F05AFA002803D000221146D3
:10DD7000FEF7A6FE01A805210130FEF72AFA134896
:10DD80000222694600900A71487901231843E12173
:10DD90000840DF210C30084069464871072088712F
:10DDA0001020C871087A184310430872084800F020
:10DDB00051FB002803D000221146FEF781FE05B07A
:10DDC00000BD0120CCE70000000500500DD9010086
:10DDD00005280020F3B50446603000782E21484322
:10DDE000071981B0384601F093FD060023D0124D8B
:10DDF000686802281FD24034A18B38220F4C504350
:10DE0000031959800299002907D0002121542E229C
:10DE10003946181DFEF7C4F901E002212154686853
:10DE2000382141430919401C4E636860A968884243
:10DE300001D101F00DFBFEBD1C280020282D002083
:10DE4000F8B5044660300D4600782E21484300198D
:10DE500001F05EFD010016D00B484268022A12D282
:10DE600040343823A68B5343084C1F461B195E8051
:10DE70000126E6555D60521C59634260806882420B
:10DE800001D101F0E5FAF8BD1C280020282D002062
:10DE9000F0B50646D5480027007893B000285BD03F
:10DEA000D34D2868002857D0684600F0A9F900280B
:10DEB00003D000221146FEF703FE00200E90301D15
:10DEC00002902A2168468181FF2181700021017022
:10DED0000B91C74C3088603C10280ED0B0880BAA3C
:10DEE0000221FFF72DFB002807D10B980C2141439D
:10DEF0000919C97A6A4691705070308817287DD008
:10DF00002CDC102837D0112879D0132824D10B9974
:10DF10001C220B4653430020B64A0A909A180592D9
:10DF20000C225143089009900919C97A18225143CB
:10DF3000B04A0790C03A891806910022B08805AB14
:10DF400011467FDF002807D10B980C2148430019A8
:10DF5000817A04221143817213B0F0BDA6491828BA
:10DF60007ED01C287DD05228F6D1A87A800009588E
:10DF700068468847F0E70BAA0121A048FFF7E0FABE
:10DF80000028E9D10B990C20484302220019827223
:10DF900011236A4613715170B18801810722B11DA6
:10DFA000FEF7FEF8B61D0D96002692491820704324
:10DFB000C0394018072210300D99FEF715F90028D6
:10DFC00003D0761C082EF0D3DCE00B980C214843DC
:10DFD0000019C672817A08221143817268468670E0
:10DFE0008248B1B20CAA083001F074FA0028EBD1D3
:10DFF0000B981C2148437F49401801E03CE00DE0AC
:10E0000018231C220CA901F01FFBA87A7A49800072
:10E0100010390A5869460CA89047B3E00B980C21B8
:10E0200048430119887AFD2210408872010706D5FD
:10E03000C0090DD000216846FFF7E4FB08E0684600
:10E040008078FF2804D001F0E9F9FF206946887044
:10E050000B980C2148430019817A490706D501E045
:10E0600054E08CE0697A0127B9436972102181720A
:10E0700012216846017185E0687A0C214008400051
:10E0800068720B986B464843011984468A7AFB20D4
:10E0900002408A7214201871B0790127002801D03B
:10E0A0000E906FE0F07940076CD59878FF2869D022
:10E0B00008231A438A72B27A920709D518230246B6
:10E0C0005A434C4BC03BD218D37D5B085B00D375E1
:10E0D000CA7AFF2A56D06246A25C022A11D01822C0
:10E0E000444E5043C03E801907221030FEF758F8C6
:10E0F00068468078182148438019C27DFD210A4076
:10E10000C27501216846FFF77DFB3BE0B07902094B
:10E11000012A22D10007000F01281ED10B980C22E2
:10E1200050430219927A120717D53149C039401865
:10E130000621001DFEF74DF81620694608710B9860
:10E140000C2148430119887A602210438872697A49
:10E15000012702200143697214E00B980C225043FE
:10E160000019827A80231A43827215206A46107140
:10E17000A87A8000095868468847002090E7132055
:10E180006946087101A968460E9AFEF7A7FC684621
:10E190000079122808D10B980C2141430919897A7A
:10E1A000012901D0FFF7ECF9002F00D1D4E6687AFD
:10E1B0008007FBD506AA20211048FFF7C1F90028E7
:10E1C00004D0687AFD2108406872C5E600206946DF
:10E1D0000875069848750C2148430019C07A6946AD
:10E1E000887505A800F05CFBB6E600002C2800202E
:10E1F000F82F0020582E002090FE0100FFFF0000A5
:10E20000002806D0FF21017041708170C17000208C
:10E2100070470148704700000E800000F0B585B0DF
:10E22000040035D0002528482E46056045728572C9
:10E230003046FFF7A5F9761C082EF9D32248602155
:10E24000C038FDF7C6FF0026304601F0E7F8761C1F
:10E25000082EF9D34421684681800821C1801B48DB
:10E2600000901B49684601F043FA00280ED1184E71
:10E270000120083E3070207800280BD0694688883D
:10E28000C988484381B2124801F04EF905B0F0BD8B
:10E290001048FBE7104F0024A1B202AA0C4801F07D
:10E2A00019F9002809D118206043C0190023182249
:10E2B00002A901F0C9F9002801D03570E6E7641C15
:10E2C000082CE9D3E2E70000F82F0020DDE201008E
:10E2D000342800200E800000982D0020FFB55A48F9
:10E2E00091B000681A9F1D46002851D0442F4FD886
:10E2F0006846FFF785FF002803D000221146FEF78D
:10E30000DFFB0026684606700672344606970795BE
:10E31000A1B20FAA4D4801F0DDF8002806D108226D
:10E320000FA91198FDF760FF002819D0641C082C74
:10E33000EED3684680780190FF2829D012982024D7
:10E34000032810D042481821281AFDF7FFFE0127A4
:10E3500008282DD205A80390139800281AD021E090
:10E3600068468470E5E7442F03D040206946087270
:10E3700001E0684604726946087A03210843694649
:10E38000087205A8039002A96846139AFEF7A6FB37
:10E3900015B0F0BD0198394681402C4808384068D6
:10E3A0000142F5D0019801F037FD684604723EE065
:10E3B00027481C21C030281AFDF7C8FE08281AD2A9
:10E3C00005A9039169460C7248701F490C960C31DF
:10E3D0000D911C2148431E49C031401869460990DF
:10E3E0008878182148431A4940180A9009A80790CC
:10E3F000182006901BE0144C0C21C03C281BFDF794
:10E40000A5FE08281AD230216A461172C1B2517095
:10E41000D7700C225043224660328018807A8007E1
:10E4200005D40C20414308190660466086601298A6
:10E4300069460228087A05D002219FE740206946F4
:10E440000872A5E738439BE7F82F00203428002006
:10E45000982D002070B5064611480D46007800281A
:10E460000ED01049002E0ED0002D0CD028680028A8
:10E4700009D00D4C2168002907D00A480A3870BD20
:10E480000848801F70BD084670BD20600522691DC8
:10E49000201DFDF785FE2879A0720020307070BD28
:10E4A0002C2800200E800000F82F0020F8B504462C
:10E4B0002F4830490078002857D0002C03D020780E
:10E4C000002852D102E02B48801DF8BD2A4E30684A
:10E4D00000284AD06278082A0DD20C2035465043D5
:10E4E000603D4019837A012B05D09B073DD5A1786B
:10E4F000FF2906D102E01F480830F8BDC17AFF2984
:10E500000AD0C17AA1701C214A431C4900895218C3
:10E510001146123181DF27E001466846FFF7CCF94A
:10E52000010022D162780C2368465A4300785219C0
:10E53000D072A070207858438019407AC00710D05C
:10E5400060780C2250434019827A20231A43827249
:10E5500020780C2250438019427A02231A434272D7
:10E5600003E0204600F09CF901460846F8BD000093
:10E570002C28002008800000F82F0020582E0020B2
:10E5800010B50E4900238A78CC78A24212D0521CD2
:10E59000D2B28A70022A00D18B708A78074B92001F
:10E5A0001C339A580260486910180002000A48613A
:10E5B000012010BD0360002010BD0000682800206D
:10E5C000F7B5144C0025A76823691EE024215943A0
:10E5D000C9194E68864202D9301A486017E0801B7C
:10E5E000751900264E600E750E699C460B6AB6467C
:10E5F000002E0AD0019E76193602360A8E607646C3
:10E60000CE6016680E6261461160591CDED123612E
:10E61000FEBD00006828002010B5002803D0112896
:10E6200002D0FEF7ABFA10BD024808224168114340
:10E63000416010BD4428002010B51C4C21782046B4
:10E640004068012906D0022929D0032912D10007E8
:10E6500017D513E0000711D415481422017851434F
:10E660000818C188A28B891A0904090CC18002D03C
:10E6700001F0A0FA10BDFEF7F3FE10BD00F07AFB2A
:10E6800010BD6069401C606100F0BEF9002803D035
:10E69000207801F09BF910BDFEF74CFE10BD6078AC
:10E6A000044980000858804710BD0000442800201D
:10E6B00074300020BCFE010010B528DFFFF7ACFF6E
:10E6C00010BD10B529DFFFF7A7FF10BD10B5044638
:10E6D000C0B2FEF751FB204610BD0020704700205D
:10E6E0007047002070470000F8B544780C20444380
:10E6F0000B480021034605596033E3180A46002DF4
:10E7000007D09E7AF70904D0760602D42118AAB25F
:10E71000091D18890323A9DF002800D00148F8BD8E
:10E72000382F00204180000070B50D460146687802
:10E730000C22084C50430019342300F085FF0028B8
:10E7400006D169780C2251436258521C00D16250A4
:10E7500070BD0000382F0020FEB50D46074606208C
:10E760006946088168780C214843204E02AA801926
:10E77000008903236946AADF002834D168780C2178
:10E7800048433446603C001969460A89001DFDF77C
:10E790002BFD0028687806D00C2148432158002919
:10E7A0000DD0134E0CE00C2148438119897A89075A
:10E7B00019D40019002101604160816013E00D4E01
:10E7C00069460A89225068780C2148430019694635
:10E7D000001DFDF7E5FC68780C214843011934233E
:10E7E0000C223846B0470020FEBD0000982F0020C4
:10E7F00081F80100A5F7010010B5FFF775FF10BD06
:10E8000010B5FFF791FF10BD10B5FFF7A5FF10BDC4
:10E8100010B500F099FB002801D0002000E0012095
:10E8200000F0B8FD10BD000070B51B4C207900074A
:10E830002ED41A481422017851430D182E6900F085
:10E84000D7FE0146E8882A89761E80188019FDF7D0
:10E850007DFC21690025002909D06169814206D12A
:10E86000E560606801210843606000200AE000F074
:10E87000CBF8002802D00220E56003E020690028E0
:10E8800003D0032001F0DEF970BDFEF753FD70BD2B
:10E8900001F0CCF970BD0000442800207430002045
:10E8A00070B504460078144E0C21484381196078F5
:10E8B0000C2235465043603D40190089091D7EDF1A
:10E8C000010016D120780C2250438019427A01238E
:10E8D0001A43427260780C2250434219907A042302
:10E8E0001843907262780C235A435219DF23184060
:10E8F0009072084670BD0000F82F0020F8B51E4C3D
:10E900002078002837D02069002807D00026E0684A
:10E91000002805D00025002E04D013E00126F6E7DC
:10E920000125F8E7684651DF052806D0002806D003
:10E9300000221146FEF7C4F804E0012602E0216936
:10E9400000988847002D12D1608869460880A06829
:10E9500061DF052806D0002806D000221146FEF708
:10E96000AFF804E0012502E0E168A0688847002EC6
:10E97000D8D0002DCFD0F8BD9428002030B509891B
:10E98000002A05D0D088491C814212D1002030BD18
:10E990000246603214782E256C432418A48DA142BF
:10E9A000F4D0491C198011782E2251430818808D0B
:10E9B00002E01980D088401E5880012030BD000040
:10E9C0001048018CC9B2012917D1818C090714D1D3
:10E9D000018D09060A0F03D1828D1206120F0ED087
:10E9E000090F012903D1828D1206120F07D00329C6
:10E9F00003D1808D0006000F01D000207047012058
:10EA000070470000C00F00F070B50E481422017866
:10EA100051430C18256900F0EBFD0146E08822897E
:10EA20006D1E80184019FDF791FB07494A69824223
:10EA300006D3824202D10869002801D0002070BDAF
:10EA4000012070BD7430002044280020800701D0D0
:10EA50000020704701207047F8B5234801690091F4
:10EA6000457833E02048E900C0680E1834782AE081
:10EA7000182060437168641C0818B178E4B2A142A0
:10EA800000D100240178022902D003291BD113E010
:10EA9000154A40682421926841438F18397D002926
:10EAA00011D001F035F9002038750CE024277843A7
:10EAB000C0180275006A03E00B4900228B680869E0
:10EAC000471CF3D108617078A042D1D128466D1E51
:10EAD000EDB20028C6D1044801690098814201D0F6
:10EAE0000120F8BD0020F8BD68280020F8B50446D4
:10EAF000384800270169009146785CE03548F1000C
:10EB0000C2688D1851E0601C07D0324A24209268F8
:10EB1000604321468018046A24E028781821414384
:10EB20006A68401CC0B252182870A978884200D187
:10EB30002F70284B516824209B684843C0181378D5
:10EB4000012B34D1037D002B31D193688360D368CE
:10EB5000C360136903615269C2611E4A5279002A77
:10EB600000D087601B4B82685B6996469C46D31A2F
:10EB70001A02194B120A9A4202D2C368D21808E04C
:10EB8000724663469A1A1202C368120A934202D965
:10EB90009A1A426000E0476087600122C7600275F0
:10EBA000921E0262084601F081F8601CABD1287801
:10EBB00069788842A7D13046761EF6B200289DD1EA
:10EBC000044801690098814201D00120F8BD00206D
:10EBD000F8BD000068280020FFFF7F0010B5044644
:10EBE0000878012807D002280ED0032818D004285E
:10EBF00015D112A01EE01F48FFF758FC002803D0D3
:10EC000000221146FDF75CFF1A4BA18820881B1FCC
:10EC1000012201F00BF9014617A0FDF78BFC10BD96
:10EC20002046FEF78BF9002803D000221146FDF79D
:10EC300047FF19A0FDF77EFC10BD00005B4150505E
:10EC40004C5D3A204C696E6B204C6F73732053659A
:10EC5000727669636520776173206E6F7420666FCA
:10EC6000756E642061742074686520706565722E0D
:10EC70000D0A0000082800205752495445207265AB
:10EC80007475726E206572726F7220636F64653D79
:10EC90002025780D0A0000005B4150504C5D3A2061
:10ECA000416C61726D20686173206265656E2072CF
:10ECB000656D6F7665642E0D0A00000038B50E4A4A
:10ECC0000020114660310C23434384009B18401CF4
:10ECD000C0B20B510828F6D30848009006486A468F
:10ECE00008216030FEF73CF9002803D000221146CD
:10ECF000FDF7E6FE38BD0000982C0020DDEB01009A
:10ED0000FDF74CFF00200121174B03220C468440E5
:10ED1000E401240F02D08400E4182260401C202863
:10ED2000F4D30F211148490581600021C1600E49CB
:10ED30000F4848310860FEF7F3F9FEF7FDFFFEF7D4
:10ED40004FF8002803D000221146FDF7B9FEFFF767
:10ED5000B5FF00F01DFE48DF0028FCD00022114660
:10ED6000FDF7AEFEF7E70000000700500005005079
:10ED70000C00030010B5044808224168914341602B
:10ED8000007800F023FE10BD4428002000207047CA
:10ED9000002070470020704731B5054C04E0401E4C
:10EDA00000902046FDF796F900980028F7D138BD6D
:10EDB000E70300008207D30EFF229A408907090E5D
:10EDC00010B5994000280BDA03071B0F083B9C087D
:10EDD0000C4BA400E318DC6994430C43DC6107E0AE
:10EDE0008408094BA400E418236893430B43236071
:10EDF000C106C90E01208840044908600449086022
:10EE000010BD000000ED00E000E400E080E200E062
:10EE100000E100E0F3B581B00F46019800F02EFB51
:10EE2000012400281E4E019817D0FEF7DDF9801945
:10EE30002030007C8009032802D0012806D007E09A
:10EE40001848006901998C40204201D1022100E05C
:10EE50000321019800F0FEF8FEBD00F01BFB002826
:10EE6000FAD00198FEF7C0F905468100C81D0E4A88
:10EE7000F93089180A6980B222430A610B494018A7
:10EE800000210160002FE7D00198FEF7ADF9800066
:10EE900030580028E0D00648AC404460FEBD000079
:10EEA0003C3000200005005000650040006000403C
:10EEB00000630040F8B5204F0D4604463819142170
:10EEC00041560026C8171346401C01D0082630E0E2
:10EED000EA7819462046FEF765F9411C28D0174B01
:10EEE000AA78A100C918002A03D00A6802239A430D
:10EEF00001E06A7892000A60E978002910D0820067
:10EF00000F482978101802690E4B1A400261E20678
:10EF1000D20C8907890B0A4301690A43026108E0A0
:10EF2000381820302A78017C92011143017400E0E6
:10EF300004263046F8BD00003C3000200007005099
:10EF400000650040FFE0FCFF03490969C140C807B4
:10EF5000C00F00D0012070470005005070B5124D61
:10EF6000687D002801D0082070BD0F49002020399D
:10EF7000421E0B18401CC0B21A752028F9D3002479
:10EF80002046FEF701F9641CE4B2052CF8D30121F8
:10EF90000620FFF70FFF01200449C0074860012049
:10EFA0006875002070BD00005C30002000630040E8
:10EFB0000248407D002800D0012070475C300020CE
:10EFC000F8B504461E480D46001914214156002686
:10EFD000491C01D008262FE0A97800291DD0012264
:10EFE00000212046FEF7DEF8411C14D083001548AE
:10EFF0002A78181869780369134F3B400361036945
:10F00000E706FF0C9207920BC907C90A3B430A4364
:10F010001343036104E004260EE00121C943017596
:10F020000A4A0320A100891808606A780120A040DC
:10F030000749012A02D0C8603046F8BD8860FBE766
:10F040003C30002000650040FFE0ECFF000700506E
:10F0500000050050820006481018026803231B04B4
:10F060009A430260026809040A4302607047000084
:10F0700000070050034940180068012800D0002014
:10F0800070470000006000401FB504460088192842
:10F0900026D01B2823D120460F300090A07B694644
:10F0A000C008888002AA0920FDF7F2FC002806D0DB
:10F0B00002AA69460820FDF7EBFC00280FD187DF84
:10F0C000010002D00CA0FDF735FA154A11460831AF
:10F0D000A01D88DF010002D012A0FDF72BFA1FBD92
:10F0E000A079022805D00328F9D11AA0FDF722FA49
:10F0F0001FBD22A0FAE700005B4150504C5D3A2052
:10F100005363616E2073746F70206661696C65640F
:10F110002C20726561736F6E2025640D0A0000005B
:10F1200058FE01005B4150504C5D3A20436F6E6EBB
:10F13000656374696F6E20526571756573742046DE
:10F1400061696C65642C20726561736F6E20256443
:10F150000D0A00005B4150504C5D3A20436F6E6ECB
:10F16000656374696F6E20526571756573742054A0
:10F17000696D65646F75742E0D0A00005B41505017
:10F180004C5D3A205363616E2054696D65646F7500
:10F19000742E0D0A00000000F0B5044685B0603002
:10F1A000019000782E2250430619488827464037A0
:10F1B00000283CD1083102913579087828180328B5
:10F1C00000D9032030710020009014E000980A213B
:10F1D000484302990A2241180C2068438019039081
:10F1E000801D891CFCF7DCFF039800210182009838
:10F1F000401C6D1C00903079A842E7D80C20454394
:10F20000A819418801982E22007850430019808D5A
:10F2100081420CD23079032809D0F8772046FDF7D7
:10F22000EBFF010010D0019A0020507009E000258A
:10F23000FD7769462046FEF7A3FA010006D0019843
:10F2400045702046FEF7FCFD05B0F0BD684600782D
:10F250000028F9D0BA8B31880548FDF76BF90121F8
:10F260002046FEF7B7FD204600F05CF8ECE7000012
:10F27000F8FF0100FEB50446603001900A460078B0
:10F280002E214843254606194035E87F0C23584374
:10F290008019801D8446114650880831002812D1FB
:10F2A0001E4B0A880DE0062747437F18BF889F4200
:10F2B00006D106225043401841886046418102E051
:10F2C000401C8242EFD8002768460770E87F3179FA
:10F2D000401C884203D101206946087010E0E8779D
:10F2E00069462046FEF74CFA010005D001984770A8
:10F2F0002046FEF7A5FDFEBD684600780028FAD03E
:10F30000AA8B31880648FDF715F901212046FEF742
:10F3100061FD204600F006F8FEBD00000229000055
:10F32000A4000200F8B5054617492C46C8686034A9
:10F33000401CC8608A680021904222D22F460022D9
:10F340004037FA7720782E21401CC0B241434E1935
:10F3500020700E49C00040180188318040887080BC
:10F360003271BA8B0A48FDF7E5F8B88B32460121B5
:10F3700090DF010004D0002060702846FEF760FD99
:10F38000F8BD6170F8BD00001C280020182D002079
:10F390005400020010B51D4A1D490300FDF7DAF8BC
:10F3A00005040B3120271200487801281FD00228BD
:10F3B00008D1032005E04878002804D0032801D1B3
:10F3C0000220487010BD134B04201860124B01201E
:10F3D00018609368D2689A42F3D0FDF711FB10BD14
:10F3E0004878012806D0022804D00328F7D1FDF779
:10F3F0003FFB10BD9068D1688142EED1FDF726FB3E
:10F4000010BD48780128E8D010BD00002C30002045
:10F410003C280020002500400020004070B5054633
:10F4200018200A4968434418204611300621FCF789
:10F43000D0FE002020606060A060E060FF212174A9
:10F44000E175284600F0E8FC70BD0000982D002012
:10F4500070B50024074D084E05E038206043801940
:10F46000416B8847641CA8688442F6D3002068601A
:10F4700070BD00001C280020282D00200449081819
:10F4800014214156042901DB0120704700207047F8
:10F490003C3000200449081814214156042901D2A7
:10F4A00001207047002070473C300020074909794F
:10F4B000490701D408207047002804D0044949783E
:10F4C0000160002070470E20704700004428002093
:10F4D0007430002030B5124B1B795B0701D4082033
:10F4E00030BD002805D0002A03D00468002C10D1BC
:10F4F00001E00E2030BD0B4B1D68002D09D0456882
:10F500001889414369185D8945435868281888421D
:10F5100001D8072030BD14600020516030BD0000CC
:10F5200044280020C8300020FEB5054625480E4678
:10F530000079400701D40820FEBD002D03D02868C3
:10F54000002834D101E00E20FEBD1F4C21680029A7
:10F550002DD06089218948436168411868688142DB
:10F5600025D9FFF773FA00280FD068680190296841
:10F570000C2251430F1979680091401A39890C46C1
:10F58000FCF7E4FD002912D101E01020FEBD214668
:10F590003046FCF7DBFD002909D1002E07D0788921
:10F5A00044430198811900980019814201D907202C
:10F5B000FEBD002002460090334629460320FDF799
:10F5C00029FFFEBD44280020C830002010B50748A0
:10F5D0004469601C06D000F00BF801462046FCF799
:10F5E000B5FD10BD01200007406910BD00100010DE
:10F5F00001200007006980B27047000070B5002448
:10F600000F482546047044702846FDF7F3FE6D1C34
:10F61000042DF9D30B4D6C80FFF7D8FF861EFFF742
:10F62000E7FF46430648AE6054306C6104600481D5
:10F6300044812C70AC610420EC616860002070BDD6
:10F640007430002044280020FFB5274881B000799D
:10F650001F4616460D46400702D4082005B0F0BDEF
:10F66000002D06D00198002803D02868002815D165
:10F6700001E00E20F2E71D4C206800280ED06189C1
:10F6800020896268414389186A68914206D9002E30
:10F6900004D0B04202D3F119814201D90720DDE73D
:10F6A0000198FFF7D3F900281BD03846FFF7CEF9B1
:10F6B000002816D06868FFF7C9F9002811D06868DB
:10F6C0003246C1190198FCF76BFD009628680C21A1
:10F6D00048432458002202212846019BA0470020CD
:10F6E000BCE71020BAE7000044280020C830002002
:10F6F000F8B52A4D044628790E46400701D4082063
:10F70000F8BD002C20D0002E1ED0206800281BD071
:10F71000FFF76EFF0146A088814213D3102811D352
:10F72000E08800280ED0FFF751FF471EFFF760FF6B
:10F730004743E288A088A96842435218974201D300
:10F74000800703D00720F8BD0E20F8BD6888012887
:10F7500021D003C60C22124B5043C21851602168BD
:10F760001950A0881081E0885081FFF741FF0146C1
:10F77000A088E2885043401EFCF7FEFC441CFFF7C3
:10F7800037FF0146A86861430818A8606888401CD4
:10F7900068800020F8BD0420F8BD00004428002047
:10F7A000C8300020F8B5044620481E4600791546AA
:10F7B0000F46400701D40820F8BD002F05D0002CCB
:10F7C00003D02068002815D101E00E20F8BD1848AC
:10F7D000016800290ED04289018940684A43101807
:10F7E0006268904206D9002D04D0A94202D3A8191C
:10F7F000884201D90720F8BD3846FFF727F90028CD
:10F8000011D03046FFF722F900280CD06068FFF7CE
:10F810001DF9002807D02B463A46214601200096C4
:10F82000FDF7F8FDF8BD1020F8BD000044280020C9
:10F83000C830002010B5114902460878002811D0C0
:10F8400004280FD0022A16D0032A0BD10A791207F6
:10F8500011D48A69521C8A61032A08D0022802D076
:10F8600000F0B4F810BD487800F0ECF910BD0D20A0
:10F87000FDF784F910BDFEF7DFFE10BD442800201F
:10F88000F8B5044620481E46007915460F46400745
:10F8900001D40820F8BD002F05D0002C03D020682B
:10F8A000002815D101E00E20F8BD18480168002994
:10F8B0000ED04289018940684A431018626890421C
:10F8C00006D9002D04D0A94202D3A819884201D933
:10F8D0000720F8BD3846FFF7B9F8002811D03046A8
:10F8E000FFF7B4F800280CD06068FFF7AFF80028E5
:10F8F00007D02B463A46214604200096FDF78AFDA4
:10F90000F8BD1020F8BD000044280020C8300020B9
:10F9100070B50D4B00210B4A9B680EE0CC00A5187A
:10F92000AD788678B54207D1145B0588AC4203D127
:10F93000C8008018406870BD491C9942EED3002071
:10F9400070BD0000182D00201C28002070B5012477
:10F950000B49600408600B49401088600949403930
:10F960008860094D6C602F20FCF7C4FBAC60074D2C
:10F9700000242F206C61FCF7BDFB2C7170BD0000D2
:10F9800080E100E0401301400010014068280020A1
:10F9900008B56846FFF78AFD002803D0002211460B
:10F9A000FDF78EF80098002803D006490120487022
:10F9B00008BD054886DF0028FAD000221146FDF771
:10F9C0007FF808BD0228002060FE010010B50F4935
:10F9D0000028087009D0012811D0022812D003286D
:10F9E00002D14869FEF768FE10BD00208861C86139
:10F9F000074840780028F7D0FDF7E0FC10BD00F084
:10FA0000D9F810BD00F038F810BD000044280020DF
:10FA10007430002010B508461146C046C04610BDDF
:10FA2000002803D00249C860002070470E207047AC
:10FA30009428002070B5002901D08C0701D0072040
:10FA400070BD064C0125A16062800549636010DF2E
:10FA50000028F5D1257016202EDF70BD94280020D7
:10FA600015FA0100002803D0024908610020704700
:10FA70000E20704794280020F8B5164C14226068B8
:10FA80004008400060601448017851430E183769FF
:10FA9000FFF7AEFD01463846FCF758FB05466061AE
:10FAA000FFF7A6FD0146F0887F1EC019FCF74EFB4C
:10FAB00002228542606801D1104300E090436060FB
:10FAC000E1681040084303D0002000F0BBF8F8BD07
:10FAD0000220FAE7442800207430002010B50248C4
:10FAE0004069FEF7E9FD10BD4428002010B5FFF77E
:10FAF0006DFD441EFFF77CFD4443FFF779FD04498B
:10FB00004A69521E5043CA682146FEF7DAFD10BD0D
:10FB100044280020F8B510481422017851430C18ED
:10FB20002569FFF765FD0146E088228980184019A4
:10FB3000FCF70CFB0F46FFF749FD461EFFF758FD8B
:10FB40004643E0882289F1198018044A4019126955
:10FB5000FEF7B7FDF8BD00007430002044280020F7
:10FB600070B5FFF745FD0546FFF730FD441EFFF772
:10FB70003FFD60432946FCF7E9FAFEF79DFD70BDA5
:10FB800070B5FFF735FD8608FFF732FD0749496973
:10FB900048430446FFF71AFD451EFFF729FD684359
:10FBA00032462146FEF78DFD70BD0000442800203E
:10FBB0000020704770B514481422017851430C1886
:10FBC000241DFFF715FD6188104E884211D2FFF702
:10FBD0000FFD61880D1AFFF70BFD8208A188E06810
:10FBE0004018216940194919FEF76BFDFFF700FD28
:10FBF00007E0A288E06880188A082169FEF761FDA5
:10FC00006088F06170BD000074300020442800203E
:10FC100010B505480079000703D4012000F012F860
:10FC200010BD00F003F810BD4428002010B50448B2
:10FC30000822416891434160407800F003F810BD0C
:10FC400044280020024948700249800008580047B3
:10FC500044280020A8FE010010B50446FFF7EAFD85
:10FC6000022C01D0032C07D104484178002903D08D
:10FC700000214170FFF78CFE10BD0000022800201B
:10FC800010B505480079000702D4FDF753FB10BDFD
:10FC9000FFF7CCFF10BD00004428002001200249DE
:10FCA000000508607047000000E200E0F0B5174F63
:10FCB0002421BC6841430D1939694A1C09D024220A
:10FCC0004A4316196B687268934204D8D21A72605C
:10FCD00029623861F0BD0A4602E00A46396A9B1B78
:10FCE0004E1C0BD024264E4337197E689E42F4D317
:10FCF00024264E4336197768FF1A77606B602962B5
:10FD000024214A4311190862F0BD00006828002030
:10FD100070B5194C2269A5681346114606E0814268
:10FD200007D00A46242671434919096A4E1CF6D1A8
:10FD300070BD002EFCD08A420CD1242043435819B8
:10FD4000006A2061401C05D10C4B01209860002303
:10FD500063616071242041434819242341685A4358
:10FD6000006A52191062421CE2D02422504340190A
:10FD700042685118416070BD6828002000100140A1
:10FD8000F8B51D4C2569681C35D01C480026406814
:10FD90006169401A07023F0A19E024204543A06820
:10FDA0002A185068B84214D8A3693F1A8619156AF0
:10FDB000002B09D0D16990699847002807D000220C
:10FDC0001146FCF77DFE02E09169D0698847681C06
:10FDD000E3D1A178E078814206D1401CC0B2E07046
:10FDE000022801D10020E07003490006800D1C317B
:10FDF0000E50FFF753FFF8BD6828002000150140A2
:10FE000010B50178022901D0012904D100224068EF
:10FE10001146FCF755FE10BD0121814002484268A1
:10FE20008A434260704700002C2800203EB5002520
:10FE300000956C460195618001212170A580E280CA
:10FE40006946029397DF3EBD1500000016000000D2
:10FE5000170000001800000090012003000090012E
:10FE60000000000000000000A000500000000000A2
:10FE700095ED010059E70100E3E6010009E8010002
:10FE800091ED010029E70100DFE6010001E8010032
:10FE90008DED0100E9E60100DBE60100F9E7010074
:10FEA000000100000300000061FB010081FB010074
:10FEB000DDFA010015FB0100EDFA010011FC010063
:10FEC000F9D50100A5D5010081FC010029E8010058
:10FED0000B09080A0000000000509D005B415050D3
:10FEE0004C5D3A5B3078253032585D203E3E2044F0
:10FEF0004D5F4556545F53454355524954595F53DE
:10FF0000455455505F434F4D504C4554452C20723D
:10FF10006573756C74203078253038580D0A0000F0
:10FF20005B4150504C5D3A5B2530325820253032D1
:10FF3000582025303258202530325820253032586C
:10FF400020253032585D3A20436F6E6E65637469C8
:10FF50006F6E2045737461626C69736865640D0A25
:10FF6000000000005B4C4C535F435D3A2043616EE0
:10FF70006E6F7420636F6E6E6563742E20546865B7
:10FF8000206D6178696D756D206E6272206F6620DC
:10FF9000636F6E6E656374656420636C69656E740F
:10FFA0007320697320382E200D0A00005B4C4C53DF
:10FFB0005F435D3A20536176696E67206120616C12
:10FFC000657274206C6576656C206173204E6F20BD
:10FFD000416C65727420696E207468652073657267
:10FFE00076657220636861726163746572697374A7
:10FFF00069632E0D0A0000005B44425D3A204469AB
:020000040002F8
:1000000073636F76657279206F66207365727669A7
:1000100063652077697468205555494420307825F8
:100020007820636F6D706C6574656420776974689F
:10003000207375636365737320666F7220436F6E00
:100040006E656374696F6E2068616E646C652025EF
:10005000640D0A005B44425D3A2053746172746916
:100060006E6720646973636F76657279206F6620AE
:1000700073657276696365207769746820555549A0
:1000800044203078257820666F7220436F6E6E654D
:100090006374696F6E2068616E646C652025640D01
:1000A0000A0000005B44425D3A20446973636F7646
:1000B000657279206F662073657276696365207753
:1000C0006974682055554944203078257820636F3D
:1000D0006D706C65746564207769746820737563EE
:1000E0006365737320666F7220436F6E6E65637411
:1000F000696F6E68616E646C652025640D0A00008E
:100100002001020000280020AC0000006EC50100A4
:10011000CC010200AC2800202C1400007EC5010098
:1001200000000000020000000000000002000000CB
:1001300000000000000000000000000000000000BF
:1001400000000000000000000000000000000000AF
:10015000000000000000000000000000010000009E
:10016000000000000000000000000000000000008F
:10017000000000000000000000000000000000007F
:10018000000000000000000000000000000000006F
:10019000000000000000000000000000000000005F
:1001A000000000000000000000000000000000004F
:1001B000000000000000000000000000000000003F
:0C01C00000000000000000000024F4001B
:040000050001C0C175
:00000001FF
