:020000040001F9
:10C00000683B0020F5C001000FC1010011C1010013
:10C010000000000000000000000000000000000020
:10C0200000000000000000000000000013C101003B
:10C03000000000000000000015C1010017C1010050
:10C0400019C1010019C101004DC5010019C101004C
:10C0500019C101000000000015C30100ADC20100BC
:10C0600019C1010019C1010019C1010019C1010064
:10C0700019C1010019C1010019C1010019C1010054
:10C0800019C1010061C4010019C1010019C10100F9
:10C0900081C4010019C10100D5C4010019C101000A
:10C0A00019C1010019C101000000000000000000DA
:10C0B0000000000000000000000000000000000080
:10C0C0000348854600F0BEF80048004785F70100A8
:10C0D000683B0020401E00BF00BF00BF00BF00BF84
:10C0E00000BF00BF00BF00BF00BF00BF00BFF1D155
:10C0F000704700000321094802680A4302600848AB
:10C1000002680A4302600748804707480047FEE785
:10C11000FEE7FEE7FEE7FEE7FEE70000240500403D
:10C1200054050040F9C40100C1C0010030B50B4600
:10C13000014600202022012409E00D46D5409D4201
:10C1400005D31D469540491B254695404019154687
:10C15000521E002DF1DC30BD70B5002425460028AC
:10C1600001DA01244042002901DA01254942FFF7A2
:10C17000DDFFAC4200D04042002C00D0494270BDEF
:10C1800003460B439B0703D009E008C9121F08C0F0
:10C19000042AFAD203E00B780370401C491C521E9B
:10C1A000F9D27047D2B201E00270401C491EFBD2A6
:10C1B00070470022F6E710B513460A4604461946B2
:10C1C000FFF7F0FF204610BD30B5044600200346BF
:10C1D00000E05B1C934203D2E05CCD5C401BF8D0D6
:10C1E00030BDF0B51FB40646002082B0054640249D
:10C1F000019100901BE0019922460F46304600F065
:10C2000043F8049A059B801A994110D310461946A9
:10C21000224600F029F8361A8F4101972246012064
:10C220000021009F00F020F838184D410090204672
:10C23000641E0028DFDC019B00982946324607B0C7
:10C24000F0BD0000064C0125064E05E0E36807CC72
:10C250002B430C3C98471034B442F7D3FFF734FF1C
:10C260000C0D02002C0D020010B5202A04DB014643
:10C27000203A9140002010BD914020239C1A034693
:10C28000E3401943904010BD10B5202A04DB084656
:10C29000203AD040002110BD0B46D340D04020248E
:10C2A000A21A91400843194610BD000010B5144869
:10C2B00002680021002A22D00160124880684B21C8
:10C2C000C0B209014843FF21FFF730FF4100401889
:10C2D000FF300F3080B201F0E3F901460A4801F067
:10C2E00055FA00280BD0082809D00849884206D002
:10C2F0000749884203D00022114600F0A9FE10BD74
:10C300000071004000750040B02C00200430000097
:10C3100001340000F8B50024FF2501350126274629
:10C320000094284603F0C0FC002808D03448406838
:10C33000304204D0334800212818344301602D1DB9
:10C3400076007F1CADB2042FEBD3FF207D3003F0CD
:10C35000ABFC002807D02C480021016040070443B3
:10C360002A48006900902A4F200712D00126002594
:10C3700026420AD02748AA00111808690969C00492
:10C38000C00E8903BA58890F904776006D1C042DA2
:10C39000EED3002C30DA00241D4E08213019403035
:10C3A0004156491C25D0077ABD06AD0E284601F03E
:10C3B00051FF80003658002E1BD0BF090121A94033
:10C3C000154AA80080180068009A8003800F114267
:10C3D00002D0022802D00CE003280AD1032F05D195
:10C3E00002280AD00221284603F04EFC394628468E
:10C3F000B047641C062CCFD3F8BD0321F3E700003F
:10C4000000630040006000407C6100400005005077
:10C410003C2E002000650040000700508307FF22EB
:10C42000DB0E9A408907090E994000280BDA0007B5
:10C43000000F0838830808489B001818C369934305
:10C440000B43C3617047830804489B001B1818689E
:10C45000904308431860704700ED00E000E400E0FE
:10C4600010B506490020086048608860C86003492C
:10C4700040390860486004F07BFA10BD401101406B
:10C48000FEB50020C043124D0290686901906846D5
:10C490002E6902F0E1FD074603F0B2F80446002FD2
:10C4A00008D002AA0199009802F0F6FD029803F064
:10C4B000F1F806E0029803F0EDF8002801D1002C15
:10C4C00002D0304601F0D2FF00206871FEBD0000AE
:10C4D000AC28002010B507484068002807D08047E6
:10C4E000002803D00022114600F0B2FD10BD02F07A
:10C4F000E1FF10BDD828002010B503F029F800286E
:10C5000005D00E490C484860C8130D4988610D4894
:10C51000018CC9B201290ED1818C09070BD1018D83
:10C520000906090F042906D1808D0006000F02D1EB
:10C5300005490120886010BDDFFF07C000050040ED
:10C54000006C0040C00F00F0000600407CB51B4CA2
:10C55000A0681B4E0025002818D0A56019488069E6
:10C56000C1B2194800F0ABFD002805D001216A4690
:10C5700011700190684607E013488168C068401A4E
:10C58000012803D16846057071688847E069002872
:10C5900003D0E561032003F087FC606A00280BD01C
:10C5A0006562084980390868086002216A4611708E
:10C5B00001907168684688477CBD000000210040FA
:10C5C00068280020002500401C2E00200FB410B564
:10C5D00003A9044B044A029800F024F810BC08BCDC
:10C5E00004B01847A5F10100D428002030B47446E7
:10C5F000641E2578641CAB4200D21D46635D5B005F
:10C60000E31830BC184702E008C8121F08C1002A0E
:10C61000FAD170477047002001E001C1121F002AC3
:10C62000FBD17047FFB591B00F460546002606E0E6
:10C6300025280AD0149A139990476D1C761C2878E7
:10C640000028F5D1304615B0F0BD0024009401213A
:10C65000F34A029400E004436D1C2B780846203B0B
:10C6600098401042F7D128782A280ED00221287845
:10C670000246303A092A15D8009A0A235A43303A1A
:10C6800080180C436D1C0090F1E701CF009000284A
:10C6900005DA012040030443009840420090022044
:10C6A00004436D1C28782E2815D104200443687893
:10C6B0006D1C2A280AD101CF6D1C02900BE0029953
:10C6C0000A225143303940186D1C029028780146E7
:10C6D00030390929F3D928786C2810D006DC4C2889
:10C6E0001AD068280ED06A2817D104E0742813D015
:10C6F0007A2812D110E00120400504430CE001210A
:10C70000090501E0032109050C436978814203D141
:10C710000120000524186D1C6D1C287803906E28DC
:10C720001ED00CDC632831D004DC00288AD05828C5
:10C7300011D1B2E064287BD069280CD178E073284D
:10C740002DD004DC6F2870D0702804D1A7E07528A4
:10C750006CD078286BD0149A13999047761C62E0BD
:10C760006002400F022807D003280AD00428386846
:10C770000AD006603F1D56E03868F1170660416038
:10C78000F8E738680680F5E70670F3E73878694619
:10C7900008740020487404A80390012003E038685E
:10C7A00003900020C0433F1D61070FD5002101E029
:10C7B0000199491C029A0191914213DA8142F7DBF7
:10C7C000019A0399895C0029F2D10BE0002101E074
:10C7D0000199491C01918142FADB019A0399895C14
:10C7E0000029F5D101990098139A401A009021462A
:10C7F000149B00F03BF901998019461807E0039853
:10C8000003990078491C0391149A13999047019851
:10C81000401E0190401CF2D12146149B139A0098AF
:10C8200000F014F986196D1C09E741E033E034E0AB
:10C830000A200021049005916002410F022905D0D1
:10C8400001CFC2179446032905D007E0FF1DFF085A
:10C85000FF0003CF06E000B2C2179446042902D1BC
:10C8600040B2C1178C4600226146944506DA0A465A
:10C870000021404291418C462D2102E0210504D542
:10C880002B216A461176012103E0E10701D0202126
:10C89000F7E7019154E00A200BE0102009E0102096
:10C8A000049000210420044308200591029003E035
:10C8B00008200021059104906002410F022905D053
:10C8C00001CF00229446032906D006E0FF1DFF0891
:10C8D000FF0003CF8C4603E080B2042900D1C0B230
:10C8E0000021019121072BD50399702906D0049AC4
:10C8F0001021059B4A401A4305D00EE040216A46AC
:10C900001176012108E06146014306D030216A46D4
:10C9100011760399517602210191049A0821059B11
:10C920004A401A430CD16146014301D1610707D542
:10C9300030216A461176012101910299491E029126
:10C940000399582904D037A103910FA90F910DE045
:10C9500039A1F9E76146059B049AFFF742FC039B66
:10C960008C469B5C0F9A521E0F92137061460143D6
:10C97000F0D10F9807A9081A20300390600704D55A
:10C98000012000048443029801E0012002900399F1
:10C99000884201DD401A00E0002041180290019811
:10C9A00009180098401A0090E00306D42146149B11
:10C9B000139A009800F05AF886190020049008E0B5
:10C9C00006A9085C149A139990470498401C761C99
:10C9D000049001998842F3DBE0030CD52146149BB7
:10C9E000139A009800F042F8861904E0149A302057
:10C9F00013999047761C0299481E02900029F5DC95
:10CA000008E00F980F990078491C0F91149A139918
:10CA10009047761C0399481E03900029F1DCFBE641
:10CA20000928010030313233343536373839616204
:10CA300063646566000000003031323334353637C8
:10CA4000383941424344454600000000F8B50446E9
:10CA500000251E461746880404D405E039462020E8
:10CA6000B0476D1C641EF9D52846F8BDFFB50446D5
:10CA7000002581B01E46C80301D5302700E02027DD
:10CA8000880404D505E038460399B0476D1C641E40
:10CA9000F9D5284605B0F0BD38B50D4C60780228B0
:10CAA00002D00C490120886069460B4800F0E4FA86
:10CAB000002802D000F016F838BD084880218160B7
:10CAC0006A46074B1278DA6102226270416038BD13
:10CAD00068280020002000402C2E00200023004069
:10CAE000002500401CB506490120C8600549487072
:10CAF00003206A4610704968684688471CBD0000DC
:10CB000000200040682800200449002048700449A3
:10CB10000122CA604A600349086070476828002003
:10CB200000200040002500401CB5144869460068FC
:10CB3000009000200190087006204870684602F0BE
:10CB400021FF0F4901204860072032DF002803D071
:10CB50000022114600F07CFA0321072033DF002871
:10CB600003D00022114600F073FA07202EDF0028C0
:10CB700003D00022114600F06BFA1CBD580C0200D5
:10CB800000730040F7B582B00026054616700078A5
:10CB90001446002805D02846039902F0B7FE060087
:10CBA00008D1A87800281ED02078039F001D1F28D8
:10CBB00002D90C2005B0F0BD684679DF0028F9D114
:10CBC00021780322481C20707A5421781922481CAD
:10CBD00020707A542078C1196846008803F05AFF03
:10CBE000217840182070E8780223002810D020789F
:10CBF000039A411C2170135420780399471C012289
:10CC000027700A542078EA78471C039927700A5441
:10CC10006868002815D00021415620788C460246CD
:10CC2000C01C03991F28C4D8501C20708B54227834
:10CC30000A23501C20708B5420786246431C2370BA
:10CC40000A542889002809D0284600940622022187
:10CC50000830039B03F09CFF0600ABD1288A002814
:10CC600009D028460094072203211030039B03F0CB
:10CC70008FFF06009ED1288B002809D028460094FB
:10CC8000152214211830039B03F082FF060091D176
:10CC9000286A002805D02246039901F039FC0600D5
:10CCA00088D1686A002805D02246039902F0FCFD6D
:10CCB000060084D12C20405D002806D0224628465C
:10CCC000039903F0BDFB0600C7D1304672E710B5EB
:10CCD00001220221002001F0EDF8002801D00728F0
:10CCE00012D107220221012001F0E4F8002801D02E
:10CCF000072809D100210A22084601F0DBF80028A4
:10CD000001D0072800D1002010BD000010B590B060
:10CD100004460721C9436846114A017007CA0DAB92
:10CD200007C3104900208870302101A8FFF741FA9D
:10CD300002216846017101218171C47103210290B1
:10CD400081820DA80690002101A800F0F1FC0028C6
:10CD500003D00022114600F07BF910B010BD000096
:10CD6000600C020000280020F0B59BB00AA803F078
:10CD700013F9002803D00022114600F069F90A983F
:10CD80000127364C002802D067701BB0F0BD182177
:10CD90006846FFF70EFA0020694608700190087295
:10CDA0000390A07803252826002806D0012805D066
:10CDB00002282DD0032848D134E0A7700820087736
:10CDC00008A908710BA8069013A80890234806A983
:10CDD000001D02F0E7F8002803D00022114600F001
:10CDE00037F96846007F002803D108A80079002899
:10CDF00007D002256846057206A803900420FFF7B5
:10CE000085FFA57069460E821E204882032014E02B
:10CE10000520FFF77BFF69460E821E204882A57021
:10CE200002200AE00520FFF771FF1921C9016846B9
:10CE30000182B42141820420A07001F05FF8002833
:10CE400003D00022114600F003F9684673DF002882
:10CE50009BD00022114600F0FBF896E70028002046
:10CE600070B590B005461C216846FFF7A2F96946E7
:10CE7000087804210843694608700024019403944B
:10CE800004940594012608A906948E7014486946F6
:10CE90000884601C00070794000F0C772030487747
:10CEA000887FF9210840F721801C0840EF210840C5
:10CEB000B0436946887714210AA8FFF77AF908A9D0
:10CEC0000C7107A80A910B9069460E864C868E86D7
:10CED00009A80E90A888AB1D0AAAA2DF10B070BDE9
:10CEE000062A0000F0B58FB00D4606461C216846A4
:10CEF000FFF75FF9684601780A2001436846017030
:10CF000000240194039404940594012708A806942E
:10CF100087701649684601840794697A0177A97A6F
:10CF20004177807FF9210840F721801C0840EF21DC
:10CF30000840410849006846817714210AA8FFF794
:10CF400038F9297A08A801710A9007A80B90684659
:10CF500007864486878609A80E90334630890A33AF
:10CF60000AAA6946A2DF0FB0F0BD0000062A000041
:10CF700010B5002805D001280AD0022807D11020BA
:10CF800007E0112005E00022114600F061F810BD15
:10CF90000D2000F0B3FF0028F5D110BD0448426811
:10CFA0000121C9050B46934383600A40C260704764
:10CFB0000005005070B50024064D06E06968E000E9
:10CFC000085C012102F03EFD641C28788442F5D300
:10CFD000002070BD94280020F8B515460C46064682
:10CFE000052A01D20720F8BD02F0FAFD002803D17E
:10CFF00002F0CCFD0028F6D1114900204E600C70E3
:10D0000008618D6048610F4D0DE0E00029688019CE
:10D01000009181786A46517000780B4A694602F0A7
:10D0200061FD0028DFD12046641EE4B20028ECD167
:10D030000348064A00210C3000F078F8F8BD0000E3
:10D0400094280020FC0C0200D9F30100D5E6010071
:10D05000BFF34F8F04490348C860BFF34F8F00BF31
:10D06000FDE700000400FA0500ED00E0014B1B683D
:10D0700018470000F82D00208268C36893420AD048
:10D08000826883881A4003689A5C0A708168491C28
:10D0900081600020704705207047002906D0002AD3
:10D0A00002D0531E134203D0092070470E20704750
:10D0B0000160838000218160C160084670478268FA
:10D0C000C3689B1A8288934208D8C36813400268D9
:10D0D000D154C168491CC1600020704704207047CA
:10D0E00038B50C46A2680C235A43064B09789D5864
:10D0F000054A126A00920246204608302369A84772
:10D1000038BD0000582F00207028002010B50649B7
:10D1100014230A785A435118091DFFF7E1FF042030
:10D1200003F04CFA10BD00008C2E002070B5114C9D
:10D13000A568002D06D0002A06D0002804D00023C0
:10D14000247809E0082070BD072070BD24265E43C6
:10D15000AE5D002E04D05B1CA342F7DB042070BD43
:10D16000242401265C432E5564196170A26103607A
:10D17000002070BDAC280020FFB59807002481B0C6
:10D180001E4615460F4600280BD1002E09D003F08D
:10D1900035F922490A9888610F70324600208E6066
:10D1A00008E0072005B0F0BD24234343D4549B1866
:10D1B0001C75401CB842F7DB24204743BB190320F1
:10D1C00048700F461846CB601946183000221823C5
:10D1D0002E465E43D3005B181C705C709D705860D7
:10D1E0003018521C032AF5DB0020C0433861BC70A4
:10D1F000FC7001240A482405046003211420FFF771
:10D200000DF908480460084C0198A0600321112022
:10D21000FFF704F9606878610020C3E7AC280020BC
:10D2200080E200E000E100E000150140FEB50446A8
:10D230001D48174682680D46002A0CD001788C42A2
:10D2400001D2052D01D20720FEBD214624235943DA
:10D25000535C012B01D00820FEBD881840780128BE
:10D260001DD0002603F058FCC0000F490190C9688A
:10D270004018694603F07AFC002812D001210170A1
:10D280000A49446049680830E2C007490198C96802
:10D2900041180098487003F0F9FA0020FEBD2E46B0
:10D2A000E0E70420FEBD0000AC280020001501408E
:10D2B000F8B5144D0446A868002809D029788C4296
:10D2C00001D30720F8BD24216143405C012801D02F
:10D2D0000820F8BD03F020FCC600E8686946301855
:10D2E00003F044FC00280AD0022101704460E86881
:10D2F00031180098487003F0C9FA0020F8BD0420E6
:10D30000F8BD0000AC28002000B50D4A89B007CA5E
:10D3100005AB07C30020694608840A480190012034
:10D3200002900948039001208002049008A8009010
:10D330000323064A01A905A800F00AF809B000BDB8
:10D34000000D0200D0280020642F00207D0A02007A
:10D35000FFB5584F83B000260D4604467E707A60B4
:10D3600000292AD0A888296882B25348FFF795FE81
:10D37000002823D1A889A96882B24F481030FFF74E
:10D380008CFE00281AD160784C4903228000401896
:10D39000026022783046920051180E60484D617844
:10D3A000E96021786961A1686962454E617940361A
:10D3B000002905D00E21F16203E0072007B0F0BD7F
:10D3C000F0622379022B17D03E493F4A012B45D00A
:10D3D00004232B608860C861F06A40084000F06256
:10D3E000581FA860286101209060106078700C9828
:10D3F000008800283FD043E002F0F2FB002803D170
:10D4000002F0C4FB0028D9D130486946006800907A
:10D41000A07802F0EDFB0028D0D1401E2861A07852
:10D42000A860F06A01210843F0622848284A406851
:10D430000190E07801A902F055FB0028BED1E07808
:10D44000012102F0FFFAE07802F096FB002801D0FB
:10D45000002000E0012002F027FDC8E704232B6034
:10D460008860C861F16A01200143F162E1782961B5
:10D47000A178A960B8E70C9938780880401C38700A
:10D4800000211448C9438160A121890041601249EB
:10D4900004200860114B06991A68FF2424048907A8
:10D4A000090EA24309040A431A600D4908600020CE
:10D4B00084E70000682800201C2E00200007005090
:10D4C000002500400021004000200040CC0C02005C
:10D4D00025F401000023004080E200E000E400E0C9
:10D4E00000E100E010B501460448FFF7E8FD0446FE
:10D4F000022002F0D9FC204610BD00002C2E002096
:10D5000000B585B014216846FEF753FE144800901C
:10D510000121684601710020029064216846017370
:10D5200001200146684610314173012001466846DA
:10D5300010318173002001466846C1730120014605
:10D540006846103101746946064800F055F9002814
:10D5500003D000221146FFF77BFD05B000BD00009F
:10D56000BDFC0100B02C0020F0B50546007D002474
:10D5700093B00E4600280DD00120014668461031B8
:10D5800003940173717B4173817BF92001406846EC
:10D59000891C81731C2104A8FEF70BFE6946087CD8
:10D5A00002210843694608742A7DEF21002A02D02F
:10D5B0001022104300E008406A4610740594079456
:10D5C0000894287D002800D003A8099001270A9418
:10D5D00010469771304A82800094B27B0270F27BD1
:10D5E00042708078F9221040F722801C1040EF2111
:10D5F00008404108490068468170317B017214215E
:10D600000BA8FEF7D6FD01A80B9068460C90878604
:10D61000C486078702A80F90A888AB1D0BAA04A98F
:10D62000A2DF002835D1B068002830D06846877165
:10D630001A4981800094317C0170002001466846BF
:10D6400041708078F9210840F721801C0840EF21C3
:10D650000840410849006846817011A8B16800F08F
:10D6600099FA064614210BA8FEF7A3FD01A80B901A
:10D6700068460C908686C486068711A80F902A46B5
:10D68000E8880E320BA9A3DF002802D100E0EC816C
:10D69000002013B0F0BD0000192A00000829000086
:10D6A0001C4A10B5904201D3642010BD1949643959
:10D6B000884207D9101A3A2148436421FEF74CFDED
:10D6C000642109E0144A904209D9081A18214843F4
:10D6D000A021FEF741FD2A21081AC0B210BD0F4952
:10D6E000884208D9101A0C214843FF212D31FEF73A
:10D6F00033FD1221F0E70A4A904208D9081A0621A0
:10D700004843FF215531FEF727FD0621E4E70020BD
:10D7100010BD0000B80B0000B40A0000880900002A
:10D720003408000001490120086070470070004083
:10D7300070B50C4692B000216A4611700725117130
:10D74000002809D0C17849070CD502A9FFF71AFAB9
:10D75000002808D102AE00E00026002C0ED0E078B0
:10D76000002802D0284612B070BD01AA0AA920469E
:10D77000FFF708FA0028F6D10AAA00E0002268465E
:10D7800003790178304672DFEDE7000073B586B0AB
:10D7900004466946227C097F00208A4225D0002564
:10D7A0000126684600950680458007A801902174EF
:10D7B000E188608A6A46A4DF002816D1608A0D4994
:10D7C000884214D0207D002811D00295039504953D
:10D7D0000595E188684601818672418881810490BF
:10D7E00001980590608A02A9A6DF08B070BD0820E4
:10D7F000FBE70000FFFF000038B504460868206022
:10D800000020C043608208792075FF200D462074F7
:10D8100001216846817006490180221D6946012068
:10D82000A0DF002803D129462046FFF79DFE38BD22
:10D830000F18000038B50A88102A1AD0112A1AD0F9
:10D84000502A1BD1027D002A18D0CA884389891D1D
:10D850009A4213D10A8B022A10D10268002A0DD0F5
:10D86000CB7E8C7E19022143C907C90F07D0002146
:10D8700006E0898801E00021C943418238BD0121C9
:10D880006B4619706946904738BD000070B5054673
:10D8900001461C220F48FEF773FC0F4C0026267031
:10D8A0002968002907D00822A018FEF769FC204645
:10D8B00008307ADF02E0084808307BDF002808D112
:10D8C000401E608004486670044A0021001DFFF776
:10D8D0002DFC70BDE02C002034280020B50A020089
:10D8E000F8B5224C028800271F4DE689102A16D071
:10D8F00029464968112A21D0122A2DD0502A1CD13C
:10D90000C288801DB24218D1028B022A15D1C27E74
:10D91000837E10021843C007C00F0CD112E081882B
:10D92000698001461048082216311030FEF728FCA5
:10D930006F70002E01D100F033FEF8BD0020C0430F
:10D9400068806F700846FFF7B3FC0028F5D0A16926
:10D950000029F2D08847F8BD811D03480822103005
:10D96000FEF70EFCE7E7000034280020E02C002042
:10D9700010B5044600F0DEFF2046FFF7B1FF214658
:10D980000E4800F0A9F80D482146103000F0EAF8E2
:10D990000A4821462430FFF74DFF084821463C3015
:10D9A00000F026F8054821460C3800F043F92046DF
:10D9B00000F094F9204602F09BF910BD8C2C002059
:10D9C0000A68002A0ED00260496841600021C943FC
:10D9D00041810021018104480121817003490180B6
:10D9E00000207047072070474C280020062A0000BE
:10D9F00038B5044608880122102809D0112828D0FB
:10DA0000302810D0322802D1204602F0B3F938BDB8
:10DA100088886081684682701549018060896A46FD
:10DA2000012190DF09E0CB882046002B0CD18B89A7
:10DA3000002B09D06089123192DF0028E7D061689D
:10DA40000029E4D0884738BD69460A7002689047CB
:10DA500038BD0020C043608120890028F8D0022012
:10DA6000694608702268204690470020208138BD12
:10DA70000218000033B50189002283B000290FD0BD
:10DA8000408900926D46019201236980022129702C
:10DA9000AA8004ACEB806946029497DF05B030BDE4
:10DAA0000520FBE738B50446086800280FD0206041
:10DAB00001216846817007490180221D69460120C5
:10DAC000A0DF002802D12046FFF7CAF938BD0720A1
:10DAD00038BD00000218000008B50A88102A12D0CC
:10DAE000502A0FD1CA88C388891D9A420AD10A8B4D
:10DAF000012A07D100236A461370897E517002689B
:10DB00006946904708BD8988C18108BD1CB50022BF
:10DB100001246B4600921C805A8001914189408A01
:10DB20006A46A5DF1CBD000038B5044608680D46EE
:10DB3000002813D020606868606001216846817009
:10DB4000074901802246083269460120A0DF0028EB
:10DB500003D129462046FFF7C5F938BD072038BD57
:10DB60000318000008B50B880022102B0CD0112BD5
:10DB70000DD0172B07D18979002904D169460A7085
:10DB80004A700268904708BD89884182F6E702F032
:10DB90001BF908BD0A78027049784170022070476D
:10DBA0001CB5002348221549082002F03BFD00283F
:10DBB00003D000221146FFF74BFA0020009069467F
:10DBC00001900870684660DF002803D000221146EB
:10DBD000FFF73EFA0A4802F01BFD002803D000229E
:10DBE0001146FFF735FA074802F034FD002803D04C
:10DBF00000221146FFF72CFA1CBD0000382C002033
:10DC000071D901004908020038B504460D460121CA
:10DC10006846817006490180224669460120A0DFDE
:10DC2000002803D12946204602F0E2FE38BD00005C
:10DC3000041800000A88102A01D1898841817047A0
:10DC40001CB5044681786A460C4802F0B9F90028F0
:10DC500012D160781C21484309491C2340181A46F8
:10DC6000694602F067FA064806493830807A800033
:10DC70000A582146684690471CBD000060280020D5
:10DC8000C02D0020AC0C02007CB5134E00250C46C4
:10DC90003060002918D06946002000F0B3F8002851
:10DCA00019D101A9012000F0ADF8002813D1684670
:10DCB00001790020002901D0022004E0694609789A
:10DCC000002900D00B2020707068002802D1FEF7D8
:10DCD000FEFF054628467CBD2C28002010B51C4CB4
:10DCE0000188606810290DD011290AD1401E60609A
:10DCF00007D1FEF7ECFF002803D02168002900D0EF
:10DD0000884710BD00281ED100210122084600F0DE
:10DD1000D1F8002801D0072811D1072202210120C3
:10DD200000F0C8F8002801D0072808D104220221F9
:10DD3000002000F0BFF8002805D0072803D0216894
:10DD4000002900D088476068401C606010BD00005A
:10DD50002C28002010B5032000F026FA002801D05E
:10DD6000062800D1002010BDF8B50746002422483F
:10DD700002E0641C042C19D2A2008258BA42F8D1E5
:10DD8000042C13D21D4E1E4DF069002928D0012904
:10DD90000DD002290AD16000201840194578002DC5
:10DDA00004D0F168002901D028468847F8BD6100F9
:10DDB00062182946AD5C511800914978002909D0B4
:10DDC00071680A2251430D4A521CFFF72FFA0028AE
:10DDD00000D1777000988178084810300155DEE74F
:10DDE000FFF766FA05486100611810304919005DB7
:10DDF0008D78A842D3D0F8BD6C0C02000C2800200E
:10DE0000D42C002004280CD2074A1269074B80004A
:10DE10001B5C01209840904300D001200870002036
:10DE200070470020FAE70000000500506C0C02006B
:10DE300010B51C4C0A2812D009DC042806D1132185
:10DE4000E08876DF082801D000281FD110BD0D28FA
:10DE500008D00E28FAD1112000F050F8F4E702F0B3
:10DE600093FB10BD20780028FBD0E078002812D06A
:10DE700000210D48FFF7FEFD00280ED00B49884217
:10DE8000EFD00B498842ECD00528EAD00022114699
:10DE9000FFF7DEF810BD0221EBE7E07801214840F2
:10DEA000E07010BD00280020C82C002004300000C5
:10DEB0000134000070B50023042811D24400041975
:10DEC0000D4D012A02D101290DD0002246008019F2
:10DED000094E801900290CD0012906D0022906D04C
:10DEE0000723184670BD0D30C2B22A55F9E74270BB
:10DEF000F7E78270F5E70000D42C002010B5054A42
:10DF00000146127A0020D20702D0084600F054F8E9
:10DF100010BD00000C28002070B50E4620490546B3
:10DF20004E608D600020CA60A9071ED50024012222
:10DF300011462046FFF7BEFF641C042C02D20028C5
:10DF4000F5D012E0002810D1720804211548FFF71F
:10DF500043F8002809D1FFF72DF8002805D1104813
:10DF6000114A00211C30FFF7E1F8E90706D00F2223
:10DF70000E4952058A600023CB608A6100280DD1CA
:10DF800007480B4A00211430FFF7D0F8002805D1CC
:10DF90000348084A01211830FFF7C8F870BD000097
:10DFA0000C2800207C0C0200E5E101000005005077
:10DFB000E9F501009DCF0100FEB5784906464F689E
:10DFC0004B690093BB00FB1800200122019352050E
:10DFD0000546734C3300FEF709FB180D1313374940
:10DFE000596C828E858E97A1A5A5A5A5A5C3C8CD80
:10DFF000D4DADA120B225205A260E5600D70FEBD84
:10E0000005208005A060E56060680F235B0558402F
:10E01000800209D5A260E560022E02D1E120C00095
:10E020000AE07D20400107E0E260A560022E01D1F8
:10E03000C82001E0FF2091300E706421FEF776F8D1
:10E0400078430022014646E005208005A060E56097
:10E0500060680F235B055840800204D5A260E5602C
:10E0600019204001E8E7E260A560E1E705208005AE
:10E07000A060E56060680F235B055840800202D510
:10E08000A260E560CDE7E260A560D3E705208005EA
:10E09000A060E56060680F235B055840800202D5F0
:10E0A000A260E56001E0E260A5600E7079000022E8
:10E0B00011E005208005A060E56060680F235B0526
:10E0C0005840800202D5A260E56001E0E260A560F0
:10E0D0000E70002239460098FFF7A8F8FEBD052310
:10E0E0009B0544E06068012189050A468243A260DD
:10E0F0000840E06010E061680120800502468A4324
:10E10000A2600140E160E4E7616801208005024609
:10E110008A43A2600140E1600199C8E70F214905E7
:10E12000E1601BE00F468869FFF7C2F811218A1BE6
:10E130001C4E01D0002802D0A660E560FEBD012A79
:10E140000BD91046C82148436421FDF7EFFF7968D9
:10E1500000224143B869FFF769F8E660A560FEBD9B
:10E160000F225205A260E56015E007239B05A3601E
:10E17000E5600EE00D225205A260E56001229205E5
:10E1800007E00322D205A260E560921001E00F22B1
:10E190005205E260A5600E70FEBD00000C28002054
:10E1A0000005005000008000F0B500210B4C0C4D24
:10E1B00003273F048A00A2589200561932680123AF
:10E1C0008B40034000D00323BA431B041343336046
:10E1D000491C0429EED30020F0BD00006C0C0200A5
:10E1E0000007005010B500780221FFF7BDFD10BDFB
:10E1F0000022D243830004490428CA5002D30818DD
:10E2000040300271704700003C2E0020F0B5002520
:10E21000ED43002A02D00023042601E004230A264D
:10E220000B4C04E09F00E7597F1C04D05B1CB342F9
:10E23000F8D32846F0BD26185DB2203635729E0010
:10E24000A151002AF5D1E11840310871F1E7000031
:10E250003C2E00200249091828200856704700006B
:10E260003C2E0020F8B53E481422017851430C188A
:10E27000E0680C2148433A492769CC3140180589A8
:10E2800041890091241D466801F028FF0146384667
:10E29000FDF74CFF002932D000200099A2884D43A1
:10E2A0006188AE198918CD1900222E4900280A610B
:10E2B00009D001F013FF6188884222D0B54202D113
:10E2C000A08800281DD0A06802281AD001F006FFFF
:10E2D000A188CA1901461046FDF728FF214C88087D
:10E2E000E06001F0FBFE01462846FDF71FFF002914
:10E2F00011D00020B5422FD000280ED02CE00120F4
:10E30000CBE701F0EBFE01463846FDF70FFF15495C
:10E310004861032021E00120ECE7ADB2B7B201F083
:10E32000DDFE01463846FDF701FF064601F0D6FE48
:10E3300001462846FDF7FAFE864201D1781B09E026
:10E3400001F0CCFE064601F0C9FE01462846FDF765
:10E35000EDFE701A80082061022002F02FF9F8BD4E
:10E360008C2E00207028002010B507481422017858
:10E37000514308180079042802D000F059F810BD64
:10E38000012002F01BF910BD8C2E002010B50B48A7
:10E390001422017851430818094AC1881162007992
:10E3A000012806D0032801D0042801D1FFF75AFF25
:10E3B00010BD012002F002F910BD00008C2E0020DB
:10E3C0007028002014225043054A00218018017152
:10E3D000C18001220161C26041610181704700007A
:10E3E0008C2E0020F8B5104C069E65780A2D19D0A9
:10E3F00027787D190A2D00D30A3D14277D432D1956
:10E4000028716A6103C92961E860EB802E81607818
:10E41000401C607005480078002801D1FFF7B6FF66
:10E420000020F8BD0420F8BD8C2E002070280020AC
:10E4300010B50D4C14212078484301190020091D06
:10E44000FEF74EFE2078FFF7BDFF6078401E60703B
:10E450002078401CC0B220700A2801D10020207012
:10E46000002002F0ABF810BD8C2E0020F8B5224839
:10E4700001694A1C3DD024225143826889184E68A4
:10E480001E494C6847690079E11B0D022D0AED1CFD
:10E49000002814D101201A4A00045060184A403A5A
:10E4A000506018494000086017490860174901206A
:10E4B00008602F20FDF70EFE0F4901200871B542BC
:10E4C00000D23546E81900020C49000A40310860C4
:10E4D0000A494968001B091B0902090A0002000ACF
:10E4E000C91C814204D901200649400480390860D2
:10E4F000F8BD01F083FFF8BDAC28002000150140F5
:10E500004013014080E200E000E100E00010014023
:10E51000F8B50D4611780646881D14461F2801D906
:10E520000C20F8BD33880720062BFAD31927FF01EA
:10E53000BB4202D9164A9342F3D17288062AF0D31D
:10E54000BA4202D9124FBA42EBD1114FBB4203D0AB
:10E55000BA4201D09342E4D8481C052220706A5484
:10E5600020781222411C21702A54207841193088C9
:10E5700002F090FA21784018C0B2207041197088DA
:10E5800002F088FA2178401820700020F8BD0000C1
:10E59000FFFF000010B500221146FEF759FD10BD27
:10E5A000F8B5164800F0C6FF144D0026103D144C77
:10E5B000002807D0616900291BD001206A4610702D
:10E5C000684615E02878002805D06169002910D038
:10E5D000684606700CE0687800280CD0A16800221C
:10E5E0006868FEF723FE002803D0A169002900D047
:10E5F00088472E70F8BD6168F1E7000044280020CC
:10E60000E02C002070B5094B04469E7A08200025B6
:10E610000E4207D00648844202D01889A04202D197
:10E620000020156070BD052070BD0000EC2D00209D
:10E63000FFFF00000C214843064910B50122401895
:10E640008272911E0181FF21C1720721FDF7B1FD88
:10E6500010BD0000EC2D002010B5134C20790007F0
:10E660001FD46069401C6061E068002801D004206C
:10E6700004E000F091FF002803D0022002F0DAF855
:10E6800010BD2069002809D06068C10701D00320AF
:10E69000F4E70121084360600020EFE7FFF764FE24
:10E6A00010BD02F0BBF810BD7028002010B508485E
:10E6B00041680A0708D48A0702D501221143416044
:10E6C000022002F0B7F810BD02F0A8F810BD00005B
:10E6D00070280020F8B500260124154D23E0696854
:10E6E000F0004718387821466A698140114218D0F5
:10E6F0008A436A6101F040FA3A7821462B699140D9
:10E7000019400346934099420BD17978012901D0F1
:10E71000012100E000217B684140002B01D0104620
:10E720009847761CF6B228788642D8D3F8BD000008
:10E7300094280020FEB50E46044681786A46234898
:10E7400001F03EFC002827D160780C21204F48437F
:10E75000C019807A400620D4022E1ED0012E1ED071
:10E760001C4DA0781C21484319490023F039411859
:10E770001C226846A847002813D0022E0CD020780F
:10E780000C21484312490C314018807A124980000C
:10E790000A58214668469047FEBD104DE1E7104DEE
:10E7A000DFE7022EF8D060780C214843C019817A47
:10E7B000BF221140817260781C21484304492C39E2
:10E7C00041181C231A466846A847D8E7602800204D
:10E7D000EC2D0020A10702009C0C02006D0302003A
:10E7E0009102020070B50546114A124800241C230C
:10E7F00063431B189B7EFF2B04D0641C072CF6D3AD
:10E80000104670BD0A78022A09D01C2262431018F3
:10E81000FD22827607221030FDF7B2FC04E01C21B5
:10E8200061430818FE2181762C700022E8E7000081
:10E8300043800000FC2C0020F7B505250F4F06464D
:10E840000024002E0AD01C206043C0190722314644
:10E850001030FDF7B9FC002807D00AE01C20604307
:10E86000C019018B0298814203D1019800250460F0
:10E8700002E0641C072CE4D32846FEBDFC2C0020DB
:10E880007CB5054681B26A46074801F099FB040051
:10E8900008D14C21684601F0BDFB040002D1284696
:10E8A00001F046FB20467CBD6028002010B510001A
:10E8B00003D000221146FEF7CBFB002010BD000064
:10E8C0001FB56946087301F00FFC002803D0002231
:10E8D0001146FEF7BDFB03A800F018FA002803D08C
:10E8E00000221146FEF7B4FB01A805210130FDF717
:10E8F00060FC6946487901221043E1210840DF218C
:10E900000C30084069464871072088711020C87192
:10E91000064800900A71064800F00AFB002803D060
:10E9200000221146FEF794FB1FBD0000ADE8010078
:10E9300004280020F0B5054693B000200090FF2485
:10E94000E7480E94007800284CD0E64F386800283D
:10E9500048D001A800F0CCF9002803D000221146CD
:10E96000FEF776FB281D05902A2168460183FF21CA
:10E970000026817106710396DA4C28880C3C102819
:10E980000ED0A88803AA0221FFF73CFE002807D179
:10E9900003980C2141430919CA7A69468A71487162
:10E9A00029881320162317297ED00FDC10291BD0AD
:10E9B000112953D0132978D0142913D103980C218D
:10E9C00048430019C07AFF2870D09FE0C64A182932
:10E9D0006DD01C2963D0522904D1B87A8000115817
:10E9E00001A8884713B0F0BDC04F03AA01213846E3
:10E9F000FFF708FE0028F5D103990C2048430222B6
:10EA00000019827211236A4613745171A988018119
:10EA10000722A91DFDF7B4FB687DC10707D0410897
:10EA2000AF480830405CFF2808D00E9006E03A4618
:10EA30000EA9A81DFFF700FF002832D103990C2270
:10EA4000514309190E98C8728A7A08231A438A72A8
:10EA50006946887101A8FFF7F3F822E003980C21BA
:10EA600048430119887AFD2210408872010706D5B3
:10EA7000C0090DD0002101A8FFF75CFE08E0684640
:10EA80008079FF2804D001F053FAFF20694688718D
:10EA900003980C22504310210019817212206946FC
:10EAA0000874324604A903E08BE041E011E0E5E0A0
:10EAB00001A8FEF7DBFA6846007C122892D1039881
:10EAC0000C2141430919897A01298BD0FFF7B2FD46
:10EAD00088E7EA890EA90020FFF7AEFE00280ED1D4
:10EAE00003980C22504300190E99C172827A0823B0
:10EAF0001A4382726846817101A8FFF7A1F8039852
:10EB00000C2148430019C07AFF2806D003981C2125
:10EB10004843744938394018009003981C214843F1
:10EB20007049FC394218A8880023009982DF59E710
:10EB30006946087403980C21844648430119887A71
:10EB4000042210438872CA7AFF2A2AD06A461374B4
:10EB500062461301634A1C3A9B1800229A60DA60ED
:10EB600040221043887203990C2200204A430A90E5
:10EB70001219D27A1C235A435A4B0C90FC3BD218E0
:10EB80000B921C2251431A46C432891807910890EF
:10EB900009903A1DA88807AB00217FDF002897D194
:10EBA0007FE70EA8FFF71EFE002801D00646DAE731
:10EBB00069460E98887103990C2251430919C8724D
:10EBC000D1E7787A0C2140084000787203986F46AC
:10EBD00002464843011984468B7AFB2003408B721E
:10EBE00014203874A879002804D0C87AFFF748FEAA
:10EBF000AE7956E7E8794007D2D5B879FF28CFD06B
:10EC000008273B438B72EB7A9B0709D51C250346EB
:10EC10006B43344DFC3D5B199D7E6D086D009D7608
:10EC2000CB7AFF2BBCD06346E35C022B11D01C22B5
:10EC30002C4D5043FC3D401907221030FDF7A0FA3F
:10EC4000684680791C2148434019817EFD2211408D
:10EC50000EE01C214A432349383951184A8A1C21A5
:10EC600048432049FC3940180283817E4908490005
:10EC70008176012101A8FFF75DFD12E7A87901095E
:10EC800001291BD10007000F012817D103990C207F
:10EC900048430519A87A060710D50A0111491C39FD
:10ECA000521800219160D16069460B7460210843BD
:10ECB000A872787A0221084378720FE003980C2139
:10ECC00048430019817A80231943817215206946CF
:10ECD0000874B87A8000115801A888470026E0E639
:10ECE00050280020F82D0020BC0C0200FFFF00007F
:10ECF000002806D0FF21017041708170C170002092
:10ED000070470148704700000E800000F0B585B0E4
:10ED1000050037D02A4800240460447284722046DB
:10ED2000FFF788FC264800267C3804664466846623
:10ED3000FF27C466304601F0FBF822488755761C51
:10ED4000072EF7D34C21684681800721C1801E48D9
:10ED50001C4900900831684601F040FA00280FD1A4
:10ED6000184E0120083E3070287800280CD06946E3
:10ED70008888C988484381B23046103001F04AF98A
:10ED800005B0F0BD1148FBE70D4F0025FC3F0D48D5
:10ED9000A9B202AA083001F013F9002809D11C20F9
:10EDA0006843C01900231C2202A901F0C3F90028FE
:10EDB00001D03470E4E76D1C072DE8D3E0E70000D4
:10EDC000F82D002058280020D1ED01000E80000011
:10EDD000FFB555488FB00068189F1E46002852D0D6
:10EDE0004C2F50D86846FFF783FF002803D000223D
:10EDF0001146FEF72DF9002468460470047125467B
:10EE000005970696A9B20DAA484801F0D9F800283E
:10EE100006D108220DA90F98FDF7D6F900281AD0BF
:10EE20006D1C072DEED3684680780790FF282AD006
:10EE300010982025032811D03B481C21FC38301A9B
:10EE4000FDF774F9012707282DD204A80290119824
:10EE500000281AD021E068468570E4E74C2F03D0E3
:10EE600040206946087101E06846057169460879E5
:10EE7000032108436946087104A8029001A9684665
:10EE8000119AFEF7F3F813B0F0BD079938468840A1
:10EE90002649103949680842F5D0079801F000FE6C
:10EEA0006846057136E020481C213838301AFDF7D5
:10EEB0003DF9002808D01C481C38311A09091BD01C
:10EEC000402069460871DEE704A802906846057193
:10EED000447015480A940C300B90443807906846EB
:10EEE00080781C2148431049FC394018089007A835
:10EEF0000690182005900DE0302269460A714C708A
:10EF0000CF7009490C39897A890703D404604460B9
:10EF10008460C460109869460228087901D00221F3
:10EF2000A7E73843A7E70000F82D0020602800205D
:10EF300070B5064618480D46007800280ED01749CF
:10EF4000002E0ED0002D0CD02868002809D0144CBB
:10EF50002168002907D011480A3870BD0F48801F6A
:10EF600070BD084670BD20600522691D201DFDF79B
:10EF700007F92879A072207A02214008400008434E
:10EF8000FB2210402072E07901231843084310400F
:10EF9000E0710020307070BD502800200E8000000D
:10EFA000F82D0020F0B5294A294B1278002A2CD0E0
:10EFB0009A1D00280BD0002909D00C68002C06D01F
:10EFC0008C68002C03D0007800281ED101E0104688
:10EFD000F0BD20480068002817D000231D4C1A46B9
:10EFE00018460C3CE57A854202D1A57AAD0726D4B5
:10EFF0000D7B954212D91C2506466E43154DFC3DEE
:10F000007519AE7EF60702D008E01846F0BD8E688E
:10F010009700F5510D4D0835A854521C0D799D42AD
:10F020000DD91C2506466E430A4DFC3D7519AE7E72
:10F03000B60704D49F0010350E685B1CF551401CC8
:10F040000728CFD30B710A730020F0BD5028002091
:10F0500008800000F82D002010B50E4900238A78A2
:10F06000CC78A24212D0521CD2B28A70022A00D1AD
:10F070008B708A78074B92001C339A58026048695B
:10F0800010180002000A4861012010BD0360002032
:10F0900010BD0000AC280020F7B5144C0025A7686F
:10F0A00023691EE024215943C9194E68864202D9BA
:10F0B000301A486017E0801B751900264E600E75E7
:10F0C0000E699C460B6AB646002E0AD0019E761940
:10F0D0003602360A8E607646CE6016680E6261464B
:10F0E0001160591CDED12361FEBD0000AC28002058
:10F0F00010B5002803D0112802D0FEF707F810BD84
:10F100000248082241681143416010BD7028002068
:10F1100010B51C4C217820464068012906D00229F0
:10F1200029D0032912D1000717D513E0000711D405
:10F1300015481422017851430818C188A28B891AF6
:10F140000904090CC18002D001F02CFB10BDFFF7AF
:10F150006FF910BD00F09CFB10BD6069401C606140
:10F1600000F01AFA002803D0207801F027FA10BD29
:10F17000FFF7FAF810BD607804498000085880470E
:10F1800010BD0000702800208C2E0020E80C02002A
:10F1900010B528DFFFF7ACFF10BD10B529DFFFF772
:10F1A000A7FF10BD10B50446C0B2FEF79BF920467C
:10F1B00010BD00000EB51120694608720A2217A181
:10F1C00002A87CDF002803D000221146FDF740FF93
:10F1D0000920800178DF002803D000221146FDF7C6
:10F1E00037FF0021FF20913000916A460191108085
:10F1F000430053809180D08068467ADF002803D096
:10F2000000221146FDF724FF0720C04377DF0028C6
:10F2100003D000221146FDF71BFF0EBD537570652C
:10F220007242696B65320000002070470020704711
:10F2300000207047F8B5417805460A0126480C239E
:10F24000594396461018244B002442681033C918BD
:10F25000274626469446002A0BD08B7ADA0908D036
:10F260005A0606D4044660461B4A87B270461658B2
:10F270000834088933463A462146A9DF0B281CD0BA
:10F28000002800D01548012E16D168780C2148437B
:10F290001149134A1031401800890C21A7DF0028BA
:10F2A0000AD01049884214D0082812D0891C8842FC
:10F2B0000FD011280DD00020F8BD68780C214843EC
:10F2C000054901231031401800893A462146A9DF3B
:10F2D000DBE70248F8BD0000DC2D00204180000083
:10F2E000FFFF00000230000070B50C460146607858
:10F2F000084D000140193823102200F01BFF0028A0
:10F3000006D16178090149194A68521C00D14A6046
:10F3100070BD0000DC2D0020F3B583B00D46082041
:10F320006946088168780C2103274843214E3B46F3
:10F330008019008902AA6946AADF002837D16878B7
:10F3400034460001103C001969460A890830FCF770
:10F350003BFF0028687806D00001011949680029A0
:10F360000FD0154E0EE00C2141438919897A890787
:10F370001DD4000100190021016041608160C1605D
:10F3800015E00E4E275068460289687869460001EC
:10F39000001942606878000100190830FCF7F0FE9F
:10F3A000687838230001011910220398B047002023
:10F3B00005B0F0BDEC2D00206D03020091020200AB
:10F3C00010B5FFF737FF10BD10B5FFF78DFF10BD6B
:10F3D00010B5FFF7A1FF10BD70B50646104C012512
:10F3E000B540E068FDF764FF00280CD1616929424F
:10F3F00007D1304600F0C0FB0028206904D0284324
:10F4000003E0A943616170BDA843206160690022E7
:10F4100028436061A168E068FDF708FF70BD000047
:10F420009428002010B500F0A7FB002801D0002090
:10F4300000E0012000F038FD10BD000070B51B4C4D
:10F44000207900072ED41A481422017851430D1850
:10F450002E6900F043FE0146E8882A89761E80184E
:10F460008019FCF763FE21690025002909D0616934
:10F47000814206D1E5606068012108436060002098
:10F480000AE000F089F8002802D00220E56003E0DD
:10F490002069002803D0032001F0CCF970BDFEF7ED
:10F4A00063FF70BD01F0BAF970BD00007028002044
:10F4B0008C2E0020F8B51E4C2078002837D020690B
:10F4C000002807D00026E068002805D00025002E7F
:10F4D00004D013E00126F6E70125F8E7684651DF7E
:10F4E000052806D0002806D000221146FDF7B0FD01
:10F4F00004E0012602E0216900988847002D12D11E
:10F50000608869460880A06861DF052806D0002869
:10F5100006D000221146FDF79BFD04E0012502E024
:10F52000E168A0688847002ED8D0002DCFD0F8BD64
:10F53000D8280020418805480288914204D3408899
:10F54000814201D801207047002070473C280020EC
:10F550001048018CC9B2012917D1818C090714D137
:10F56000018D09060A0F03D1828D1206120F0ED0EB
:10F57000090F012903D1828D1206120F07D003292A
:10F5800003D1808D0006000F01D0002070470120BC
:10F5900070470000C00F00F070B50E4814220178CB
:10F5A00051430C18256900F099FD0146E088228935
:10F5B0006D1E80184019FCF7B9FD07494A6982425F
:10F5C00006D3824202D10869002801D0002070BD14
:10F5D000012070BD8C2E002070280020800701D0F3
:10F5E000002070470120704710B50448017AC90710
:10F5F00002D00078FEF7E0FC10BD00000C280020CF
:10F60000F8B5234801690091457833E02048E900C6
:10F61000C0680E1834782AE0182060437168641CB2
:10F620000818B178E4B2A14200D10024017802297F
:10F6300002D003291BD113E0154A406824219268A7
:10F6400041438F18397D002911D001F059F900206C
:10F6500038750CE024277843C0180275006A03E06F
:10F660000B4900228B680869471CF3D10861707848
:10F67000A042D1D128466D1EEDB20028C6D1044863
:10F6800001690098814201D00120F8BD0020F8BD39
:10F69000AC280020F8B504463848002701690091DD
:10F6A00046785CE03548F100C2688D1851E0601C76
:10F6B00007D0324A24209268604321468018046AA9
:10F6C00024E02878182141436A68401CC0B25218CF
:10F6D0002870A978884200D12F70284B51682420C7
:10F6E0009B684843C0181378012B34D1037D002B4D
:10F6F00031D193688360D368C36013690361526931
:10F70000C2611E4A5279002A00D087601B4B826872
:10F710005B6996469C46D31A1A02194B120A9A4202
:10F7200002D2C368D21808E0724663469A1A1202DF
:10F73000C368120A934202D99A1A426000E04760F5
:10F7400087600122C7600275921E0262084601F0BE
:10F75000A5F8601CABD1287869788842A7D13046DB
:10F76000761EF6B200289DD10448016900988142B6
:10F7700001D00120F8BD0020F8BD0000AC28002019
:10F78000FFFF7F0088B0FDF7BFFD0024374B072245
:10F79000062120460094FDF7EFFC002803D000224C
:10F7A0001146FDF755FC324A01213248FDF7BEFCF7
:10F7B000002803D000221146FDF74AFC2EA0FCF7DA
:10F7C00005FF304A30490320FEF7A6FB002803D08E
:10F7D00000221146FDF73CFC01A90020FEF754FA77
:10F7E000002803D000221146FDF732FC684600795C
:10F7F000022838D0002168460170FEF7D1F9FDF7E4
:10F8000093F968460078FFF75BF8FFF7D3FC052013
:10F81000FDF77CFA00F058FE1C216846FCF7C9FC95
:10F820000520C00301900F200004029000940321E2
:10F8300068460173C481012101741448069005943F
:10F840006846FEF723F8002803D000221146FDF792
:10F85000FFFBFDF789FA48DF0028FCD000221146A3
:10F86000FDF7F6FBF7E70121C5E70000F0280020CF
:10F8700025D70100082800206C616C616C610D0ABD
:10F880000000000031DE0100CD0C000095E5010014
:10F8900010B504480822416891434160007800F0A7
:10F8A0008DFE10BD7028002070B5054600790E460B
:10F8B000801C1446C0B21178821C8A181F2A01D9F4
:10F8C0000C2070BD0A46491C2170401CB0542078A1
:10F8D000FF22411C2170325420788119288801F0C0
:10F8E000D9F821784018C0B22070AA88002A09D01F
:10F8F000A968002908D08019FCF742FC20782979F2
:10F9000040182070002070BD072070BDF8B5147835
:10F910000746A01C15460E461F2803D87878801C81
:10F920001F2801D90C20F8BD1D20001B80B269469C
:10F93000864608803019801C7DDF0028F3D1387896
:10F94000022805D168460088704501D8092107E0E2
:10F9500078780821002801D0704501D968460088D0
:10F96000421C3255641CE2B2B1542978801C08183C
:10F9700028700020F8BD002070470020704700204C
:10F980007047000010B501788A074178920F490747
:10F99000C90E406811438207540E0C438103890F3E
:10F9A00003D00321090408400443002000F00AF8B2
:10F9B00003494868FF22120210402043486010BDEE
:10F9C0000075004010B5064902024B68FF2424026E
:10F9D000A3431A434A60002800D00120086010BDEC
:10F9E000007500408207D30EFF229A408907090E56
:10F9F00010B5994000280BDA03071B0F083B9C0841
:10FA00000C4BA400E318DC6994430C43DC6107E071
:10FA10008408094BA400E418236893430B43236034
:10FA2000C106C90E012088400449086004490860E5
:10FA300010BD000000ED00E000E400E080E200E026
:10FA400000E100E0F3B581B00F46019800F08CFAB8
:10FA5000012400281E4E019817D0FEF7FBFB8019E9
:10FA6000403000798009032802D0012806D007E041
:10FA70001848006901998C40204201D1022100E020
:10FA80000321019800F000F9FEBD00F079FA00288A
:10FA9000FAD00198FEF7DEFB05468100C81D0E4A2C
:10FAA000F93089180A6980B222430A610B4940186B
:10FAB00000210160002FE7D00198FEF7CBFB80000A
:10FAC00030580028E0D00648AC404460FEBD00003D
:10FAD0003C2E002000050050006500400060004002
:10FAE00000630040F8B5204F0D4604463819282120
:10FAF00041560026C8171346401C01D0082630E0A6
:10FB0000EA7819462046FEF781FB411C28D0174BA6
:10FB1000AA78A100C918002A03D00A6802239A43D0
:10FB200001E06A7892000A60E978002910D082002A
:10FB30000F482978101802690E4B1A400261E2063C
:10FB4000D20C8907890B0A4301690A43026108E064
:10FB5000381840302A78017992011143017100E090
:10FB600004263046F8BD00003C2E0020000700505F
:10FB700000650040FFE0FCFF03490969C140C80778
:10FB8000C00F00D0012070470005005070B5124D25
:10FB9000A87B002801D0082070BD0F490020403903
:10FBA000421E0B182033401CC0B21A722028F8D312
:10FBB00000242046FEF71CFB641CE4B20A2CF8D398
:10FBC00001210620FFF70EFF01200449C00748600D
:10FBD0000120A873002070BD7C2E0020006300402F
:10FBE0000248807B002800D0012070477C2E002036
:10FBF000F8B504461F480D4600192030082141562B
:10FC00000026491C01D008262FE0A97800291DD024
:10FC1000012200212046FEF7F9FA411C14D083008E
:10FC200015482A78181869780369144F3B40036116
:10FC30000369E706FF0C9207920BC907C90A3B4309
:10FC40000A431343036104E004260EE00121C94383
:10FC500001720B4A0320A100891808606A7801200C
:10FC6000A0400849012A02D0C8603046F8BD88602B
:10FC7000FBE700003C2E002000650040FFE0ECFFA9
:10FC80000007005000050050820006481018026866
:10FC900003231B049A430260026809040A430260BA
:10FCA0007047000000070050034940180068012811
:10FCB00000D00020704700000060004010B50B48E5
:10FCC0000978806800290AD0012907D1FDF7F0FAE8
:10FCD000002803D000221146FDF7BAF910BD0F210C
:10FCE00000228904FDF7A2FAF2E7000000280020B4
:10FCF00070B5054600881E4C19282DD010DC102840
:10FD00001CD0112819D10020FEF7F8F8002803D0E4
:10FD100000221146FDF79CF90020C043E08021E05D
:10FD2000392801D0552808D11321E08876DF002832
:10FD300003D000221146FDF78BF970BD0720FEF7B6
:10FD4000DDF8002803D000221146FDF781F90020DC
:10FD5000A070A888E08070BDA8790028FBD1A078A9
:10FD6000042802D0FDF700F870BD00F00DFC70BD56
:10FD700000280020F8B5CA88002A1BD1114B8E89B3
:10FD80009C781D880C3113E00A2353435B181F79BC
:10FD9000BC420CD15F88BD4209D10A24624351188C
:10FDA0008979490706D559890181002103E0521C50
:10FDB0009642E9DC01216A46117002686946904763
:10FDC000F8BD00004C28002038B504468879082882
:10FDD00014D110A0FCF7FAFB0020694608702046F9
:10FDE000491CFDF793FE050009D06068002805D086
:10FDF0000BA0FCF7EBFB61682846884738BD6846D6
:10FE000041780BA0FCF7E2FB226869462046904748
:10FE100038BD0000726F7A6C61637A616D0D0A0003
:10FE20006572726F722068616E646C65720D0A0093
:10FE30007779776F6C756A652068616E646C65723E
:10FE400020646C61204E52465F5375636365737323
:10FE50002E20416C657274206C6576656C20746F21
:10FE60002025640D0A00000009780648002906D004
:10FE7000012903D0022901D100210170704701211D
:10FE8000FBE700000028002010B50878002802D108
:10FE90004878FDF76DF810BD10B50878002802D13C
:10FEA0004878FDF765F810BD10B51D4A1D490300DF
:10FEB000FCF79CFB05040B31202712004878012831
:10FEC0001FD0022808D1032005E04878002804D07C
:10FED000032801D10220487010BD134B0420186084
:10FEE000124B012018609368D2689A42F3D0FCF755
:10FEF000D3FD10BD4878012806D0022804D003287D
:10FF0000F7D1FCF701FE10BD9068D1688142EED1B7
:10FF1000FCF7E8FD10BD48780128E8D010BD0000CE
:10FF20002C2E0020682800200025004000200040E2
:10FF300070B505461C200B49684344182046113013
:10FF40000621FCF736F920461021FCF732F9FF2193
:10FF500021740020A176C0432083284600F0A0FD34
:10FF600070BD0000FC2C00200449081828214156CF
:10FF7000042901DB01207047002070473C2E00203F
:10FF80000449081828214156042901D2012070474C
:10FF9000002070473C2E002007490979490701D409
:10FFA00008207047002804D00449497801600020E7
:10FFB00070470E2070470000702800208C2E002013
:10FFC00030B5124B1B795B0701D4082030BD0028E7
:10FFD00005D0002A03D00468002C10D101E00E20C7
:10FFE00030BD0B4B1D68002D09D045681889414371
:10FFF00069185D89454358682818884201D8072048
:020000040002F8
:1000000030BD14600020516030BD00007028002019
:10001000582F0020FEB5054625480E4600794007BA
:1000200001D40820FEBD002D03D02868002834D15B
:1000300001E00E20FEBD1F4C216800292DD06089F3
:1000400021894843616841186868814225D9FFF7D2
:10005000C5FA00280FD06868019029680C22514326
:100060000F1979680091401A39890C46FCF75EF83F
:10007000002912D101E01020FEBD21463046FCF7D8
:1000800055F8002909D1002E07D0788944430198FA
:10009000811900980019814201D90720FEBD002076
:1000A00002460090334629460320FEF79BF9FEBD29
:1000B00070280020582F002010B507484469601CA4
:1000C00006D000F00BF801462046FCF72FF810BDD3
:1000D00001200007406910BD00100010012000073A
:1000E000006980B27047000070B500240F482546B3
:1000F000047044702846FEF765F96D1C0A2DF9D38B
:100100000B4D6C80FFF7D8FF861EFFF7E7FF4643D5
:100110000648AE60CC306C610460048144812C7070
:10012000AC610420EC616860002070BD8C2E002062
:1001300070280020FFB5274881B000791F46164679
:100140000D46400702D4082005B0F0BD002D06D0B2
:100150000198002803D02868002815D101E00E205E
:10016000F2E71D4C206800280ED061892089626862
:10017000414389186A68914206D9002E04D0B042E2
:1001800002D3F119814201D90720DDE70198FFF779
:1001900025FA00281BD03846FFF720FA002816D091
:1001A0006868FFF71BFA002811D068683246C11949
:1001B0000198FBF7E5FF009628680C214843245876
:1001C000002202212846019BA0470020BCE7102006
:1001D000BAE7000070280020582F0020F8B52A4DFB
:1001E000044628790E46400701D40820F8BD002CAB
:1001F00020D0002E1ED0206800281BD0FFF76EFFF5
:100200000146A088814213D3102811D3E08800282A
:100210000ED0FFF751FF471EFFF760FF4743E2880C
:10022000A088A96842435218974201D3800703D09F
:100230000720F8BD0E20F8BD6888012821D003C62C
:100240000C22124B5043C218516021681950A088EB
:100250001081E0885081FFF741FF0146A088E288C5
:100260005043401EFBF778FF441CFFF737FF014661
:10027000A86861430818A8606888401C688000204E
:10028000F8BD0420F8BD000070280020582F002081
:10029000F8B5044620481E46007915460F4640072B
:1002A00001D40820F8BD002F05D0002C03D0206811
:1002B000002815D101E00E20F8BD1848016800297A
:1002C0000ED04289018940684A4310186268904202
:1002D00006D9002D04D0A94202D3A819884201D919
:1002E0000720F8BD3846FFF779F9002811D03046CD
:1002F000FFF774F900280CD06068FFF76FF9002849
:1003000007D02B463A46214601200096FEF76AF8B0
:10031000F8BD1020F8BD000070280020582F0020E4
:1003200010B5114902460878002811D004280FD0D2
:10033000022A16D0032A0BD10A79120711D48A692E
:10034000521C8A61032A08D0022802D000F036F934
:1003500010BD487800F06EFA10BD0D20FCF7D6FEF7
:1003600010BDFEF7D5FE10BD70280020F8B504467C
:1003700020481E46007915460F46400701D4082044
:10038000F8BD002F05D0002C03D02068002815D11F
:1003900001E00E20F8BD1848016800290ED04289FE
:1003A000018940684A4310186268904206D9002DBE
:1003B00004D0A94202D3A819884201D90720F8BD68
:1003C0003846FFF70BF9002811D03046FFF706F941
:1003D00000280CD06068FFF701F9002807D02B46F1
:1003E0003A46214604200096FDF7FCFFF8BD102098
:1003F000F8BD000070280020582F002070B501249F
:100400000B49600408600B49401088600949403975
:100410008860094D6C602F20FBF75CFEAC60074DD7
:1004200000242F206C61FBF755FE2C7170BD00007D
:1004300080E100E04013014000100140AC280020A2
:10044000F7B582B002981446806A0F46002833D070
:10045000029800252030009028E00298816A0C2044
:1004600068430E18217830794A1C2270C01C7854D9
:1004700020781622411C21703A542078C119308806
:1004800000F008FB21784018C0B22070B288002A22
:1004900009D0B16800290FD0C019FBF771FE207890
:1004A0003179401820706D1C0098EDB2007BA84295
:1004B000D3D8002005B0F0BD0720FBE710B500221F
:1004C0001146FCF7C5FD10BD3EB500240721C94308
:1004D000684600940170601C0107090F68462031CE
:1004E0004170847069462248FDF78EFB002803D0D6
:1004F00000221146FCF7ACFD1E4800901C486946DE
:100500000C30FDF7CFFA002803D000221146FCF78B
:100510009FFD1948194D0090019502946846047298
:1005200001200146684610314172012001466846AB
:10053000103181720E4869461C30FDF7F5FA00282B
:1005400003D000221146FCF783FDFCF7D9FF0C48CD
:10055000C4700C4800900648694601954830FDF784
:100560002FFA002803D000221146FCF771FD3EBD92
:10057000802C002089FE010099FE0100BD040200CC
:100580000028002069FE010010B50020FDF7B6FC30
:10059000002803D000221146FCF75AFDFDF7DAFBD4
:1005A000002803D000221146FCF752FD3CDF002852
:1005B00003D000221146FCF74BFD10BD10B50F49CA
:1005C0000028087009D0012811D0022812D0032871
:1005D00002D14869FEF7DCFD10BD00208861C861CA
:1005E000074840780028F7D0FDF7D0FE10BD00F096
:1005F000D9F810BD00F038F810BD000070280020B8
:100600008C2E002010B508461146C046C04610BDCD
:10061000002803D00249C860002070470E207047B0
:10062000D828002070B5002901D08C0701D0072000
:1006300070BD064C0125A16062800549636010DF32
:100640000028F5D1257016202EDF70BDD828002097
:1006500005060200002803D0024908610020704707
:100660000E207047D8280020F8B5164C1422606878
:100670004008400060601448017851430E18376903
:10068000FFF72CFD01463846FBF750FD054660613B
:10069000FFF724FD0146F0887F1EC019FBF746FDD9
:1006A00002228542606801D1104300E090436060FF
:1006B000E1681040084303D0002000F0BBF8F8BD0B
:1006C0000220FAE7702800208C2E002010B5024886
:1006D0004069FEF75DFD10BD7028002010B5FFF7E2
:1006E000EBFC441EFFF7FAFC4443FFF7F7FC044918
:1006F0004A69521E5043CA682146FEF74EFD10BD9E
:1007000070280020F8B510481422017851430C18C5
:100710002569FFF7E3FC0146E0882289801840192B
:10072000FBF704FD0F46FFF7C7FC461EFFF7D6FC9C
:100730004643E0882289F1198018044A4019126959
:10074000FEF72BFDF8BD00008C2E00207028002045
:1007500070B5FFF7C3FC0546FFF7AEFC441EFFF77C
:10076000BDFC60432946FBF7E1FCFEF711FD70BDBF
:1007700070B5FFF7B3FC8608FFF7B0FC074949697D
:1007800048430446FFF798FC451EFFF7A7FC684363
:1007900032462146FEF701FD70BD000070280020A2
:1007A0000020704770B514481422017851430C188A
:1007B000241DFFF793FC6188104E884211D2FFF789
:1007C0008DFC61880D1AFFF789FC8208A188E0681A
:1007D0004018216940194919FEF7DFFCFFF77EFC3C
:1007E00007E0A288E06880188A082169FEF7D5FC36
:1007F0006088F06170BD00008C2E00207028002001
:1008000010B505480079000703D4012000F012F864
:1008100010BD00F003F810BD7028002010B504488A
:100820000822416891434160407800F003F810BD10
:10083000702800200249487002498000085800478B
:1008400070280020D40C020010B50446FFF768FDA4
:10085000022C01D0032C07D104484178002903D091
:1008600000214170FCF780FA10BD00000028002034
:1008700010B505480079000702D4FDF775FD10BDDD
:10088000FFF7CCFF10BD00007028002001200249B6
:10089000000508607047000000E200E0F0B5174F67
:1008A0002421BC6841430D1939694A1C09D024220E
:1008B0004A4316196B687268934204D8D21A726060
:1008C00029623861F0BD0A4602E00A46396A9B1B7C
:1008D0004E1C0BD024264E4337197E689E42F4D31B
:1008E00024264E4336197768FF1A77606B602962B9
:1008F00024214A4311190862F0BD0000AC280020F1
:1009000070B5194C2269A5681346114606E081426C
:1009100007D00A46242671434919096A4E1CF6D1AC
:1009200070BD002EFCD08A420CD1242043435819BC
:10093000006A2061401C05D10C4B01209860002307
:1009400063616071242041434819242341685A435C
:10095000006A52191062421CE2D02422504340190E
:1009600042685118416070BDAC2800200010014061
:10097000F8B51D4C2569681C35D01C480026406818
:100980006169401A07023F0A19E024204543A06824
:100990002A185068B84214D8A3693F1A8619156AF4
:1009A000002B09D0D16990699847002807D0002210
:1009B0001146FCF74DFB02E09169D0698847681C3D
:1009C000E3D1A178E078814206D1401CC0B2E0704A
:1009D000022801D10020E07003490006800D1C317F
:1009E0000E50FFF753FFF8BDAC2800200015014062
:1009F000F0B58FB00D4606461C216846FBF7D9FBC3
:100A00006846017802200143684601700024019481
:100A1000039404940594012708A806948770164946
:100A200068460184079469780177A9784177807FC7
:100A3000F9210840F721801C0840EF2108404108B7
:100A4000490068468177142109A8FBF7B2FB1421FD
:100A500009A8FBF7AEFB08A8099007A80A9068460A
:100A60008785C48507860D953088B31C09AA694619
:100A7000A2DF0FB0F0BD0000072A000010B501781A
:100A8000022901D0012904D1002240681146FCF757
:100A9000DFFA10BD0870000A48700220704700009D
:100AA00001218140024842688A4342607047000049
:100AB0005028002038B51549154A488890420FD073
:100AC0004A78144C521CD2B24A70237B934208D30A
:100AD000083175DF002803D0A169002900D08847BC
:100AE00038BD00254D70217C002907D03B2176DFE1
:100AF000002803D0A169002900D088476169002936
:100B0000EED068460570884738BD000034280020C4
:100B1000FFFF0000E02C002012494868C005C00D0E
:100B200019D0103840B2002807DA0207120F083A2D
:100B3000920892005118C96904E081080A4A8900A4
:100B4000891809688007C00EC1400806800F012877
:100B500003D0032803D002207047002070470120F3
:100B60007047000000ED00E000E400E04278837888
:100B7000521C934200D100220378934201D10020FD
:100B800070470A604168407818225043081870473F
:100B9000F8B51546069C1E4607460222009400F052
:100BA0000AF8002806D13346102229463846009418
:100BB00000F001F8F8BDFFB583B0074600200C9C9B
:100BC0008646267805463AE07868A90041180A88E2
:100BD000684682804988C1800022694601A865DF95
:100BE000002810D1684601780598814226D17046C8
:100BF000002801D0002200E0022220788918411844
:100C00001F2902D90C2007B0F0BD7146002908D178
:100C1000401CC0B2411C069B049A21701A5401204A
:100C20008646217806980A18694601A865DF0028DB
:100C3000E9D1694620780978401820706D1C388801
:100C4000A842C1DC7046002804D020780699801B99
:100C5000401E88550020D6E7020200000000000078
:100C6000041801000218010003180100110000001F
:100C70001200000013000000140000001100030027
:100C800069DD01001200030069DD010013000300AB
:100C900069DD01001400030069DD01007FF9010036
:100CA00019F3010031F20100D1F301007BF90100D9
:100CB000E9F201002DF20100C9F3010077F901000A
:100CC00035F2010029F20100C1F30100000100002A
:100CD000030000005107020071070200CD06020068
:100CE00005070200DD06020001080200ADE6010072
:100CF00059E60100710802003DF401000300000004
:100D00000B09080A0000000000509D002C0D020095
:100D100000280020F000000006C601001C0E0200A2
:100D2000F02800207812000016C601000000000024
:100D30000000FFFF000000000000000000000000B5
:100D400000000000000000000000000000000000A3
:100D50000000000000000000000000000000000093
:100D60000000000000000000000000000000000083
:100D70000000000000000000000000000000000073
:100D80000000000000000000000000000000000063
:100D90000000000001000000000000000000000052
:100DA0000000000000000000000000000000000043
:100DB0000000000000000000000000000000000033
:100DC0000000000000000000000000000000000023
:100DD0000000000000000000000000000000000013
:100DE0000000000000000000000000000000000003
:100DF00000000000000000000000000000000000F3
:100E000000000000000000000000000000000000E2
:0C0E100000000000000000000024F400BE
:040000050001C0C175
:00000001FF
