:020000040001F9
:10C00000503C002015C101002FC1010031C10100C9
:10C010000000000000000000000000000000000020
:10C0200000000000000000000000000033C101001B
:10C03000000000000000000035C1010037C1010010
:10C0400039C1010039C101009DC6010039C101009B
:10C0500039C1010000000000CDC2010039C101005A
:10C0600039C1010039C1010039C1010039C10100E4
:10C0700039C1010039C1010039C1010039C10100D4
:10C0800039C10100FDC5010039C1010039C10100FC
:10C0900025C6010039C101002DC6010039C10100CA
:10C0A00039C1010039C1010000000000000000009A
:10C0B0000000000000000000000000000000000080
:10C0C0000348854600F0CEF800480047650A0200A4
:10C0D000503C0020401E00BF00BF00BF00BF00BF9B
:10C0E00000BF00BF00BF00BF00BF00BF00BFF1D155
:10C0F00070470000401E00BF00BF00BF00BF00BF70
:10C1000000BF00BF00BF00BF00BF00BF00BFF1D134
:10C11000704700000321094802680A43026008488A
:10C1200002680A4302600748804707480047FEE765
:10C13000FEE7FEE7FEE7FEE7FEE70000240500401D
:10C140005405004065C60100C1C0010030B50B4672
:10C15000014600202022012409E00D46D5409D42E1
:10C1600005D31D469540491B254695404019154667
:10C17000521E002DF1DC30BD70B50024254600288C
:10C1800001DA01244042002901DA01254942FFF782
:10C19000DDFFAC4200D04042002C00D0494270BDCF
:10C1A00003460B439B0703D009E008C9121F08C0D0
:10C1B000042AFAD203E00B780370401C491C521E7B
:10C1C000F9D27047D2B201E00270401C491EFBD286
:10C1D00070470022F6E710B513460A460446194692
:10C1E000FFF7F0FF204610BD30B50446002003469F
:10C1F00000E05B1C934203D2E05CCD5C401BF8D0B6
:10C2000030BDF0B51FB40646002082B0054640247C
:10C21000019100901BE0019922460F46304600F044
:10C2200043F8049A059B801A994110D31046194689
:10C23000224600F029F8361A8F4101972246012044
:10C240000021009F00F020F838184D410090204652
:10C25000641E0028DFDC019B00982946324607B0A7
:10C26000F0BD0000064C0125064E05E0E36807CC52
:10C270002B430C3C98471034B442F7D3FFF724FF0C
:10C28000D0290200F029020010B5202A04DB014663
:10C29000203A9140002010BD914020239C1A034673
:10C2A000E3401943904010BD10B5202A04DB084636
:10C2B000203AD040002110BD0B46D340D04020246E
:10C2C000A21A91400843194610BD0000F0B587B08E
:10C2D000002600200690FF20013005900125002453
:10C2E00016E0059804F098FE00280BD000BF5648D1
:10C2F00040682840002805D0059804F085FE3046A7
:10C30000284306466D000598001D80B20590641C08
:10C31000042CE6D3FF207D3004F07EFE00280AD0F6
:10C32000FF207D3004F070FE0120C007064300BFEF
:10C330004648006906903007000F00282AD00125E2
:10C34000002425E02846304000281FD000BF404888
:10C35000512109014018A10040581F21090208403D
:10C36000000A049000BF3A48512109014018A10079
:10C370004058032109040840000C0390204602F0B5
:10C380005DFB074603990498B84700BF6D00641C25
:10C39000042CD7D3F00FC007002852D000244EE061
:10C3A0002C480057401C002848D02A48005D0490C3
:10C3B000C021049888430746384602F083FB029068
:10C3C00002F03CFB03900398002836D0C02104986B
:10C3D0000840801102900120B840054600BF0520AA
:10C3E0000007072109024018B90040580321090439
:10C3F0000840000C019006982840002802D00198BF
:10C40000022806D006982840002815D10198032854
:10C4100012D1029803280BD10198022801D10320E0
:10C4200000E0022000903846009904F0B3FD00BF00
:10C430003846039A0299904700BF00BF641C052C40
:10C44000AED307B0F0BD000000630040000500500F
:10C4500000600040642F0020C206D20E01219140EE
:10C46000014A11607047000080E200E0C206D20E6F
:10C4700001219140014A11607047000000E100E095
:10C48000C206D20E01219140014A1160704700009E
:10C4900000E200E010B5002819DA1A4A03071B0F62
:10C4A000083B9B089B00D2588307DC0EFF23A34068
:10C4B0009A438B071B0E8407E40EA3401A43114BCB
:10C4C0000407240F083CA408A4001A5118E00E4ADF
:10C4D00003231B02D21883089B00D2588307DC0E6B
:10C4E000FF23A3409A438B071B0E8407E40EA3404F
:10C4F0001A43054B032424021B198408A4001A5173
:10C5000010BD00001CED00E000E100E010B50028C7
:10C5100019DA1A4A03071B0F083B9B089B00D258E5
:10C520008307DC0EFF23A3409A438B071B0E84076F
:10C53000E40EA3401A43114B0407240F083CA4083F
:10C54000A4001A5118E00E4A03231B02D2188308D4
:10C550009B00D2588307DC0EFF23A3409A438B072E
:10C560001B0E8407E40EA3401A43054B0324240248
:10C570001B198408A4001A5110BD00001CED00E036
:10C5800000E100E010B5002819DA1A4A03071B0F72
:10C59000083B9B089B00D2588307DC0EFF23A34077
:10C5A0009A438B071B0E8407E40EA3401A43114BDA
:10C5B0000407240F083CA408A4001A5118E00E4AEE
:10C5C00003231B02D21883089B00D2588307DC0E7A
:10C5D000FF23A3409A438B071B0E8407E40EA3405E
:10C5E0001A43054B032424021B198408A4001A5182
:10C5F00010BD00001CED00E000E100E010B50020DF
:10C60000074908600021064841608160C160002040
:10C61000034940390860486005F06AFF10BD00001A
:10C620004011014010B505F013FE10BD70B50C4867
:10C630000068002810D00A4800688047044600BF00
:10C640002546002D06D000BF00221146284600F0E6
:10C6500039FD00BF00BF01E003F098FF70BD00008E
:10C660000429002010B504F01DF8002805D0074863
:10C6700007494860C8130749886103F0F7FF00289D
:10C6800002D001200449886010BD0000DFFF07C010
:10C6900000050040006C0040000600401CB5244826
:10C6A0008068002818D023484068042108400028EA
:10C6B00012D000201E4988601F488069C0B21F49FF
:10C6C00008800421684601701C48017868460171A1
:10C6D0001B490968884700BF1548C06900280BD06E
:10C6E0001448406880210840002805D000201049E7
:10C6F000C861032004F0F6FD0D48406A002816D0FA
:10C700000C48406801214902084000280FD0002051
:10C710000749486208488038046804600220694676
:10C7200008700194684606490968884700BF1CBD27
:10C730000021004000230040002500408228002006
:10C74000882800200FB410B503A9044B044A0298AE
:10C7500000F026F810BC08BC04B0184759010200CC
:10C76000FC28002030B47446641E2578641CAB425B
:10C7700004D3635D5B00E31830BC18471D46F8E73F
:10C7800002E008C8121F08C1002AFAD1704770479A
:10C79000002001E001C1121F002AFBD170470000F8
:10C7A000FFB591B00F460546002606E025280AD0C1
:10C7B000149A139990476D1C761C28780028F5D19F
:10C7C000304615B0F0BD002400940121F34A0294D4
:10C7D00000E004436D1C2B780846203B9840104233
:10C7E000F7D128782A280ED0022128780246303A3C
:10C7F000092A15D8009A0A235A43303A80180C4364
:10C800006D1C0090F1E701CF0090002805DA0120AF
:10C8100040030443009840420090022004436D1CF2
:10C8200028782E2815D10420044368786D1C2A2806
:10C830000AD101CF6D1C02900BE002990A225143EC
:10C84000303940186D1C029028780146303909298A
:10C85000F3D928786C2810D006DC4C281AD0682828
:10C860000ED06A2817D104E0742813D07A2812D188
:10C8700010E00120400504430CE00121090501E01E
:10C88000032109050C436978814203D10120000589
:10C8900024186D1C6D1C287803906E281ED00CDCAB
:10C8A000632831D004DC00288AD0582811D1B2E0A6
:10C8B00064287BD069280CD178E073282DD004DC63
:10C8C0006F2870D0702804D1A7E075286CD0782824
:10C8D0006BD0149A13999047761C62E06002400F67
:10C8E000022807D003280AD0042838680AD0066036
:10C8F0003F1D56E03868F11706604160F8E7386878
:10C900000680F5E70670F3E738786946087400207A
:10C91000487404A80390012003E0386803900020C5
:10C92000C0433F1D61070FD5002101E00199491C5B
:10C93000029A0191914213DA8142F7DB019A03993D
:10C94000895C0029F2D10BE0002101E00199491C2A
:10C9500001918142FADB019A0399895C0029F5D1A2
:10C9600001990098139A401A00902146149B00F0F8
:10C970003BF901998019461807E00398039900785C
:10C98000491C0391149A139990470198401E0190F5
:10C99000401CF2D12146149B139A009800F014F920
:10C9A00086196D1C09E741E033E034E00A200021DC
:10C9B000049005916002410F022905D001CFC217F2
:10C9C0009446032905D007E0FF1DFF08FF0003CFB1
:10C9D00006E000B2C2179446042902D140B2C11742
:10C9E0008C4600226146944506DA0A460021404200
:10C9F00091418C462D2102E0210504D52B216A4668
:10CA00001176012103E0E10701D02021F7E7019130
:10CA100054E00A200BE0102009E0102004900021CF
:10CA20000420044308200591029003E0082000211F
:10CA3000059104906002410F022905D001CF002228
:10CA40009446032906D006E0FF1DFF08FF0003CF30
:10CA50008C4603E080B2042900D1C0B200210191CC
:10CA600021072BD50399702906D0049A1021059B24
:10CA70004A401A4305D00EE040216A461176012152
:10CA800008E06146014306D030216A4611760399D9
:10CA9000517602210191049A0821059B4A401A43CC
:10CAA0000CD16146014301D1610707D530216A46A7
:10CAB0001176012101910299491E02910399582989
:10CAC00004D037A103910FA90F910DE039A1F9E727
:10CAD0006146059B049AFFF794FB039B8C469B5C85
:10CAE0000F9A521E0F92137061460143F0D10F98B6
:10CAF00007A9081A20300390600704D5012000041C
:10CB00008443029801E0012002900399884201DDEC
:10CB1000401A00E00020411802900198091800987E
:10CB2000401A0090E00306D42146149B139A009803
:10CB300000F05AF886190020049008E006A9085C65
:10CB4000149A139990470498401C761C04900199FC
:10CB50008842F3DBE0030CD52146149B139A00981E
:10CB600000F042F8861904E0149A30201399904797
:10CB7000761C0299481E02900029F5DC08E00F9807
:10CB80000F990078491C0F91149A13999047761CBD
:10CB90000399481E03900029F1DCFBE609280100F7
:10CBA0003031323334353637383961626364656623
:10CBB00000000000303132333435363738394142E5
:10CBC0004344454600000000F8B5044600251E46D3
:10CBD0001746880404D405E039462020B0476D1C70
:10CBE000641EF9D52846F8BDFFB50446002581B07E
:10CBF0001E46C80301D5302700E02027880404D54D
:10CC000005E038460399B0476D1C641EF9D52846E7
:10CC100005B0F0BD10B500F019F810BD0748007858
:10CC2000022802D00120064988600648007806499B
:10CC3000C861022001490870704700008C2800205C
:10CC40000020004080280020002500401CB5012065
:10CC50000549C860054908700320694608706846A0
:10CC60000349096888471CBD002000408C2800202B
:10CC70008828002000200549087001200449C86068
:10CC80004860002003490860704700008C2800209D
:10CC90000020004000250040F8B504460F46154628
:10CCA0000026002028702078002809D02A4639461E
:10CCB000204603F058FF0646002E01D03046F8BD4E
:10CCC000A078002808D02946384600F061FC0646C6
:10CCD000002E01D03046F2E7E07800280ED0022185
:10CCE0002A78501C2870B95401212A78501C2870C9
:10CCF000B954E1782A78501C2870B954606800282B
:10CD00000BD00020616808562A46394605F05EFCC3
:10CD10000646002E01D03046D1E7208900280CDDE0
:10CD20003B460622022120460830009505F04DFDC5
:10CD30000646002E01D03046C1E7208A00280CDDCF
:10CD40003B460722032120461030009505F03DFDAB
:10CD50000646002E01D03046B1E7208B00280CDDBE
:10CD60003B461522142120461830009505F02DFD74
:10CD70000646002E01D03046A1E7206A002809D0DF
:10CD80002A463946206A02F07FF80646002E01D076
:10CD9000304694E7606A002809D02A463946606A1E
:10CDA00003F0ACFE0646002E01D0304687E72C206B
:10CDB000005D002809DD2A463946204604F024FF9C
:10CDC0000646002E01D0304679E7304677E7014627
:10CDD000C87804221040002801D1072070470020A5
:10CDE000FCE710B501220221002001F08FFA044671
:10CDF00000BF002C03D0072C01D0204610BD00BF7F
:10CE000007220221012001F081FA044600BF002C14
:10CE100003D0072C01D02046F0E700BF0A220021F2
:10CE2000084601F073FA044600BF002C03D0072C1B
:10CE300001D02046E2E700BF0020DFE730B597B021
:10CE400030210BA8FFF7C5F9022108A801730621BC
:10CE5000C173242102A8FFF7BCF9012168460175BE
:10CE600032200690B420079000200B4B02AA014606
:10CE700000900BA800F0F0FB044600BF2546002DF3
:10CE800006D000BF00221146284600F01BF900BF63
:10CE900000BF17B030BD00003D10020030B58FB0AC
:10CEA00005460C461C2108A8FFF793F908A800784E
:10CEB00002218843811C08A801700078082188435A
:10CEC000083008A90870002009900B900C900D9074
:10CED0000E9000BF0121684681721D49018100BF8B
:10CEE00000200190617A68460171A17A41718079D0
:10CEF00006218843811C6846817180790821884316
:10CF00000146684681718079102188430146684650
:10CF1000817180794108490068468171142103A814
:10CF2000FFF757F9217A009102A8039001A8049015
:10CF30000121684681820021C1820121018307907D
:10CF400028892B460A3303AA08A9A2DF0FB030BDF7
:10CF5000062A000070B50546002D04D0012D13D01F
:10CF6000022D2ED121E0112001F0FEF9044600BF70
:10CF70002646002E06D000BF00221146304600F0A3
:10CF8000A1F800BF00BF1DE00D2001F0EDF904463F
:10CF900000BF2646002E06D000BF002211463046B4
:10CFA00000F090F800BF00BF0CE000BF0F2040056C
:10CFB0000549C8600020886000BF044803F028FECF
:10CFC00000E000BF00BF70BD0005005088130000E6
:10CFD000014600BF064A50680122D2058243044B35
:10CFE0009A600122D2050240DA6000BF704700005B
:10CFF0000005005010B5002407E0E100064A126861
:10D00000505C012103F02EFE641C04480078844229
:10D01000F3D3002010BD0000B8280020BC28002059
:10D02000FEB506460C461746052F01D20720FEBD69
:10D0300003F02EFF002806D103F002FF0546002D65
:10D0400001D02846F3E716480660164804701648D3
:10D0500007600020154908601549086015E0E000E8
:10D060008019019013480068009001988078694603
:10D07000487001990878104A694603F057FE054642
:10D08000002D01D02846D2E700BF2046611ECCB259
:10D090000028E4D1094A0021094800F067F8C6E7F2
:10D0A000B8280020BC280020C0280020C828002064
:10D0B000CC280020782902007D040200DDF1010067
:10D0C000C428002000BF00BF00BF00BF00BFBFF3E7
:10D0D0004F8F00BF00BF00BF06480749C86000BFB0
:10D0E00000BF00BFBFF34F8F00BF00BF00BF00E015
:10D0F00000BFFDE70400FA0500ED00E0F8B50446C6
:10D100000D46164603480768324629462046B8476A
:10D11000F8BD0000FC2E0020F8B505460C46277827
:10D120000C21A068484306490E5806480068009044
:10D130002A463946204608302369B047F8BD00002A
:10D1400038300020B028002010B50446064800788A
:10D1500014225043044A121D81182046FFF7DCFFB9
:10D16000042004F0D1FD10BD6C2F002070B50346E3
:10D170000C4619480068002801D1082070BD002A1B
:10D1800001D10720FAE7002B01D10720F6E70021A3
:10D190001CE024204843104D2D68285C002814D141
:10D1A0000125242048430C4E36683554242048433A
:10D1B000094D2D684019447024204843064D2D68C0
:10D1C0004019826119600020D8E7491C03480078A3
:10D1D0008142DEDB0420D1E7D4280020D0280020C3
:10D1E000FFB581B00E4617461C4620468107890FC1
:10D1F000002901D1012100E00021002902D10720EE
:10D2000005B0F0BD002C01D10720F9E704F0D0FCF7
:10D2100026490A98086026480670264804600025BA
:10D220000CE0002124206843224A12681154242073
:10D230006843204A1268801801756D1CB542F0DB06
:10D2400024207043041903201B4908701B48046004
:10D25000183400250CE0E900184A126888180021EB
:10D260000170417087704460182179430C196D1C5E
:10D27000032DF0DB0020C043114908600020114954
:10D280000870114908701420FFF7E6F803211420F4
:10D29000FFF778F91420FFF7E9F8019804F05EFC35
:10D2A00004F056FC094908600020A9E7F428002092
:10D2B000D0280020D4280020D8280020DC280020F6
:10D2C000E0280020F0280020F1280020E428002099
:10D2D000FEB504460D46164616480068002801D1E2
:10D2E0000820FEBD14480078844201D2052D01D2E9
:10D2F0000720F6E7242060430E490968085C0128EE
:10D3000001D00820EDE7242060430A49096840184D
:10D310004078012801D1284600E00020074605F0AA
:10D320002BFA3B462A4621460096019005F096F8D6
:10D33000D7E70000D4280020D028002070B504468C
:10D340000D480068002801D1082070BD0B48007806
:10D35000844201D30720F8E7242060430649096886
:10D36000085C012801D00820EFE705F005FA054622
:10D37000214605F09DF8E8E7D4280020D0280020B9
:10D3800010B58AB000240E4A07CA07AB07C300BF16
:10D39000002006900B480290012003900A48049058
:10D3A00001208002059006A80323084A02A90090E4
:10D3B00007A800F00DF8044600BF0AB010BD000039
:10D3C0007C290200FA28002050300020FD250200B0
:10D3D000FFB583B0044616460020584908705848E7
:10D3E00006600020C04357490880607801218140D1
:10D3F000554A916000BF60780321120507231B0284
:10D40000D2188300D15000BF20788A0005231B0763
:10D4100007273F02DB198700DA5100BF60784B49CC
:10D42000C86020784861A06848626079002804D00C
:10D430000E2046494031C86203E000204349403194
:10D44000C8622079022844D103F022FD002807D1C8
:10D4500003F0F6FC0546002D02D0284607B0F0BDCB
:10D460003B4800680290A07802A903F01BFD054626
:10D47000002D01D02846F1E70020C0433349086160
:10D48000A078886031484030C06A012108432F49A4
:10D490004031C8622E48001D00680190E0782D4A96
:10D4A00001A903F043FC0546002D01D02846D5E72D
:10D4B000E078012103F0D6FBE07803F0B1FC00280E
:10D4C00003D0002003F00EFF02E0012003F00AFF6A
:10D4D0000EE02079012806D1204605F0C7F801208A
:10D4E0001649087004E005F0A1F8012013490870FE
:10D4F0000C980088002808D1174801780C98018002
:10D5000015480078401C144908700020C043134996
:10D510008860A12080004860022001218140104ADB
:10D52000116000BF0699FEF7B5FF0220012181407E
:10D530000C4A116000BF002090E700008C280020FA
:10D540008828002082280020000500500025004087
:10D5500048290200FD040200842800200023004026
:10D5600080E200E000E100E070B5044600250648D6
:10D570000078012801D0042504E00448047002204A
:10D5800003F0B0FE284670BD8C28002080280020C3
:10D59000F8B505460C462078001D1F2801DD0C203B
:10D5A000F8BD684679DF0646002E01D03046F7E721
:10D5B00003212278501C2070A95419212278501C74
:10D5C0002070A954207841196846008805F06EF84B
:10D5D0002178401820700020E2E77047F3B593B03F
:10D5E0000D460021129111911398002814D0139820
:10D5F000FFF7EDFB0446002C02D0204615B0F0BD2D
:10D6000012AA09A91398FFF747FB0446002C01D082
:10D610002046F3E709AE00E00026002D13D028468F
:10D6200004F0D2FB0446002C01D02046E6E711AA04
:10D6300001A92846FFF730FB0446002C01D0204604
:10D64000DCE701AF00E0002710A803793A46017A31
:10D65000304672DFD2E70000F8B504460F461546A3
:10D660001E46002C01D0002D01D10E20F8BD002057
:10D6700048490870484806604849069808602422CE
:10D6800029464748FEF78CFD00F0B0F94548464969
:10D6900008604648886030214548FEF79AFD2078AA
:10D6A00043490870A0788870E078C8706078487046
:10D6B000626920694A6108610846E268A168C2603F
:10D6C0008160E269A169C2618161606A00281BD042
:10D6D00038483749486238498160606A008834496F
:10D6E000496A0880606A80883149496A88800020D8
:10D6F00005E0616A8968095C2F4A1154401C2C4975
:10D70000496A89888142F4D8A06A002824D02B492C
:10D710002B4881602649886228492548806A8160B3
:10D72000A06A80882249896A8880A06A0088204986
:10D73000896A0880002005E0A16A8968095C1F4A9F
:10D740001154401C1A49896A89888142F4D82C20D6
:10D75000015D174820300173206A00280BD019485A
:10D7600013490862206A4088096A4880206A008854
:10D770000F49096A08806068002804D012480C49E3
:10D7800048606068486039460948FFF727FF009005
:10D7900000986BE7442800203C2800204028002007
:10D7A000E82C00201C2D00200C2D00203C2D0020FA
:10D7B000B82C00205C2D0020682D0020942D002026
:10D7C000882D0020482800204C28002070B50446F1
:10D7D0002088102804D0112809D0192879D11DE0FB
:10D7E000207D012802D1A0883B49088072E00020FA
:10D7F0003A490870A0883849098888420DD101202B
:10D8000000F02CF90546002D07D0354800680028A7
:10D8100003D028463249096888475BE0A079002890
:10D8200056D130480078012806D0022816D00328A7
:10D8300026D004284AD138E02BA0FEF783FF02202F
:10D8400000F00CF90546002D07D025480068002897
:10D8500003D0284622490968884738E02EA0FEF701
:10D8600071FF032000F0FAF80546002D07D01C4890
:10D870000068002803D0284619490968884726E02F
:10D880000320324908703248FEF75CFF042000F0A4
:10D89000E5F80546002D07D011480068002803D0A0
:10D8A00028460F490968884711E000202749087079
:10D8B00028A0FEF747FF37480068002804D0234817
:10D8C000007834490968884701E002E000BF00BFE2
:10D8D00000E000BF00BF70BD4E280020452800209A
:10D8E00040280020442800205B4144565D3A2054E3
:10D8F000696D6564206F75742066726F6D20646950
:10D9000072656374656420616476657274697369B5
:10D910006E672E0D0A0000005B4144565D3A2054AC
:10D92000696D6564206F75742066726F6D2064691F
:10D9300072656374656420736C6F772061647665CB
:10D9400072746973696E672E0D0A00003828002012
:10D95000882902005B4144565D3A2054696D656434
:10D96000206F75742066726F6D20736C6F77206105
:10D9700064766572746973696E672C2073746F7056
:10D9800070696E67206164766572746973696E6729
:10D990002E0D0A003C28002070B504460025022CFC
:10D9A00002D0032C18D100E000BF0D4800780028F9
:10D9B00011D000200A4908700A48007800F04EF89B
:10D9C0000546002D07D008480068002803D02846E7
:10D9D00005490968884700E000BF00BF70BD00002E
:10D9E00030280020442800204028002010B50721BE
:10D9F0000148FEF7EEFB10BD3128002010B513489A
:10DA0000007801281FD11248007800281BD1114846
:10DA10000078002805D074DF0446002C01D0204691
:10DA200010BD01200A4908700A48007800F016F875
:10DA30000446002C07D008480068002803D0204680
:10DA40000549096888470020EAE70000E82C002023
:10DA500045280020442800204028002030B587B009
:10DA60000546AB48057000200090684603F00CFDA9
:10DA70000446082C02D10020009004E0002C02D0C3
:10DA8000204607B030BD0098002804D00120A149ED
:10DA900008700020F5E7FFF7A9FF9F4840780028AD
:10DAA00003D09B480078012807D09B488078002845
:10DAB00012D09748007802280ED1984800680028B4
:10DAC00007D00120964908700820944909688847C2
:10DAD00002E00020924908708D48007801280BD19F
:10DAE0008D484078002804D08E4803F04FFC002871
:10DAF00002D10220864908708548007802280BD19F
:10DB000085488078002804D0864803F03FFC002830
:10DB100002D103207E4908707F48007B002806D18F
:10DB20007B480078032802D10420794908707A489C
:10DB3000007E002808D176480078042804D100200F
:10DB4000734908707849087074480068002817D035
:10DB50006F480078032803D06D48007804280FD15F
:10DB60006D48007800280BD070480078002807D155
:10DB700001206F490870072068490968884702E05A
:10DB800000206B490870182101A8FEF722FB002134
:10DB900068460171002002906846017300200490DD
:10DBA0005B480078012806D0022814D0032829D029
:10DBB00004287DD15CE05FA0FEF7C4FD5948401EFB
:10DBC00002900121684601710021C18281820120F9
:10DBD0005549087085E057A0FEF7B4FD5148401E36
:10DBE00002900121684601714B48008981B2684664
:10DBF000C1824948808881B26846818202204A49B0
:10DC000008706EE04448808A81B26846C18242480A
:10DC1000008A81B268468182504804F058FE00288C
:10DC20001FD03D48007800281BD0404800780028CD
:10DC300017D10220694608734848049004204849D7
:10DC4000C87000214648FFF7C9FC0446002C01D0EB
:10DC5000204616E705203449087042A0FEF772FD01
:10DC600005E00320304908704CA0FEF76BFD38E05A
:10DC70002948808B81B2684681822748008C81B216
:10DC80006846C182354804F022FE002821D022488F
:10DC9000007800281DD025480078002819D10220DE
:10DCA000694608732D48049004202D49C87000E08F
:10DCB00016E000212A48FFF791FC0446002C01D011
:10DCC0002046DEE60620184908703EA0FEF73AFD21
:10DCD00005E004201449087048A0FEF733FD00E079
:10DCE00000BF00BF0A480078002806D001A873DFF3
:10DCF0000446002C01D02046C3E6084800680028EE
:10DD000004D0094800780549096888470020B8E62A
:10DD10004428002030280020E82C00203C28002047
:10DD200047280020322800203828002045280020DD
:10DD3000462800205B4144565D3A2053746172745A
:10DD4000696E6720646972656374206164766572C8
:10DD5000746973656D656E742E0D0A000C2D0020BC
:10DD6000B82C00205B4144565D3A205374617274B4
:10DD7000696E672066617374206164766572746988
:10DD800073656D656E74207769746820776869744F
:10DD9000656C6973742E0D0A000000005B414456E7
:10DDA0005D3A205374617274696E672066617374A2
:10DDB000206164766572746973656D656E742E0D8D
:10DDC0000A0000005B4144565D3A2053746172744E
:10DDD000696E6720736C6F77206164766572746911
:10DDE00073656D656E7420776974682077686974EF
:10DDF000656C6973742E0D0A000000005B41445687
:10DE00005D3A205374617274696E6720736C6F772A
:10DE1000206164766572746973656D656E742E0D2C
:10DE20000A00000070B505461C2229461448FEF77A
:10DE3000B7F9002013490870286800280BD0082281
:10DE400011482968FEF7ACF90F487ADF0446002C28
:10DE500008D0204670BD0C487BDF0446002C01D062
:10DE60002046F7E70020C043084908800020084901
:10DE70000870084A00210848FFF778F9EAE700002F
:10DE8000B42D002068280020502800205A280020A7
:10DE900058280020DD2602006428002010B5044622
:10DEA0002088102806D0112808D012280ED050281B
:10DEB00010D107E0204603F03BF90CE0204603F0C8
:10DEC00095F908E0204603F033FA04E0204603F019
:10DED00023F900E000BF00BF10BD000010B50446EC
:10DEE000204601F01DFB2046FFF7D8FF204600F03A
:10DEF000FDF8204603F0D0F82146034800F03CF836
:10DF00002046FFF763FC10BD202900207CB50446A5
:10DF10000D460020009001900121684601800021FB
:10DF2000418001956189608A6A46A5DF7CBD000059
:10DF3000F8B504460D462868002801D10720F8BD31
:10DF4000286820606868606000BF012168468170B1
:10DF50000849018000BF2246083269460120A0DF3F
:10DF60000646002E01D03046E9E729462046FEF756
:10DF700095FFE4E70318000070B505460C462088BD
:10DF8000102804D0112807D017280FD109E0214606
:10DF9000284603F0EBF80AE02146284603F048F94A
:10DFA00005E02146284603F066F800E000BF00BF08
:10DFB00070BD00007CB500BF002348222449082022
:10DFC00003F0C2FE054600BF2E46002E06D000BF5D
:10DFD000002211463046FFF775F800BF00BF00BFB2
:10DFE0000020009001900190012069460870684669
:10DFF00060DF044600BF2546002D06D000BF00228A
:10E0000011462846FFF75EF800BF00BF114803F035
:10E010008FFE044600BF2546002D06D000BF00221B
:10E0200011462846FFF74EF800BF00BF0A4803F02C
:10E03000BFFE044600BF2546002D06D000BF0022CB
:10E0400011462846FFF73EF800BF00BF7CBD000028
:10E05000642C0020DDDE0100792102007CB504463D
:10E06000A1786A460D4803F027FA0546002D13D122
:10E0700061781C2251430A4A88181C231A466946B3
:10E0800003F056FB0748807A800007490A5821466A
:10E0900068469047054600BF7CBD00006C28002004
:10E0A000B02E0020FC2E00202429020070B5054669
:10E0B0000C4600260B480560002C09D0204603F0D2
:10E0C0008BFE064600BF002E01D0304670BD00BF5B
:10E0D00005480068002802D1FEF783FE0646304658
:10E0E000F4E70000282800202C28002070B5054601
:10E0F0002888102802D0112832D118E01A48006868
:10E1000000280ED100F070FF044600BF002C07D09D
:10E1100016480068002803D020461449096888473B
:10E1200000BF11480068401C0F49086019E00E4804
:10E130000068401E0C4908600846006800280ED19F
:10E14000FEF74FFE044600BF002C07D007480068CA
:10E15000002803D0204605490968884700BF00E031
:10E1600000BF00BF70BD00002C2800202828002020
:10E1700010B5032000F0EAFB044600BF002C03D0DA
:10E18000062C01D0204610BD00BF0020FBE7000098
:10E19000F3B581B006460025002400E0641C042C81
:10E1A00004D2A00029490858B042F7D1042C42D229
:10E1B0000298002825D0012802D002283AD133E065
:10E1C0006000201822490D5C60002018401840783B
:10E1D00000280ED01F4800680A22504301461E4AFC
:10E1E0001E480068FFF774F80746002F01D11A484F
:10E1F00006706000201816494018807818490855A4
:10E2000018E016480068FFF799F81548005D6100AE
:10E2100061180F4A89188978884204D16000201853
:10E2200011464018857805E060002018084940181C
:10E23000457800BF00BF002D07D00A4800680028BD
:10E2400003D02846074909688847FEBDE428020034
:10E25000AC2C002008280020202800201C280020AA
:10E26000212800201828002010B50246042A0FD2C9
:10E27000094B1B69D8439300084CE45C0123A3407D
:10E280000340002B01D0012300E000230B7001E0CC
:10E2900000200870002010BD00050050E428020096
:10E2A00070B50546042D06D0072D18D00A2D28D1AB
:10E2B00003F0FAFC26E013211348008876DF0446B9
:10E2C000082C0BD000BF2646002E06D000BF00222F
:10E2D00011463046FEF7F6FE00BF00BF12E0FFF722
:10E2E0008DFB0446082C0BD000BF2646002E06D01E
:10E2F00000BF002211463046FEF7E4FE00BF00BF1B
:10E3000000E000BF00BF70BD0228002030B503460A
:10E310000020042B24D2012A07D1012903D11C4655
:10E320000D34E4B200E00024224600290FD0012978
:10E3300002D0022911D104E05C001C19094D2A55B4
:10E340000DE05C001C19074D6419627007E05C0069
:10E350001C19044D6419A27001E0072000BF00E001
:10E36000072030BDAC2C002070B5044600250648BF
:10E370000078C007C00F002803D0204600F070F8D6
:10E380000546284670BD00000C280020F7B505465C
:10E390000E46002427480660274805602749029852
:10E3A000086002202840002822D0002706E0012231
:10E3B00011463846FFF7AAFF04467F1C042F01D2FE
:10E3C000002CF4D0002C05D1720804211C48FEF763
:10E3D00027FE0446002C02D1FEF70CFE0446002C5A
:10E3E00005D1184A00211848FEF7C0FE044600BFB8
:10E3F000E807C00F00280AD000BF0F2040051349CE
:10E4000088600020C86000BF0F2040058861002C94
:10E4100005D10F4A00210F48FEF7A8FE0446002C44
:10E4200005D10D4A01210D48FEF7A0FE0446204605
:10E43000FEBD0000082800200C280020182800201D
:10E44000F4280200A9E901001C2800200005005062
:10E45000CD07020010280020D1CF01001428002091
:10E46000F8B50446002500262300FEF77BF9180DB9
:10E4700018195C9FF7F5F4F3F2F1F0EFEEEDECEB29
:10E48000EAE9E8E7E6E5E4E300BF0B204005FB49E5
:10E4900088600020C86000BFF94804704FE200BFE8
:10E4A00000BF05208005F54988600020C86000BFD6
:10E4B000084640680F2149054840012149050840A8
:10E4C00000280FD000BF0846EC4988600020C860D3
:10E4D00000BF022C02D1E120C00001E07D204001FC
:10E4E00006460EE000BF01204005E449C860002058
:10E4F000886000BF022C01D1C82001E0FF209130CC
:10E500000646DF48047064213046FDF71FFEDD49F2
:10E5100009684843074600223946DB480068FEF791
:10E52000D7FE05460BE200BF05208005D349886071
:10E530000020C86000BF084640680F2149054840D8
:10E5400001214905084000280FD000BF0846CB49EB
:10E5500088600020C86000BF032C02D11920400150
:10E5600001E07D20400106460EE000BF012040058D
:10E57000C249C8600020886000BF032C01D1C820B8
:10E5800001E0FF2091300646BD480470642130460A
:10E59000FDF7DCFDBB4909684843074600223946C0
:10E5A000B9480068FEF794FE0546C8E100BF0520A3
:10E5B0008005B24988600020C86000BF08464068F6
:10E5C0000F214905484001214905084000280FD086
:10E5D00000BF0846A94988600020C86000BF042C1D
:10E5E00002D17D20400101E07D20400106460FE080
:10E5F00000BF01204005A149C8600020886000BF1D
:10E60000042C02D1FF20913001E0FF20913006461A
:10E610009B48047064213046FDF798FD99490968CC
:10E62000484307460022394697480068FEF750FEE7
:10E63000054684E182E176E174E161E14EE13BE18E
:10E640002FE1F4E0F2E0F0E0EEE0ECE0E2E0C9E03F
:10E65000B2E099E082E06FE042E0FFE700BF052012
:10E660008005864988600020C86000BF0846406871
:10E670000F214905484001214905084000280ED0D6
:10E6800000BF08467D4988600020C86000BF052C97
:10E6900001D1C82001E07D20400106460EE000BF08
:10E6A000012040057549C8600020886000BF052C26
:10E6B00001D1C82001E0FF20913006467048047067
:10E6C00064213046FDF742FD6E490968484307461C
:10E6D000002239466C480068FEF7FAFD05462EE137
:10E6E00000BF05208005654988600020C86000BF24
:10E6F000084640680F214905484001214905084066
:10E70000002806D000BF08465C4988600020C86029
:10E7100007E000BF012040055849C860002088601C
:10E7200000BF5748047057480022016856480068E7
:10E73000FEF7CEFD054602E100BF052080054F49EA
:10E7400088600020C86000BF00BF01204005C8608D
:10E750000020886000BF4A480470F0E000BF4749CD
:10E760004868012189058143444A91600121890556
:10E770000140D16000BF4348002201684248006860
:10E78000FEF7A6FD0546DAE000BF3C4948680121D6
:10E7900089058143394A9160012189050140D16091
:10E7A00000BF38480068820081180022364800689F
:10E7B000FEF78EFD0546C2E000BF304948680121E2
:10E7C000890581432D4A9160012189050140D1606D
:10E7D00000BF2C48002201682B480068FEF778FD36
:10E7E0000546ACE000BF2549486801218905814301
:10E7F000224A9160012189050140D16000BF214872
:10E8000000688200811800221F480068FEF760FD42
:10E81000054694E000BF0F2040051849C86000205D
:10E82000886000BF8BE000BF00BF00BF00BF17487B
:10E830000068FEF783FD05461120061B002E27D039
:10E84000002D25D1012E10D9C8217143084664211D
:10E85000FDF77CFC0B49096848430746002239460E
:10E860000A480068FEF734FD054600BF0120C005D8
:10E870000249C8600020886012E0000000050050D6
:10E880000428002008280020102800201428002038
:10E8900000BF0120C0052B4988600020C86000BF70
:10E8A0004DE000BF0F204005264988600020C86069
:10E8B00000BF2548047042E000BF072080052149C1
:10E8C00088600020C86000BF00BF01204005C8600C
:10E8D0000020886000BF1C48047030E000BF0D209D
:10E8E0004005184988600020C86000BF00BF0120B3
:10E8F0008005C8600020886000BF134804701EE0D7
:10E9000000BF0320C0050F4988600020C86000BF19
:10E9100000BF03204005C8600020886000BF0A488F
:10E9200004700CE000BF00BF0F2040050549C8601F
:10E930000020886000BF0448047000E000BF00BFF2
:10E940002846F8BD000500500428002070B5024696
:10E95000002021E08400124D2C59A400114D6419AF
:10E960002168012484401440002C01D0032400E0DD
:10E970000024234603252D040C46AC4321461C04E9
:10E9800021430524240707252D0264198500044E20
:10E990007559AD006151401C0428DBD3002070BDC7
:10E9A000E42802000007005010B504462078022138
:10E9B000FFF7EEFB10BD0000F8B50546154A1649F5
:10E9C0000320FFF7E3FC044600BF2646002E06D0D6
:10E9D00000BF002211463046FEF774FB00BF00BFA7
:10E9E00069460020FFF762FB044600BF2646002E62
:10E9F00006D000BF002211463046FEF763FB00BF81
:10EA000000BF68460078022801D1012000E0002004
:10EA10002870F8BDA1E20100CD0C00000021C9431F
:10EA20008200054B9950042804DB0B46011F024A63
:10EA30004432535470470000202F002001468800C4
:10EA4000014A105870470000202F0020F7B585B00C
:10EA50000B460020C0430490002A01D0002000E0B3
:10EA600004200390002A01D0042000E00920029035
:10EA700003991EE08800124C2058401C002817D132
:10EA80000846059C0093019246B20D4D24352E5543
:10EA900085000B4E009B7351019A002A04D166B287
:10EAA000051F074F44377E5500BF48B2049003E06E
:10EAB000491C02988142DDD300BF049808B0F0BD24
:10EAC000202F00200146014840567047442F002067
:10EAD000F0B587B03E480078142148433C49091DF1
:10EAE0004418E7680C21A06848433A494018008957
:10EAF00006900C21A068484336494018408905908B
:10EB00000C21A0684843334940184068049002F043
:10EB1000C5FD014602903846FDF718FB002901D1DA
:10EB2000012000E0002003900599069848430499CD
:10EB300046186088C019A188451800202649086039
:10EB40000398002804D002F0A9FD618888420AD009
:10EB50000398002804D0B54202D1A088002802D032
:10EB6000A06803280CD102F099FD014602903846B6
:10EB7000FDF7ECFA19490860032003F0C5F824E01A
:10EB800002F08CFD0190A188C8190199FDF7DEFA09
:10EB900088081349086002F081FD0146019028466B
:10EBA000FDF7D4FA002901D1012000E000200290F5
:10EBB000B54206D00298002803D1B1B2A8B203F042
:10EBC000F5FA022003F0A0F800BF07B0F0BD000086
:10EBD0006C2F002038300020A0280020A42800201E
:10EBE0009C28002010B508480078142148430649A5
:10EBF000091D44182078042802D000F0A5F801E08F
:10EC000003F048FA10BD00006C2F002010B50F482B
:10EC10000078142148430D49091D441860880C49A7
:10EC200008602078012804D0032805D0042809D1E1
:10EC300005E003F02FFA06E0FFF74AFF03E003F0D8
:10EC40003EFD00E000BF00BF10BD00006C2F0020A3
:10EC5000B028002010B503484078002801D0FFF705
:10EC6000D5FF10BD6C2F00200023142141430C4A16
:10EC700053541421414389184B80022314214143EA
:10EC800089188B600023142141438918CB6014211B
:10EC9000414389180B611421414389188B807047C7
:10ECA000702F0020FFB581B0064617461C484078FB
:10ECB0000A2830D01A4800781949497844180A2C93
:10ECC00000D30A3C142060431549091D0E5414203A
:10ECD000604340180761142060434118029805C83A
:10ECE000CA608860142161430D4A121D8918049876
:10ECF00048801421614389180A988880101F407841
:10ED0000401C111F487007480078002801D1FFF708
:10ED10007DFF002500E00425284605B0F0BD000079
:10ED20006C2F00209828002010B50020054908709D
:10ED30004870002403E02046FFF796FF641C0A2C6D
:10ED4000F9D310BD6C2F002010B5084800781422AC
:10ED50005043064A121D81180020FEF7DDF900F02D
:10ED600007F8002002F0D0FF10BD00006C2F00203B
:10ED700010B509490878FFF777FF07484078401E2B
:10ED80000549487008460078401CC0B208700A283F
:10ED900001D10020087010BD6C2F0020FEB51E4868
:10EDA0000068401C002834D01B48006824214843D8
:10EDB0001A4909684018456802F0CAFE01901848CF
:10EDC00004682146019803F01DFAC61C1548007816
:10EDD000002801D102F0CEFEAE4201D2284600E06A
:10EDE000304604192402240A20460F49086000BF57
:10EDF00002F0AEFE00900199009803F003FAC71CE0
:10EE00002046019903F0FEF9874201D903F0BEFBC9
:10EE100001E002F0CDFEFEBDE0280020D428002055
:10EE2000E4280020F8280020401501400146088809
:10EE3000062808DB08881922D201904205DD0888DF
:10EE4000104A904201D0072070474888062808DB06
:10EE500048881922D201904205DD4888094A90422B
:10EE600001D00720F0E70888064A904208D0488879
:10EE7000904205D008884A88904201DD0720E3E7E8
:10EE80000020E1E7FFFF0000F8B506460D461446F6
:10EE90002078801D1F2801D90C20F8BD3046FFF7CF
:10EEA000C5FF0746002F01D03846F6E70521227836
:10EEB000501C2070A95412212278501C2070A95493
:10EEC00022785119308803F0F1FB21784018207026
:10EED00022785119708803F0E9FB217840182070DE
:10EEE0000020DAE710B5044600BF00221146204694
:10EEF000FEF7E8F800BF10BD30B587B01C216846AA
:10EF0000FDF767F9002000900520C00301900F2055
:10EF1000000402900321684601730021C18101743D
:10EF20000A4805900A4806906846FEF77BFF0446AB
:10EF300000BF2546002D06D000BF002211462846FE
:10EF4000FEF7C0F800BF00BF07B030BDE5100200FB
:10EF5000E5EE010038B51F4801F076FB002829D105
:10EF60001D48007800280AD01C484069002820D09D
:10EF700000200090194841696846884719E0184800
:10EF80000078002802D11548456801E013488568DB
:10EF90000022294613480068FEF79AF90446002C1F
:10EFA00007D00E488069002803D00C4881692046AC
:10EFB00088470AE009484069002806D001200090EF
:10EFC000064841696846884700BF0020024908702A
:10EFD00038BD00005C28002068280020B42D0020E7
:10EFE000582800206428002010B50122002108467E
:10EFF000FFF78CF9044600BF002C03D0072C01D08A
:10F00000204610BD00BF072202210120FFF77EF934
:10F01000044600BF002C03D0072C01D02046F0E7A7
:10F0200000BF042202210020FFF770F9044600BF50
:10F03000002C03D0072C01D02046E2E700BF0020BF
:10F04000DFE7000070B503460C460820002115E0FC
:10F050000C254D430B4EAD19AD7A2540002D0CD03B
:10F06000094DAB4205D00C254D43AD192D899D426C
:10F0700002D11160002003E00520491C0029E7D0DF
:10F0800000BF70BDF02E0020FFFF000010B5044649
:10F0900001210C2060430A4A80188172891E0C20CD
:10F0A000604380180181FF210C2060438018C172E9
:10F0B0000C21614388180721FDF78BF810BD000073
:10F0C000F02E002010B514484068C105C90D002974
:10F0D00020D00A46103A50B200280DDA0E4B1C33ED
:10F0E0000407240F083CA408A4001B598407E40E5D
:10F0F000E3401B069B0F0BE0084B032424021B1963
:10F100008408A4001B598407E40EE3401B069B0FF0
:10F11000D8B210BD0420FCE700ED00E000E100E003
:10F1200010B51C4800680821084000282FD11A4853
:10F130000068401C1849086018480068002803D07F
:10F14000042003F00FF824E001F0E2FA002803D0D5
:10F15000022003F007F81CE011480068002813D0D3
:10F160000C480078C007C00F002809D10948006882
:10F170000121084307490860002002F0F3FF08E07E
:10F18000032002F0EFFF04E002F0C0FF01E002F014
:10F19000CDFF10BDB4280020A42800209C2800200A
:10F1A000A028002010B50C4800680821084000285D
:10F1B0000FD10948006802210840002805D0064800
:10F1C00000680121084304490860022002F0CAFFD8
:10F1D00001E002F0ABFF10BDB4280020F8B5002517
:10F1E00035E0E8001C49096844182178012088406E
:10F1F00006461A4800683040002826D017480068A4
:10F20000B04316490860207801F00AFE07462178CD
:10F210000120884012490968084022783946914007
:10F22000884211D16078012800D100E000207840A8
:10F230000121484000906068002804D0009BD9B2AA
:10F2400020786268904700BF00BF681CC5B20548BF
:10F2500000788542C5DBF8BDB8280020CC28002006
:10F26000C8280020BC280020FEB504460E46A17820
:10F270006A46284802F020F90546002D49D16078F9
:10F280000C21484324494018807A402108404028F6
:10F2900001D0022E01D1214F04E0012E01D1204FD7
:10F2A00000E0204FA0781C2250431F4A8118002301
:10F2B0001C226846B8470546002D1AD1022E18D0E8
:10F2C00060780C21484314494018807A40218843D3
:10F2D00061780C225143104A8918887260781C2288
:10F2E0005043124A81181C231A466846B8470546FF
:10F2F00000BF022E0DD020780C2148430C49401845
:10F30000807A80000B490A58214668469047054696
:10F3100000BFFEBD6C280020F02E0020711A0200F4
:10F320004519020029200200EC2D0020B02E0020FB
:10F33000FC2E002014290200F8B505460E461B4F8E
:10F3400000242EE01C20604319494018807EFF28CD
:10F3500026D13078022814D01C2060434018807ECB
:10F36000022188431C216143114A891888761C2197
:10F37000614389180846103007223146FCF710FF18
:10F380000BE01C2060430A494018807E4108490078
:10F390001C206043064A801881762C70002702E00A
:10F3A000641C072CCED300BF3846F8BD4380000054
:10F3B000EC2D0020F8B505460E46174605200090B6
:10F3C00000241BE0002D06D11C2060430E4940188C
:10F3D000008BB8420DD0002D0FD01C2161430A4A8A
:10F3E00089180846103007222946FCF7FDFE002840
:10F3F00003D134600020009002E0641C072CE1D3AC
:10F4000000BF0098F8BD0000EC2D00207CB505463B
:10F41000A9B26A46084802F04FF80446002C09D108
:10F420007421684602F09AF80446002C02D128465E
:10F4300001F0BAFF20467CBD6C280020F8B50646D6
:10F440000F46144600BF2546002D06D000BF0022FF
:10F4500011462846FDF736FE00BF00BF0020F8BD6C
:10F460007FB50546039502F01FF9044600BF264606
:10F47000002E06D000BF002211463046FDF722FEC6
:10F4800000BF00BF03A800F075FB044600BF26467E
:10F49000002E06D000BF002211463046FDF712FEB6
:10F4A00000BF00BF052101A80130FCF792FE6846AD
:10F4B000407941084900491C684641714079022160
:10F4C000884301466846417140791C2188430146C2
:10F4D0000C316846417140792021884301466846D5
:10F4E0004171072181711021C1710B4800900121E8
:10F4F000684601716946094800F0E2FC044600BF15
:10F500002646002E06D000BF002211463046FDF7E9
:10F51000D9FD00BF00BF7FBD3DF4010000280020E1
:10F52000F0B58FB00446FF200D9000260020079014
:10F5300000BFFE480078002801D10FB0F0BD00BF29
:10F5400000BFFB480068002800D1F6E700BF0CA808
:10F5500000F002FB054600BF2F46002F06D000BF7B
:10F56000002211463846FDF7ADFD00BF00BF002068
:10F5700008900025201D0A902A2168468185FF21D8
:10F5800008A881740021017400200E9020881028A2
:10F5900013D0A0880EAA0221FFF754FD0546002DC6
:10F5A0000BD10C210E984843E2494018C17A08A8B3
:10F5B00081740E98C1B208A84174208817287BD0A6
:10F5C00008DC10280DD011287CD0132876D0142800
:10F5D00075D1B5E0182873D01C2872D05228F7D105
:10F5E00080E20EAF3A460121D348FFF72BFD009091
:10F5F0000098002807D102210C2238685043CD4AD8
:10F600008018817201E00420009000980546002DCA
:10F6100051D10126112108A801710E98C1B208A884
:10F620004174A1880C220E985043C24A801801816F
:10F6300002210C220E985043BE4A801881720C227F
:10F640000E995143BB4A88180722A11DFCF7A8FD5B
:10F65000607D304000280AD0607D4008B749085CD2
:10F66000FF280AD0607D4008085C0D9005E0B24A92
:10F670000DA9A01DFFF79EFE0546002D1BD10D987C
:10F68000C1B20C220E985043AA4A8018C1720C21B4
:10F690000E98484311464018807A082108430C22EE
:10F6A0000E995143A34A8918887208A90D98887445
:10F6B0000CA8FEF7D3FC24E2FAE003E085E01FE2A9
:10F6C000ADE118E20C210E9848439A494018807A1F
:10F6D000022188430C220E995143964A8918887258
:10F6E0000C210E98484311464018807A08210840A2
:10F6F00008280ED10C210E98484311464018807AF4
:10F700008021084080280FD100210CA8FFF7ACFD14
:10F710000AE008A8807CFF2806D008A9887C01F0B0
:10F7200043FEFF2008A9887410210C220E98504334
:10F73000804A801881720126122008A90871E0E130
:10F740000C210E9848437B494018C07AFF2823D1EA
:10F75000E2890DA90020FFF72DFE0546002D1BD1E3
:10F760000D98C1B20C220E985043724A8018C17293
:10F770000C210E98484311464018807A082108430E
:10F780000C220E9951436B4A8918887208A90D986A
:10F7900088740CA8FEF762FC0C210E98484365495A
:10F7A0004018C07AFF2805D01C210E9848436449B0
:10F7B000401807901C230E995943624BCA18A08821
:10F7C0000023079982DF05469BE1132008A90871F1
:10F7D0000C210E98484357494018807A0421084369
:10F7E0000C220E995143534A8918887201260C2124
:10F7F0000E98484311464018C07AFF2819D10C22B0
:10F800000E9850430A4681180DA8FFF795FD05464E
:10F81000002D0BD108A90D9888740D98C1B20C2247
:10F820000E985043434A8018C1721DE00895012686
:10F830001AE0162008A9087124220E995143424A61
:10F840008918084608301A21FCF7C3FC0C210E98D1
:10F85000484338494018807A402108430C220E99C9
:10F860005143344A89188872002004900C210E9864
:10F87000484330494018C07A1C2148433149411857
:10F880000591002106911C210E9848432C494018EF
:10F890000190002002900390A08801AB244A121D21
:10F8A00000217FDF0546002D01D00895002628E1C4
:10F8B0001F48407A400840001D4948720C210E98AC
:10F8C00048431C494018807A042188430C220E9931
:10F8D0005143184A89188872142008A90871012612
:10F8E000A07900280AD00C220E995143114A891898
:10F8F000C87AFFF78BFDA07908908FE0E079400788
:10F90000C00F00287ED008A8807CFF287AD00C2168
:10F910000E98484307494018807A082108430C2272
:10F920000E995143034A891888720FE07828002005
:10F93000FC2E0020F02E0020FFFF00007928002080
:10F94000B02E0020EC2D0020CC2E0020E07A800785
:10F95000C00F00280FD008A8807C1C21484377499D
:10F960004018807E4108490008A8807C1C22504332
:10F97000724A801881760C210E98484370494018CD
:10F98000C07AFF284AD00C210E9848436C49085C85
:10F99000022820D00C230E9A5A430B46D11808AAED
:10F9A000927C1C235A43654BD21810461030072214
:10F9B000FCF7F6FB08A8807C1C2148435F494018EF
:10F9C000807E0221884308A9897C1C2251435B4A1E
:10F9D000891888761EE01C210E9848435949401822
:10F9E000418A08A8807C1C225043544A8018018315
:10F9F00008A8807C1C21484311464018807E41089D
:10FA0000490000E00AE008A8807C1C2250434B4AD1
:10FA10008018817601210CA8FFF726FC71E0A079FF
:10FA2000000901283DD1A0790007000F012838D135
:10FA30000C210E98484342494018807A082108401A
:10FA400008282ED124220E9951433F4A89180818BC
:10FA50001A21FCF7BEFB162008A908710C210E988C
:10FA6000484337494018807A202108430C220E99D8
:10FA70005143334A891888720C210E984843114625
:10FA80004018807A402108430C220E9951432C4A99
:10FA9000891888722D48407A022108432B49487200
:10FAA0001CE00C210E98484325494018807A80219B
:10FAB00008430C220E995143214A89188872152057
:10FAC00008A908712148807A8000214A11580CA8A1
:10FAD00088470546002D01D01E4808900020089058
:10FAE00001260EE01948807A8000194A11580CA8A6
:10FAF0008847089005E0132008A90871012600E056
:10FB000000BF00BF002E16D009A90CA8089AFDF767
:10FB1000F5FA08A8007912280DD100BF0C210E9823
:10FB2000484307494018807A012802D00E98FFF711
:10FB3000ADFA00BF00BF00BFFFE40000EC2D0020C5
:10FB4000F02E0020B02E0020CC2E0020FC2E002015
:10FB500034290200418000000146002901D10448F7
:10FB60007047FF20087048708870C8700020F7E761
:10FB70000E8000007FB50646002E02D1374804B043
:10FB800070BD00240FE000BF00210C206043344A08
:10FB900011500C206043801841720C206043801883
:10FBA000817200BF641C002CEDD0002403E02046CD
:10FBB000FFF76CFA641C002CF9D024212948FCF7CB
:10FBC00008FB002406E0204601F0EEFBFF2026495A
:10FBD0000855641C072CF6D37421684681810721DF
:10FBE000C18122480290224902A801F01FFE054669
:10FBF000002D30D101201F4908703078002821D114
:10FC000000241CE0A1B26A46194801F055FC0546E3
:10FC1000002D0FD11C216143174A881800231C2294
:10FC2000694601F085FD0546002D07D000201149E9
:10FC3000087006E000200F49087002E0641C072CE1
:10FC4000E0D308E06A469089D289504381B20848DF
:10FC500001F084FC0546284691E700000E80000074
:10FC6000FC2E0020CC2E0020792800207DFC0100F5
:10FC70006C28002078280020EC2D0020FFB591B0E2
:10FC80001D4600BF84480068002801D115B0F0BDB2
:10FC900000BF1A98742800D9F8E7012007900DA832
:10FCA000FFF75AFF064600BF3746002F06D000BFB9
:10FCB000002211463846FDF705FA00BF00BF0021BB
:10FCC00008A8017501760C951A980B90002712E090
:10FCD000B9B208AA714801F0EFFB0646002E09D11F
:10FCE000082208A91198FCF77FFA002802D108A978
:10FCF0008F7502E07F1C072FEAD300BF08A8807D24
:10FD0000FF2877D0129803280AD11A98742803D1B3
:10FD1000202008A9087698E0402008A9087694E0F9
:10FD20005F49681A1C21FCF711FA0446072C1DD202
:10FD30000AA80F901398002810D108A9887D0121E6
:10FD40008140584A12681140002901D0012100E089
:10FD50000021002902D10020079076E008A9887DC3
:10FD600002F0B2FC202008A908766EE04E49681A1D
:10FD70001C21FCF7EBF90446002C1AD10AA80F90BD
:10FD8000202108A801764475002004904749059178
:10FD90001C20604344494018019008A8807D1C2124
:10FDA00048433F494018029001A80C9018200B903E
:10FDB0004BE03F49681A2421FCF7C8F90446002C9F
:10FDC00019D1302108A8017644750121C1750C2094
:10FDD000604338494018807A02210840022834D014
:10FDE00008A9497D24225143314A88182421FCF76F
:10FDF000F0F92AE04DE000200790402008A908769D
:10FE00002D48854204D103201290012007901CE068
:10FE100008A8807D800029490858A84215D10120F2
:10FE200007900AA80F9000200CE008A98A7D0C21F9
:10FE30004143204BC918C97A8A4202D108AA507599
:10FE400002E0401C0028F0D000BF0798012820D114
:10FE50001298032806D108A9087E0321084308A99F
:10FE600008760FE01298022806D108A9087E012121
:10FE7000084308A9087605E008A9087E022108437E
:10FE800008A908760AA80F900EA90DA8139AFDF7E5
:10FE900035F900BFFAE60000FC2E00206C28002097
:10FEA000EC2D002074280020B02E0020082F002008
:10FEB000CC2E0020F02E002044290200D02D00205E
:10FEC00070B505460C4600BF29480078002801D1CE
:10FED000284870BD00BF002D02D12648801DF8E7DC
:10FEE000002C02D12348801DF3E72068002802D1AE
:10FEF0002048801DEDE720480068002834D11E49C5
:10FF0000206808600522611D1B48001DFCF748F9A8
:10FF10002079194988720846007A40084000087222
:10FF20000846007A02218843801C1349087208465B
:10FF3000007A04218843104908720846C0794008B5
:10FF40004000401CC8710846C07902218843801CCB
:10FF50000949C8710846C079042188430649C87117
:10FF600000202870002601E0024E361F3046B0E720
:10FF70007828002008800000FC2E0020014614484C
:10FF80000078144A127890421DD011480078401C25
:10FF90000F4A107010460078022801D1002010701E
:10FFA0000B48007880000C4A105808600B4A08681B
:10FFB00012688018094A1060104600680002000AA2
:10FFC0001060012070470020086000BFFAE70000C1
:10FFD000F0280020F1280020E8280020E428002054
:10FFE00010B50D48006808210840002810D10B48C2
:10FFF0000068401C0949086000F08AFB002802D113
:020000040002F8
:10000000FEF7F0FD06E00648007801F07DFE01E015
:1000100000F064FD10BD0000B4280020A4280020DA
:1000200098280020F0B50346002426E0164E3668D6
:1000300024277E43154F3F68F01946689E4203D936
:100040004668F61A46601DE046689B1B46683419F0
:100050000026466006750C4E35680B4F066A3E60FA
:100060000669002E08D00E193602360A8660066927
:10007000C66016680662156000BF03480068401C31
:100080000028D3D100BFF0BDE0280020D4280020F4
:1000900010B50446002C02D0112C08D100E00AE073
:1000A00006480068082108430449086003E0204628
:1000B000FDF74AF800BF00BF10BD0000B4280020C3
:1000C00010B50C480068401C0A49086003280DD090
:1000D00009480078022804D00748007801F014FE8F
:1000E00007E00648007802F03DF802E00D20FDF739
:1000F0002BF810BDA828002098280020992800205F
:1001000010B50A480078012804D0022808D0032836
:1001100009D102E001F0C4FF06E0FFF761FF03E050
:1001200002F014F800E000BF00BF10BD98280020C6
:1001300070B50446204628DF0546FFF7A9FF70BDCD
:10014000F8B504460D46164632462946204629DFB4
:100150000746FFF79DFFF8BD70B504460D46E0B2B7
:10016000FDF702FA204670BD3EB500BF6846007834
:1001700001090901491C009168460078F021884373
:100180001030009000BF132216A168467CDF0446A1
:1001900000BF2546002D06D000BF0022114628468C
:1001A000FCF790FF00BF00BF002001900290FF21EC
:1001B0009131684681804900C18000210181FF2181
:1001C0009131418101A87ADF044600BF2546002D08
:1001D00006D000BF002211462846FCF773FF00BF7F
:1001E00000BF3EBD537570657242696B65506572A4
:1001F0006970686572616C000146002070470246B4
:10020000002070470246002070470000F8B5054600
:1002100000270020009000266878242148433349B5
:1002200040184068002827D068780C21484330499E
:100230004018807A8021084080281DD168780C21E0
:1002400048432B494018807A40210840402813D069
:1002500068782421484325494018074608376878BC
:100260002421484321494018808880B20090687852
:10027000242148431D490E5869780C2251431C4AD9
:100280008918088933463946009AA9DF04460B2CA1
:100290000BD1012669780C225143154A8918088927
:1002A00033463946009AA9DF0446002C00D0114C91
:1002B000012E18D169780C2251430D4A89180889FA
:1002C0000D4A0C21A7DF0446002C0CD00B488442B9
:1002D00008D0082C06D0801C844203D0112C01D0F9
:1002E000002400E0034C2046F8BD0000CC2E002086
:1002F000F02E002041800000FFFF000002300000CF
:1003000070B505460C466178242251430D4A881881
:1003100038232422294601F00BFA0646002E0FD17D
:10032000607824214843074940184068401C002851
:1003300006D10021607824225043024A801841608F
:10034000304670BDCC2E0020F3B589B00C46032793
:100350001A20089061780C2251432E4A8918088986
:100360003B4608AA01A9AADF0646002E4FD16178B4
:1003700024225143284A89180846083069460A8CC5
:1003800001A9FBF731FF002812D160780C21484306
:1003900020494018807A02210840022837D061782D
:1003A000242251431C4A88182421FBF712FF2EE017
:1003B000607824214843184940184068002801D03B
:1003C000164D00E0164D60782421484312490F5025
:1003D0006946098C6078242250430F4A8018416096
:1003E0006178242251430C4A89180846083069462E
:1003F0000A8C01A9FBF7D4FE607824225043064AF8
:100400008118382324220998A847064600BF0020F7
:100410000BB0F0BDF02E0020CC2E0020711A02008F
:100420004519020070B505462846FFF7EFFE044661
:10043000002C02D100BF00BF0446204670BD70B53D
:1004400005460E4631462846FFF75AFF0446002C63
:1004500002D100BF00BF0446204670BD70B50546FE
:100460000E4631462846FFF76FFF0446002C02D1A6
:1004700000BF00BF0446204670BD0000F8B5054629
:100480000F460120A840044618480068FCF756FFB4
:100490000646002E00D0F8BD154800682040002810
:1004A0001DD1284600F0BCFC002805D0114800688A
:1004B00020431049086004E00E480068A0430D493D
:1004C00008600B48006820430949086000220A4878
:1004D000016806480068FCF7FBFE064604E0044895
:1004E0000068A0430249086000BFD4E7C428002088
:1004F000CC280020C8280020C028002070B5044661
:100500000D46204600F08CFC002803D0002000F0AF
:10051000E9FE02E0012000F0E5FE70BD10B51848CC
:10052000006808210840002826D100F01DF90028A5
:100530000CD00020134908601148006801210843CD
:100540000F490860002001F00DFE17E000F0E0F810
:10055000002806D000200B490860022001F002FEAE
:100560000CE009480068002803D0032001F0FAFDE0
:1005700004E001F0CBFD01E001F0D8FD10BD00006A
:10058000B42800209C280020A0280020F8B5294885
:100590000078002800D1F8BD27480068002801D164
:1005A000012000E00020054624480068002801D111
:1005B000012000E00020064600BF002D14D168464F
:1005C00051DF0446052C01D101250CE0002C06D09A
:1005D00000BF002211462046FCF774FD03E01649D7
:1005E00000980968884700BF002E1AD11448008877
:1005F000009069461348006861DF0446052C01D16C
:1006000001260DE0002C06D000BF00221146204636
:10061000FCF758FD04E00B48006808490968884762
:1006200000BF002D02D0002E00D000E0C5E700BFC3
:1006300000BFB0E708290020182900201429002055
:10064000102900200C29002001464888064A1288FB
:10065000904206DB4888044A5288904201DC01201F
:1006600070470020FCE70000502800200C48008C58
:10067000C0B2012812D10A48808C0007000F002860
:100680000CD10748806AF0210840402806D1044870
:10069000C06A0840002801D1012070470020FCE713
:1006A000C00F00F01948008CC0B201282CD11748A7
:1006B000808C0007000F002826D11448806AF021A2
:1006C0000840002806D11148C06A0840002801D11E
:1006D000012070470D48806AF0210840102806D19B
:1006E0000A48C06A0840002801D10120F1E7074804
:1006F000806AF0210840302806D10448C06A0840CA
:10070000002801D10120E4E70020E2E7C00F00F05B
:10071000F8B512480078142148431049091D4518BE
:10072000EF6800F0BBFF00906988C919AA88891892
:10073000481E0099FBF70AFD064609480068B042CA
:1007400007D307480068B04205D106480068002872
:1007500001D1012400E000242046F8BD6C2F0020C8
:10076000A4280020A0280020F8B510480078142103
:1007700048430E49091D4518EE6800F08FFF0090B0
:1007800069888919AA888918481E0099FBF7DEFC38
:10079000074607480068002805D006480068B842A8
:1007A00001D1012400E000242046F8BD6C2F002078
:1007B000A0280020A428002001468807800F0028D8
:1007C00001D1012070470020FCE7000010B504466D
:1007D00005480078C007C00F002803D00348007800
:1007E000FDF73EFE10BD00000C280020042800206C
:1007F000FEB52B48006801902A480078009040E040
:100800000098C000284909684418257835E0182068
:10081000684361680F18681CC5B2A078A84200D16F
:1008200000253878022802D0032823D10EE02421A5
:10083000786848431D4909684618307D002804D06F
:10084000786801F0A5FD0020307514E00CE0144933
:10085000096824225143154A12688818002101753D
:100860000F4A016A116000BF0D480068401C002853
:10087000EDD100E000BF00BF00BF6078A842C6D144
:1008800000BF0098411EC9B200910028B8D10448A9
:1008900001680198814201D00120FEBD0020FCE7E3
:1008A000E0280020D8280020DC280020D4280020C0
:1008B000FEB507464348006802904348007801901F
:1008C00071E00198C00041490968451863E0781C4F
:1008D000002807D03E46242070433D49096844184B
:1008E000276A29E02978182359436A68501829781B
:1008F000491C29702978AA78914201D100212970D8
:10090000466824217143324A12688C180178012903
:1009100002D1217D002900D03DE08168A160C1683D
:10092000E160016921614169E1612A490978002991
:1009300001D00021A16000BF2749A0680968401AC2
:100940000002000A2549884208D22349A0680968A4
:1009500001F058FCE1684018606011E01E48A16891
:10096000006801F04FFC0090E1680098814204D9D2
:10097000E1680098081A606001E00020606000BF34
:100980000020A060E06001202075801E20623046BB
:1009900001F090FC00BF781C002898D12878697875
:1009A000884294D100BF0198411EC9B2019100282C
:1009B00087D1044801680298814201D00120FEBD20
:1009C0000020FCE7E0280020D8280020DC280020B8
:1009D000D4280020F9280020E4280020FFFF7F0011
:1009E0003EB500200090019002901B4800901B48EB
:1009F000019000206946087200BF6846407A0109EC
:100A00000901491C68464172407AF0218843203030
:100A10006946487200BF00BF6846807A000900013D
:100A2000401C88726846807AF021884320306946ED
:100A3000887200BF0A48FDF77BFA044600BF2546CE
:100A4000002D06D000BF002211462846FCF73AFBD5
:100A500000BF00BF3EBD000095120200951C0200C1
:100A60002029002008B5FCF78BFC16A0FBF76AFED6
:100A700001F092FD6846FDF79FFFFDF79BFA68467F
:100A80000078FEF7EDFCFFF76FFBFFF7A9FFFCF71F
:100A9000D5F9FEF731FAFCF7A0FD0320FCF7DEFFE5
:100AA000044600BF2546002D06D000BF0022114697
:100AB0002846FCF707FB00BF00BF00BF00F0D4FCD6
:100AC000FCE70000696E697469616C697A61746938
:100AD0006F6E20646F6E652E0900000010B505482A
:100AE000006808218843034908600348007801F042
:100AF0000BF910BDB428002098280020F8B5054651
:100B00000E4614462879801CC7B22078801CC01974
:100B10001F2801DD0C20F8BD781CC1B22278501CC2
:100B20002070B154FF212278501C2070B1542278DB
:100B30009119288801F0BAFD217840182070A88802
:100B400000280EDDA868002801D10720E3E7AA8865
:100B500023789819A968FBF723FB20782979401896
:100B600020700020D7E7F7B584B004460F460698FA
:100B70000678B01C1F2803DC6078801C1F2802DD6B
:100B80000C2007B0F0BD1F20801B801E85B202958F
:100B9000B11C781802A97DDF03900398002801D0CA
:100BA0000398EEE72078022808D168460089A84219
:100BB00004DC09200190684605890BE008200190BB
:100BC0006078002804D06078A84201DC657801E0F4
:100BD00068460589681CC2B23046711CCEB23A54D0
:100BE0003046721CD6B20199395406980178A81C77
:100BF0000818C1B2069801700020C2E70146002023
:100C000070470246002070470246002070470000EF
:100C100001B505E00098401E00900348FBF75AFA22
:100C200000980028F6D108BDE703000070B504461F
:100C30000D4629462046FBF769FC00BFE106C90EB8
:100C4000012088400549086000BF00BFE106C90EC9
:100C5000012088400249086000BF70BD80E200E0CA
:100C600000E100E0FEB505460E46284600F0D8FB40
:100C7000002820D02846FDF725FF001F28490F5CDB
:100C8000BC11032C0CD100BF264800690121A940EA
:100C90000840002801D0032000E00220019005E078
:100CA000012C01D1022000E0032001902846019987
:100CB00000F070F932E0284600F0BEFB00282DD08D
:100CC0002846FDF7FFFE0446A000FF30013080B249
:100CD0000190204614495122120189188200895836
:100CE00001221143104A51231B01D2188300D15015
:100CF00000BF019800F088F9002E0ED02846FDF7BD
:100D0000E1FE0090FDF79AFE0746002F04D0012176
:100D1000A140084600F08CF900BF00BFFEBD0000F6
:100D2000642F00200005005000600040F7B582B03D
:100D300004460E4600200190204600F063FB002888
:100D400002D0082001905FE0F27820460499FDF778
:100D50007DFE0546681C002853D0B078002810D0CE
:100D600000BFA1002A4A8918096802229143084657
:100D700005210907072212028918A200885000BF26
:100D80000AE0707881000522120707231B02D2189F
:100D9000A300D15000BF00BFF078002826D03778DC
:100DA0001C48512109014018A90040581A4908401F
:100DB0001849512212018918AA008850154851215A
:100DC00009014018A900415820021F2212021040B8
:100DD0003A0403231B041A40104301430D485122D7
:100DE00012018018AA00815000BF0CE0281F0B4997
:100DF000085C31788901084342B2281F07490A5428
:100E000001E00420019000BF019805B0F0BD000092
:100E10000007005000600040FFE0FCFF642F00204E
:100E2000014600BF05480069C840C007C00F002840
:100E300001D0012070470020FCE7000000050050B1
:100E400010B51248407A002801D0082010BD0024B7
:100E500004E0204600F000FB601CC4B2202CF8DB4C
:100E6000002404E02046FDF7D9FD601CC4B2092C23
:100E7000F8DB01210620FFF7D9FE0120C00700F0B2
:100E8000D7F80121014841720020DFE7602F0020E0
:100E90000348407A002801D0012070470020FCE779
:100EA000602F0020FEB504460E460020019020462B
:100EB00035490956491C002901D0012100E00021D3
:100EC000002902D0082001905BE0B07800283AD0D9
:100ED000012200212046FDF7B9FD0546681C0028C7
:100EE0002ED0377872780092284851210901401895
:100EF000A900405826490840244951221201891866
:100F0000AA0088502148512109014018A9004158E0
:100F100020021F22120210403A0403231B041A402D
:100F20001043009A120501231B051A401043014388
:100F30001648512212018018AA00815000BF01E01A
:100F40000420019006E000BF0121C9430E4801556D
:100F500000BF00BF0198002813D100BF0320052166
:100F60000907072212028918A200885000BF707872
:100F7000012803D1204600F039F802E0204600F0B5
:100F80002DF80198FEBD0000442F002000600040B5
:100F9000FFE0ECFF10B50522120707231B02D21851
:100FA0008300D25803231B049A4305231B070724FD
:100FB00024021B1984001A510522120707231B0261
:100FC000D2188300D2580B041A4305231B070724A9
:100FD00024021B1984001A5110BD00000121814018
:100FE000014AD16070470000000500500121814096
:100FF000014A916070470000000500500146014819
:10100000081870470060004010B504462046FFF7FE
:10101000F5FF0021016010BD10B504462046FFF722
:10102000EDFF0068012800D110BD0020FCE70000A2
:1010300001494860704700000063004070B50546F4
:10104000002D12D0032D13D10220FDF78DF9044697
:1010500000BF2646002E06D000BF002211463046B3
:10106000FCF730F800BF00BF03E000F01DFE00E019
:1010700000BF00BF70BD38B504460D46A8790028F2
:1010800008D10021684601704170694620462268F7
:10109000904700BF38BD000070B50546288810286D
:1010A00002D0112819D113E00720FDF75DF904469D
:1010B00000BF2646002E06D000BF00221146304653
:1010C000FCF700F800BF00BFA8880549088005E0CC
:1010D0000020C0430249088000E000BF00BF70BD8F
:1010E0000228002070B505462878002810D13B2141
:1010F0000848008876DF044600BF2646002E06D04A
:1011000000BF002211463046FBF7DCFF00BF00BFE6
:1011100070BD00000228002010B504460822A11D61
:101120000248FBF73DF8FDF715FF10BD5C280020D5
:1011300010B50446A08809490880082221461631C6
:101140000748FBF72DF80020064908700648C089BB
:10115000002801D1FDF7FEFE10BD00005A28002036
:101160005C28002058280020B42D002038B5044603
:101170000D46A8886082002168460170417069466A
:1011800020462268904738BD10B5084800780128ED
:1011900002D0022807D102E0FBF76CFD04E0032037
:1011A0000249087000E000BF00BF10BD8C2800207D
:1011B0000B480078002802D003280DD108E0042055
:1011C000084908600120084908600549087004E0E2
:1011D00002200349087000E000BF00BF7047000014
:1011E0008C280020002500400020004070B50546F6
:1011F0000020C0430A49088000200A4908700A48B4
:101200000068FCF79BF80446002C07D0074880696B
:10121000002803D0054881692046884770BD00003A
:101220005A2800205828002064280020B42D0020CF
:10123000F8B504460E46B77900BF0120C005134932
:10124000C8600020886000BF082F1ED100BF78054D
:10125000C8600020886000BF0D48FFF7D9FC00205F
:1012600069460870491C2046FCF750FE0546002DD3
:1012700004D1694620462268904705E0606800284E
:1012800002D028466168884700BFF8BD00050050BD
:101290008813000070B505460C462078002803D15D
:1012A0006078FBF757FE00E000BF00BF70BD000094
:1012B00010B509480078012807D0022804D0032877
:1012C00006D1FBF7D7FC04E000BFFBF7A3FC00E06E
:1012D00000BF00BF10BD00008C28002010B5FBF738
:1012E000C9FC10BD10B504462300FBF73BFA05040A
:1012F000070D0A101300FFF747FF0CE0FFF758FF38
:1013000009E0FFF7D5FF06E000F008F803E0FFF77B
:10131000E5FF00E000BF00BF10BD000010B50348AE
:101320000078012801D1FBF779FC10BD8C28002042
:1013300070B50546AC1D20881249C989884220D164
:10134000208B02281DD100BF00BFA17EE27E1202C9
:1013500011430846C107C90F002902D0FDF7FAFD65
:101360000FE009480068FBF7E9FF0646002E07D0AA
:1013700004488069002803D00248816930468847C4
:1013800000BF70BDB42D002064280020024600215B
:1013900005E0505C002801D001207047491C062957
:1013A000F7D30020F9E7000010B504461C21614383
:1013B000124A8918084611300621FAF70AFF1C2143
:1013C00061430E4A88181021FAF703FFFF211C2001
:1013D00060430A4A801801741C206043801881769B
:1013E0000021C9431C20604380180183204601F07E
:1013F0006BF90020A100024A505010BDEC2D0020D6
:10140000D02D0020014605484056C017401C00283A
:1014100001D0012070470020FCE70000442F00208D
:10142000014604484056042801DB01207047002093
:10143000FCE70000442F00200146064840560028E3
:1014400005DB04484056042801DA012070470020DB
:10145000FCE70000442F00200022D24301490A5437
:1014600070470000442F002070B548DF044600BFDD
:101470002546002D06D000BF002211462846FBF766
:1014800021FE00BF00BF70BD014600BF08480068D4
:1014900004221040002801D10820704700BF002915
:1014A00001D10E20F9E70348407808600020F4E7F6
:1014B000B42800206C2F00203CB5034600BF25480F
:1014C000006804242040002801D108203CBD00BF52
:1014D000002B01D10E20F9E7002A01D10E20F5E7FB
:1014E0001868022806D20C24186860431A4C205849
:1014F000002801D10720E9E75C6818680194009092
:10150000019C0C2518686843134D40190089484315
:10151000201801900C24009860432C460019408943
:101520000C25009C6C430C4D6419248960430C25E8
:10153000009C6C43084D641964680019019CA0422A
:1015400001D80720C2E7019C009854601060002079
:10155000BCE70000B428002038300020FEB5044667
:101560000D4600BF4148006804210840002801D111
:101570000820FEBD00BF002C01D10E20F9E7206835
:10158000022806D20C21206848433949085800280F
:1015900001D10720EDE70C21206848433449401869
:1015A00040890C2221685143314A891809894843EE
:1015B0000C22216851432E4A8918496840186168F5
:1015C000884201D80720D4E76068FFF7F5F80028C3
:1015D00001D11020CDE70C2320685843244BC018BC
:1015E00062684068101A00900C22206850431A4626
:1015F000801801890098FAF7A9FD002901D0072079
:10160000B7E70C2220685043194A80180189284600
:10161000FAF7B2FD002901D1002D01D10720A8E77A
:101620000C21206848431249401806890C22216881
:1016300051430F4A891849894E43606847190C2164
:10164000206848431146401840688019019001986D
:10165000874201D907208CE700202B46024621460D
:1016600000900320FDF71EFB83E70000B428002054
:101670003830002070B508484469601C002807D045
:1016800000F00CF8054629462046FAF75FFD70BDCC
:10169000012000074069FAE7001000100120000750
:1016A000006980B27047000010B5FDF73DFB0020D7
:1016B00017490880FFF7DEFFC41EFFF7EFFF444322
:1016C0001448046000201449086000BF0DE00022A7
:1016D0000C214143114B5A500C214143C9180A8136
:1016E0000C214143C9184A81401C0228EFD3002035
:1016F0000B4908700B4908600B4908600B490860EA
:10170000094800680421084307490860002010BD0B
:101710009028002094280020A428002038300020A1
:1017200098280020A8280020B4280020AC280020F9
:10173000FFB581B00C4615461E4600BF394800680B
:1017400004210840002802D1082005B0F0BD00BFE8
:10175000002C01D10E20F8E70198002801D10E20BD
:10176000F3E72068022806D20C21206848432E495E
:101770000858002801D10720E7E70C2120684843DA
:101780002949401840890C2221685143264A89186A
:10179000098948430C2221685143234A8918496822
:1017A00040186168884201D80720CEE7002D07D095
:1017B0000C21206848431C4940180089A84201DADE
:1017C0000720C2E7A9190C2220685043164A801846
:1017D0000089814201DD0720B7E70198FEF7ECFFA1
:1017E000002809D03046FEF7E7FF002804D06068E3
:1017F000FEF7E2FF002801D11020A6E760688119FA
:101800002A460198FAF7CCFC00950C212068484341
:1018100005490F58002202212046019BB8470020AD
:1018200093E70000B428002038300020F8B50446C3
:101830000D4600BF3F48006804210840002801D140
:101840000820F8BD00BF002C01D10E20F9E7002DC3
:1018500001D10E20F5E72068002801D10E20F0E725
:10186000FFF71CFFA188884202DBA088102801DA5C
:101870000720E6E7E08800280DD0FFF7FBFE471EB3
:10188000FFF70CFF4743E088A18848432A490968CD
:101890004018874201D20720D3E720798007800FC4
:1018A000002801D00720CCE724480088022801D175
:1018B0000420C6E72148008828601F480068686047
:1018C0001E4800880C2250431D4A801869684160F8
:1018D0001A4800880C225043194A21681150A188E7
:1018E000164800880C225043154A80180181E1886F
:1018F000124800880C225043114A80184181FFF79A
:10190000CDFE0746A188E2885143481E3946FAF7C2
:1019100033FC461CFFF7C2FE7043074909684018B4
:101920000549086005480088401C044908800020DB
:1019300087E70000B4280020942800209028002089
:1019400038300020F8B504460E4615461F4600BF45
:101950003248006804210840002801D10820F8BD61
:1019600000BF002E01D10E20F9E7002C01D10E207E
:10197000F5E72068022806D20C2120684843284950
:101980000858002801D10720E9E70C2120684843C6
:101990002349401840890C2221685143204A891864
:1019A000098948430C22216851431D4A8918496816
:1019B00040186168884201D80720D0E7002D07D081
:1019C0000C2120684843164940180089A84201DAD2
:1019D0000720C4E7E9190C2220685043104A8018F8
:1019E0000089814201DD0720B9E73046FEF7E4FEB9
:1019F000002809D03846FEF7DFFE002804D06068D2
:101A0000FEF7DAFE002801D11020A8E72B46324667
:101A1000214601200097FDF745F9A0E7B4280020F2
:101A20003830002010B504460F480078002819D03F
:101A30000D480078042815D0022C02D0032C0FD1B9
:101A400002E0FEF75DFB0CE0084800680821084052
:101A5000002802D1FEF734FB01E0FEF751FB00E065
:101A600000BF00BF10BD000098280020B42800204F
:101A7000F8B504460E4615461F4600BF32480068BA
:101A800004210840002801D10820F8BD00BF002E25
:101A900001D10E20F9E7002C01D10E20F5E72068D6
:101AA000022806D20C2120684843284908580028FB
:101AB00001D10720E9E70C21206848432349401859
:101AC00040890C2221685143204A891809894843DA
